:100000000C94DB000C9403010C9403010C94030189
:100010000C9403010C9403010C9403010C94030150
:100020000C9403010C9403010C94F2070C946108E6
:100030000C9403010C9403010C9403010C94030130
:100040000C9403010C9403010C9403010C94030120
:100050000C9403010C9403010C9403010C94A80765
:100060000C9403010C9403010C9403010C94030100
:100070000C9403010C9403010C9403010C940301F0
:100080000C9403010C9403010C9403010C940301E0
:100090000C9403010C9403010C9403010C940301D0
:1000A0000C9403010C9403010C9403013F065B4F75
:1000B000666D7D077F6F777C395E79710000000087
:1000C0002300260029002C002F00080B000202024A
:1000D00000000904000001020200000524001001D4
:1000E0000524010101042402060524060001070578
:1000F000810310004009040100020A000000070506
:1001000002024000000705830240000004030904C6
:1001100012010002EF020140C016DC3400010102AE
:100120000301537061726B46756E0054656B204617
:1001300031382043617574696F6E0000000000243F
:100140000027002A002D00300000000000250028B4
:10015000002B002E003100040404040403040502F3
:100160000202020403020202020606060606060452
:10017000040202020404040802011040804010201E
:10018000408040800802040180402010020110805D
:1001900010204040200000000200090F000003046E
:1001A00001000C0000000000000000000000000042
:1001B00000000000D20A11241FBECFEFDAE0DEBF3C
:1001C000CDBF11E0A0E0B1E0E4E9FDE102C005909F
:1001D0000D92A839B107D9F723E0A8E9B1E001C031
:1001E0001D92AF3AB207E1F710E0CBEDD0E004C0CA
:1001F0002197FE010E94AE0ECA3DD107C9F70E94A9
:10020000CA0C0C94C80E0C940000E82FF0E021E01A
:1002100030E001C0220F6A95EAF7E753FD4F648191
:10022000442379F0622B6483A091C902B091CA0281
:10023000ED91FC9111970480F581E02D482FCD01BF
:10024000099420956223EFCF41E0892B09F440E027
:1002500060E080E00C94050141E0892B09F440E066
:1002600060E081E00C94050141E0892B09F440E055
:1002700060E082E00C94050141E0892B09F440E044
:1002800061E080E00C94050141E0892B09F440E035
:1002900061E081E00C94050141E0892B09F440E024
:1002A00061E082E00C94050141E0892B09F440E013
:1002B00062E080E00C94050141E0892B09F440E004
:1002C00062E081E00C94050141E0892B09F440E0F3
:1002D00062E082E00C94050141E0892B09F440E0E2
:1002E00063E080E00C94050141E0892B09F440E0D3
:1002F00063E081E00C94050141E0892B09F440E0C2
:1003000063E082E00C940501CF93DF93C0E0D82F27
:10031000D1958091CB02C817A0F4EC2FF0E0E75301
:10032000FD4FD4838091C9029091CA02DC01ED9106
:10033000FC910480F581E02D4C2F6D2F0995CF5F46
:10034000E8CFDF91CF910895FC018091B801882317
:1003500011F13FB7F89482E08093E9002091F20018
:10036000822F90E01816190614F481E090E088239B
:1003700039F0289844E64093B7014091F10040835A
:10038000222339F02091F200211103C02BE62093A3
:10039000E8003FBF08958FEF9FEF08952FB7F894BF
:1003A00083E08093E9009091E800892F807295FFA7
:1003B00004C09091F20080E4891B2FBF08958091C2
:1003C000AF0181110DC082E08093AB0184E0809386
:1003D000AC011092AE011092AD0181E08093AF01AB
:1003E0008BEA91E0089581508F3008F047C0E82FE4
:1003F000F0E0E350FE4F0C94AE0E1A021E020C0207
:10040000120216023E023E023E02210227022B0287
:100410002F0235023E023902809180008F7780934F
:1004200080000895809180008F7DF9CF80918000B9
:10043000877FF5CF84B58F7784BD089584B58F7D90
:10044000FBCF809190008F778093900008958091EA
:1004500090008F7DF9CF80919000877FF5CF8091BC
:10046000C0008F778093C00008958091C0008F7D79
:10047000F9CF8091C200877F8093C20008951F93B7
:10048000CF93DF93282F30E0F901EB56FE4F849194
:10049000F901EA58FE4FD491F901E95AFE4FC4918F
:1004A000CC23A9F0162F81110E94F301EC2FF0E06C
:1004B000EE0FFF1FE75BFE4FA591B4918FB7F89445
:1004C000EC91111108C0D095DE23DC938FBFDF9132
:1004D000CF911F910895DE2BF8CFCF93DF9390E05B
:1004E000FC01EA58FE4F2491895A9E4FFC018491E9
:1004F0008823C9F090E0880F991FFC01E55CFE4F4E
:10050000A591B491FC01E75BFE4FC591D4916111B7
:100510000DC09FB7F8948C91209582238C9388818D
:10052000282328839FBFDF91CF910895623051F433
:100530009FB7F8943C91822F809583238C93E88118
:100540002E2BEFCF8FB7F894EC912E2B2C938FBFDF
:10055000EACF3FB7F8948091A7019091A801A091AC
:10056000A901B091AA0126B5A89B05C02F3F19F09B
:100570000196A11DB11D3FBFBA2FA92F982F882723
:10058000BC01CD01620F711D811D911D42E0660FFE
:10059000771F881F991F4A95D1F708958F929F92D0
:1005A000AF92BF92CF92DF92EF92FF924B015C012C
:1005B0000E94A9026B017C010E94A9026C197D09AD
:1005C0008E099F09683E734081059105A8F321E0DB
:1005D000821A9108A108B10888EEC80E83E0D81EDF
:1005E000E11CF11C81149104A104B10429F7FF90CE
:1005F000EF90DF90CF90BF90AF909F908F90089535
:1006000040919A0150919B0120919801309199015C
:1006100042175307B4F49091E8009570E1F390917C
:10062000E80092FD19C08093F10080919A019091A9
:100630009B0101968F739927892B19F48EEF809374
:10064000E80080919A0190919B01019690939B0103
:1006500080939A0181E0089580E00895EF92FF92DF
:100660000F931F93CF93DF93F82E192FE62E042FAD
:1006700081E0860F880F0E94000383E00E94000340
:10068000CF2DD12FEC0EFD2EF11CCE15DF05B9F0CC
:1006900007FF13C0FE0184910E940003182F80E021
:1006A0000E940003812321968111EFCFDF91CF912A
:1006B0001F910F91FF90EF9008958881EDCF81E019
:1006C000F5CFDF92EF92FF920F931F93CF93DF93BB
:1006D000D82E8A01EB017B01E40EF51ECE15DF0555
:1006E00059F0D7FE12C0FE0184910E9400032196AA
:1006F0008111F4CF0FEF1FEFC801DF91CF911F9150
:100700000F91FF90EF90DF9008958881EECF0F93C7
:100710001F93CF93DF931F92CDB7DEB782E089831B
:1007200042E450E06AEC70E080E80E9461030E94BD
:10073000DF01DC0112960D911C910115110589F064
:10074000D801ED91FC910280F381E02DBE016F5F35
:100750007F4FC801099597FD04C0F80100851185F8
:10076000ECCF89810F90DF91CF911F910F91089568
:10077000615030F02091F100FC0120830196F8CF08
:10078000289884E68093B70108958F929F92AF9244
:10079000BF92CF92DF92EF92FF920F931F93CF936E
:1007A000DF936C017B018A0180910B01882309F49E
:1007B0005CC08091B801882309F457C080919E01E4
:1007C00080FF05C08091E00082608093E000E80136
:1007D000B12C8AEFA82E93E0892E2AE3922E20973F
:1007E00011F4BB20D9F10E94CE0181110AC0AA9454
:1007F000AA20D9F161E070E080E090E00E94CE0292
:10080000EECF8C171D0611F00CF08C2F9FB7F894CB
:100810008092E9002091E80025FD02C09FBFDFCF54
:10082000282F30E0C21BD30BF701815020F04191FB
:100830004093F100FACFE20EF31EBB2021F090921C
:10084000E800B12CEBCF8091E80085FDE7CF9092D6
:10085000E800BB24B394209709F3F3CF5D9884E6B6
:1008600080939D01101611063CF081E090E0F601A6
:100870009383828310E000E0C801DF91CF911F9144
:100880000F91FF90EF90DF90CF90BF90AF909F902F
:100890008F900895CF93DF931F92CDB7DEB7698312
:1008A000DC01ED91FC910280F381E02D41E050E00C
:1008B000BE016F5F7F4F09950F90DF91CF91089533
:1008C00083E08093E9008091F200882319F08AE3A5
:1008D0008093E80008950E94CE0190E00895CF93A0
:1008E000DF931F92CDB7DEB7FC018485958597FD18
:1008F00008C02FEF3FEF358724870F90DF91CF910E
:100900000895CE0101960E94A401019719F48981EE
:1009100090E0F3CF8FEF9FEFF0CF0F931F93CF9324
:10092000DF931F92CDB7DEB78C01FC0184859585DE
:1009300097FF0BC0CE0101960E94A401019771F4AC
:10094000898190E0F80195878487F80184859585F1
:100950000F90DF91CF911F910F9108958FEF9FEF2F
:10096000F1CFFC018485958597FD0BC09FB7F89466
:1009700082E08093E9008091F2009FBF90E00196B1
:1009800008959FB7F89482E08093E9008091F20087
:100990009FBF90E00895BF92CF92DF92EF92FF92B7
:1009A0000F931F93CF93DF93EC0160E08D810E9442
:1009B0006D0261E08D810E943F0208E010E0D12CC1
:1009C000ED2CF12CF594E794DE2C60E08E810E94F2
:1009D0003F02E881F9810488F589E02DCE0109956F
:1009E0002D8130E0F901EB56FE4F8491F901EA5870
:1009F000FE4FC490F901E95AFE4FB490BB2089F034
:100A000081110E94F301EB2DF0E0EE0FFF1FE45483
:100A1000FF4FA591B491EC91CE2219F0DE2C689491
:100A2000D7F861E08E810E943F02E881F981048855
:100A3000F589E02DCE0109950150110909F0C0CFCB
:100A400061E08D810E946D0260E08D810E943F0215
:100A50008D2DDF91CF911F910F91FF90EF90DF903F
:100A6000CF90BF9008950F931F93CF93DF93EC0126
:100A7000162F042FE881F981048CF58DE02D64E4B4
:100A80000995E881F9810688F789E02DCE0109955D
:100A9000612F606CE881F981028CF38DE02DCE012D
:100AA0000995E881F981028CF38DE02D602FCE014C
:100AB0000995E881F981008CF18DE02DCE01DF915F
:100AC000CF911F910F9109941F93CF93DF93EC0166
:100AD000162FE881F9810688F789E02D0995E881CC
:100AE000F981028CF38DE02D612FCE010995E8810B
:100AF000F981008CF18DE02DCE01DF91CF911F9116
:100B00000994FF920F931F93CF93DF93EC01F62E7E
:100B100008E010E060E08E810E943F02E881F981E8
:100B20000488F589E02DCE0109956F2D61708D81C6
:100B30000E943F02E881F9810488F589E02DCE0109
:100B40000995F69461E08E810E943F02E881F98167
:100B50000488F589E02DCE01099501501109D1F6DF
:100B6000E881F9810488F589E02DCE01DF91CF91EC
:100B70001F910F91FF900994CF93DF93EC0161E0F7
:100B80008F810E943F02E881F9810488F589E02D78
:100B9000CE01DF91CF910994CF93DF93EC0160E018
:100BA0008F810E943F02E881F9810488F589E02D58
:100BB000CE01DF91CF910994089560E070E0CB0100
:100BC00008955F926F927F928F929F92AF92BF92A1
:100BD000CF92DF92EF92FF920F931F93CF93DF9309
:100BE0006C015A01522E7B01D0E0C0E0622E712CC4
:100BF00088248394912CD60114968C9190E09C01CA
:100C000026193709C217D30744F5D701ED917D01A5
:100C1000EE2319F10E2E000CFF0BB097E00FF11F21
:100C200044918C1B9D0B0197F40102C0EE0FFF1F36
:100C30008A95E2F7CF018A219B2121E0892B09F4D3
:100C400020E06C2F650DD601ED91FC910088F189B3
:100C5000E02DC60109952196CECFDF91CF911F914E
:100C60000F91FF90EF90DF90CF90BF90AF909F904B
:100C70008F907F906F905F900895CF92DF92EF9268
:100C8000FF920F931F93CF93DF937C016B01042F8F
:100C900010E0D0E0C0E0C017D10781F0F601EC0F02
:100CA000FD1F4491D701ED91FC910088F189E02D61
:100CB00020E06C2FC70109952196EDCFDF91CF91F0
:100CC0001F910F91FF90EF90DF90CF900895242F08
:100CD000DC01ED91FC910088F189E02D40E0099460
:100CE0009F92AF92BF92CF92DF92EF92FF920F93BB
:100CF0001F93CF93DF937C01C1E0C42ED12C8AE0F7
:100D0000A82EB12CD70114964C914C17F0F09601F7
:100D10000C2E02C0359527950A94E2F721704C1BE2
:100D2000CB01B5010E949A0E962ED72FD701ED91D7
:100D3000FC910680F781E02D0CEA10E0682FC701D6
:100D40000995692D7D2FCF5FDDCFDF91CF911F9169
:100D50000F91FF90EF90DF90CF90BF90AF909F905A
:100D600008950F931F93E62F642FEF70E00FF12F7C
:100D7000F11D4491DC01ED91FC910088F189E02D99
:100D80001F910F910994362FDC01ED91FC910480A5
:100D9000F581E02D60E0211160E8642B432F099478
:100DA000242FDC0112963C911297431740F4ED91E9
:100DB000FC91068CF78DE02D462F622F0994089543
:100DC0000F931F93CF93DF93EC01E881F981048C9B
:100DD000F58DE02D60E40995E881F9810688F789B1
:100DE000E02DCE010995E881F981028CF38DE02D8B
:100DF00060ECCE01099510E000E0E881F9818A817C
:100E000080171106A9F0A4F0028CF38DE02D60E0AC
:100E1000CE0109958B81893040F0E881F981028CFF
:100E2000F38DE02D60E0CE0109950F5F1F4FE5CFF8
:100E3000008CF18DE02DCE01DF91CF911F910F91AC
:100E40000994DC01ED91FC91048CF58DE02D61118C
:100E500006C060E8483008F047E0642B099468E871
:100E6000F9CFCF93DF93EC010E94810560E08E8182
:100E70000E943F0260E08D810E943F02E881F9817B
:100E80000488F589E02DCE01DF91CF910994CF93AD
:100E9000DF93EC0161E08E810E943F0261E08D8171
:100EA0000E943F02E881F9810488F589E02DCE0196
:100EB000DF91CF910994CF93DF93EC0160E08D81B6
:100EC0000E943F0260E08E810E943F02E881F9812A
:100ED0000488F589E02DCE01DF91CF910994DC01E2
:100EE0001A968C911A9780FF21C01E96ED91FC9165
:100EF0001F973097D9F0F89418968D919C91199777
:100F00001A962C911A972E7F1A962C931A977894EA
:100F10001B962D913C911C97822393231D962C9117
:100F200002C0969587952A95E2F709940895FC01E9
:100F30008285811105C05187408785E0828705C081
:100F40008085918584179507B1F7089508950895D0
:100F50001F920F920FB60F9211242F933F938F93EE
:100F60009F93AF93BF938091A3019091A401A0910F
:100F7000A501B091A6013091A20123E0230F2D37E6
:100F800058F50196A11DB11D2093A2018093A301E4
:100F90009093A401A093A501B093A6018091A7010D
:100FA0009091A801A091A901B091AA010196A11D5B
:100FB000B11D8093A7019093A801A093A901B093BC
:100FC000AA01BF91AF919F918F913F912F910F9067
:100FD0000FBE0F901F90189526E8230F0296A11DB3
:100FE000B11DD2CF1F920F920FB60F9211248F9383
:100FF0009F938091E1009091E100937F9093E100B5
:1010000083FF0FC01092E90091E09093EB001092E3
:10101000EC0092E39093ED001092B80198E0909369
:10102000F00082FF22C093E09093E9009091F200DB
:10103000992319F09AE39093E80090919D019923E8
:1010400041F090919D01915090939D01911101C0AB
:101050005D9A9091B701992341F09091B701915019
:101060009093B701911101C0289A84FF18C0809114
:10107000E2008E7E81608093E2008091E1008F7EAD
:101080008093E10080919E018E7E806180939E011D
:101090009F918F910F900FBE0F901F90189580FF1A
:1010A000F7CF8091E2008E7E80618093E200809194
:1010B000E1008E7E8093E10080919E018E7E8160B2
:1010C000E5CF1F920F920FB60F921124CF92DF92AD
:1010D000EF92FF920F931F932F933F934F935F9342
:1010E0006F937F938F939F93AF93BF93EF93FF93F0
:1010F000CF93DF93CDB7DEB76C97DEBFCDBF109235
:10110000E9008091E80083FF25C068E0CE014596A4
:101110000E94B80382EF8093E8008D8987FF39C071
:101120009091E80090FFFCCF982F907609F034C1A1
:101130009E894F89588D2F89F88C911131C0803844
:1011400061F580919F018093F1001092F1008EEF84
:101150008093E8006C960FB6F894DEBF0FBECDBF4B
:10116000DF91CF91FF91EF91BF91AF919F918F91BF
:101170007F916F915F914F913F912F911F910F91AF
:10118000FF90EF90DF90CF900F900FBE0F901F90C9
:1011900018959EEF9093E800C7CF1092F100D5CF3D
:1011A000913059F48111D3CF4130510581F68091AE
:1011B0009F018D7F80939F01CACF933049F48111A5
:1011C000C6CF4130510519F680919F018260F2CF60
:1011D000953041F48091E80080FFFCCF2068209397
:1011E000E300B5CF963009F0A9C00B8D1C8D22E02D
:1011F0001092E90010929B0110929A01F2122EC0F7
:1012000010929901109298010E9487031F8299E021
:101210009983FA8291E09E8390EA98879AEF998762
:1012200020919A0130919B01275F3F4F3C832B8394
:101230008D831092E90010929B0110929A011093F5
:1012400099010093980149E050E0BE016F5F7F4F24
:1012500080E00E9461030E94870379CF1093990177
:10126000009398010E94DF01DC0112960D911C9100
:101270000115110509F451C1D801ED91FC910480CB
:10128000F581E02DBE016B5E7F4FC8010995009787
:1012900009F03EC1F80100851185EACFF3E0FF12A5
:1012A0000EC08F89882309F440C0823061F440E881
:1012B0006FE08BE291E00E942E03811148CF81E222
:1012C0008093EB0047CF813029F440E868E082E268
:1012D00091E0F1CF833099F70E94DF01DC01129693
:1012E000ED90FC908E010F5F1F4F6801E114F10437
:1012F00079F0D701ED91FC910680F781E02DB801DE
:10130000C7010995080F111DF701E084F184EECFA4
:10131000D8011C92F60101900020E9F73197BF0136
:101320006C197D0940E0C601C6CF6CE071E0FB019D
:10133000449150E080E80E94610309CF973009F49E
:10134000BECF983021F481E08093F10000CF993036
:1013500009F0FDCE837009F0B2CFE9E2F1E081E05F
:1013600031E096E32191222371F08093E9003093DC
:10137000EB00DF0111972C912093EC009093ED008E
:101380008F5F873079F78EE78093EA001092EA004A
:101390008F898093B801DBCE8B8D9C8D1092E900F4
:1013A00010929B0110929A01909399018093980159
:1013B000898D811192C08E899D89913A49F481323B
:1013C00009F07DCF47E050E064E071E080E0B3CF0A
:1013D000913209F074CF833269F48F89988DB0E02F
:1013E000A0E08093000190930101A0930201B093CB
:1013F0000301ADCE803269F48091E80082FFFCCF1A
:1014000067E084E091E00E94B8038BEF8093E800EE
:101410009ECE823209F09BCE8F8980930B01EEEF36
:10142000FFE7859194918B3F9C4D51F1E0E0F8E00E
:101430008091040190910501A0910601B0910701EE
:10144000803B9440A105B105F1F480910B0180FD32
:101450001AC0EE3F8AE0F80789F587E797E791839E
:1014600080838091600080939C0188E19BE00FB6AF
:10147000F894A895809360000FBE9093600067CEAB
:10148000EEEFFAE0D5CF808191818737974709F059
:101490005ECEA89580916000886180936000809105
:1014A0009C0180936000EE3F2AE0F20789F0809172
:1014B000FE0A9091FF0A9183808349CE80819181B9
:1014C0008737980751F29093FF0A8093FE0AC5CFA1
:1014D0001092FF0A1092FE0A3ACE0E94DF01DC0150
:1014E00012960D911C910115110509F4E8CED80151
:1014F000ED91FC910190F081E02DBE016B5E7F4F7C
:10150000C8010995811123CEF80100851185EBCF23
:10151000181619060CF41BCED2CEF1E0FF12BECE87
:1015200060E171E004CFCF93DF93FC0188E191E0AB
:10153000918380837383628375836483A091A00108
:10154000B091A101C0EAD1E0109771F4F093A1012C
:10155000E093A0011782168282E291E0918380835A
:101560001286DF91CF91089514968D919C911597D5
:101570008617970750F06817790779F412968D91BE
:101580009C9113978617970740F4ED0126961696BF
:101590000D90BC91A02D109739F7B783A683F983DE
:1015A000E883DACF6F927F928F929F92AF92BF9231
:1015B000CF92DF92EF92FF920F931F93CF93DF931F
:1015C0001092BC011092BB0188EE93E0A0E0B0E065
:1015D0008093BD019093BE01A093BF01B093C00161
:1015E00083E391E09093BA018093B9018FEF9FEF6D
:1015F0009093C6018093C5011092AB031092AC0387
:101600001092AD031092AE03109261031092680322
:1016100082E08093E50283E08093E60288E0ECE0DC
:10162000F1E0A7EEB2E001900D928A95E1F765EE48
:10163000E62E62E0F62E870173E0A72EB12C62E061
:10164000D8018D918D010E946D026701C5EED2E037
:1016500061E08A810E946D0261E08A810E943F02FE
:1016600060E08A810E946D02F601B386A28621960F
:10167000F7E0CF0ED11C82E0CD3ED80749F7A8E3B2
:10168000EA0EF11CB2E0073E1B07C9F61092600398
:1016900010925F0385E491E09093DE028093DD0277
:1016A00018E01093E00286E08093E20294E09093C9
:1016B000E3028093E402C0E1C093DF02C093E10241
:1016C00061E00E946D0261E084E00E946D0261E0D1
:1016D00086E00E946D0261E086E00E943F0261E0C8
:1016E00084E00E943F028BE691E09093DE028093BB
:1016F000DD028DED92E00E94E00647E061E08DEDB5
:1017000092E00E942107EDECF2E0DF018C2F1D92A8
:101710008A95E9F78DED92E09093CA028093C90211
:10172000C093CB021093CC0260EA74E789EB92E09D
:101730000E94930AC1E9D1E0D093BA02C093B902E2
:10174000812C80E8982E9092C5028092C4029FE07E
:10175000692E6092C60284E291E09093C802809361
:10176000C70264EA74E789EA92E00E94930AD09380
:10177000AA02C093A902A12CBB24B394B092B502D3
:10178000A092B4021093B6028CE291E09093B8025A
:101790008093B70264EA74E789E992E00E94930AB1
:1017A000D0939A02C0939902C12C32E0D32ED092EA
:1017B000A502C092A40249E0742E7092A60284E3AE
:1017C00091E09093A8028093A70264EA74E789E805
:1017D00092E00E94930AD0938A02C0938902E12C7E
:1017E00054E0F52EF0929502E09294020AE0009304
:1017F00096028CE391E0909398028093970264EABA
:1018000074E789E792E00E94930AD0937A02C0932A
:10181000790280E098E090938502809384028BE0C7
:101820008093860284E491E09093880280938702FB
:1018300064EA74E789E692E00E94930AD0936A0210
:10184000C093690280E090E19093750280937402E6
:101850008CE0809376028CE491E090937802809300
:10186000770264EA74E789E592E00E94930AD093D4
:101870005A02C093590280E090E2909365028093EF
:1018800064028DE08093660284E591E090936802A3
:101890008093670264EA74E789E492E00E94930A05
:1018A000D0934A02C093490280E090E4909355029D
:1018B000809354028EE0809356028CE591E09093E1
:1018C00058028093570264EA74E789E392E00E9429
:1018D000930AD0933A02C0933902909245028092C3
:1018E00044026092460284E691E09093480280931D
:1018F000470268EA74E789E292E00E94930AD09373
:101900002A02C0932902B0923502A09234021093A9
:1019100036028CE691E0909338028093370268EAB1
:1019200074E789E192E00E94930AD0931A02C0936F
:101930001902D0922502C09224027092260284E7F6
:1019400091E0909328028093270268EA74E789E087
:1019500092E00E94930AD0930A02C0930902F09287
:101960001502E0921402009316028CE791E0909326
:10197000180280931702DF91CF911F910F91FF9072
:10198000EF90DF90CF90BF90AF909F908F907F901F
:101990006F900895789484B5826084BD84B5816029
:1019A00084BD85B5826085BD85B5816085BD80912A
:1019B0006E00816080936E001092810080918100A2
:1019C000826080938100809181008160809381009A
:1019D000809180008160809380008091910082607E
:1019E000809391008091910081608093910080911B
:1019F00090008160809390008091C100846080930A
:101A0000C1008091C10082608093C1008091C100BB
:101A100081608093C1008091C30081608093C30086
:101A20008091C00082608093C0008091C20081607C
:101A30008093C20080917A00846080937A008091C4
:101A40007A00826080937A0080917A00816080932E
:101A50007A0080917A00806880937A001092B801B1
:101A600010929F0110929E018091D7008160809317
:101A7000D70080EA8093D80089B5806189BD89B597
:101A8000826089BD09B400FEFDCF61E070E080E0B6
:101A900090E00E94CE028091D8008F7C806180937C
:101AA000D8008091E000807F8093E0008091E10089
:101AB0008E7E8093E1008DE08093E200559A209A1B
:101AC00047E061E08DED92E00E94210781E00E94F5
:101AD000840160EA7FE080E090E00E94CE0280E036
:101AE0000E9484018FEF9FEF9093C6018093C50100
:101AF00011E070E0E72E70E0F72EE4E0DE2EF6E075
:101B0000CF2E05E0A2E0BA2EB3E0AB2E89EB91E038
:101B10000E94B104892B09F4F5C089EB91E00E9481
:101B20006F04982E20916103233009F480C0F8F4EB
:101B3000213009F45BC0223009F460C085E59812B9
:101B4000DEC0809168038F5F809368038091680393
:101B50008430E1F610936103109268038091A00134
:101B60009091A10190936A0380936903CFCF2530B0
:101B700009F474C008F463C0263001F720916603AD
:101B800030916703982F8827822B932B90936703BC
:101B9000809366038091640390916503019790930D
:101BA000650380936403C0916903D0916A03209711
:101BB00009F492C080916203909163032C813D816E
:101BC0002817390708F05BC0E881F9810280F381AA
:101BD000E02DCE010995E0916903F0916A038681B9
:101BE000978190936A0380936903DDCF992790933F
:101BF000630380936203B0926103A0CF20916203DC
:101C000030916303982F8827822B932B9093630343
:101C100080936203809162039091630385359545BB
:101C200019F0A09261038ACF1092610387CF9927A0
:101C30009093650380936403D09261037FCF2091DA
:101C4000640330916503982F8827822B932B909300
:101C50006503809364030093610370CF9927909389
:101C600067038093660380916403909165030197F5
:101C70009093650380936403C09261035FCF8A8170
:101C80009B8120916203309163032817390720F16B
:101C9000209162033091630328173907C0F08091C7
:101CA0006203909163032C813D812817390778F0F6
:101CB00040916603509167036091620370916303E2
:101CC000E881F9810190F081E02DCE0109950E8027
:101CD000DF81C02D209799F6809162039091630374
:101CE00002969093630380936203809164039091C2
:101CF0006503892B09F0AFCF109361031FCF1092BA
:101D0000680324CFC091A001D091A101209759F080
:101D1000E881F9810480F581E02DCE0109950E80DE
:101D2000DF81C02DF3CFE114F10409F4EFCE0E945E
:101D30000000ECCE97FB072E16F4009407D077FD39
:101D400009D00E94B40E07FC05D03EF49095819511
:101D50009F4F0895709561957F4F0895EE0FFF1F77
:101D60000590F491E02D0994AA1BBB1B51E107C01B
:101D7000AA1FBB1FA617B70710F0A61BB70B881F1B
:101D8000991F5A95A9F780959095BC01CD010895AA
:041D9000F894FFCFF5
:101D9400FFFFFFFF00E10000000000000E0F101124
:101DA4001213141500000000A707A607A6070000D9
:101DB40000009707A607A60700C180810000000065
:101DC4000000004A04C5036B046004B1046F048D71
:101DD40004000000002107E006D006B10670066783
:101DE400063D06E105C306DD05DC05CC05BC058121
:101DF4000564053305CB04000000002107E006D08C
:101E040006B106700667063D06E105C306DD05DC7E
:101E1400055B074707310764053305CB0400000061
:081E2400009707A6076F0700F5
:00000001FF
