:100000000C9499020C94C1020C94C1020C94C1028C
:100010000C94C1020C94C1020C94C1020C94C10254
:100020000C94C1020C94C1020C94B6170C942518C0
:100030000C94C1020C94C1020C94C1020C94C10234
:100040000C94C1020C94C1020C94C1020C94C10224
:100050000C94C1020C94C1020C94C1020C946C1754
:100060000C94C1020C94C1020C94C1020C94C10204
:100070000C94C1020C94C1020C94C1020C94C102F4
:100080000C94C1020C94C1020C94C1020C94C102E4
:100090000C94C1020C94C1020C94C1020C94C102D4
:1000A0000C94C1020C94C1020C94C1027849000066
:1000B00020002D40303F3106325B334F3466356DC2
:1000C000367D3707387F396F4177627F6358645ECA
:1000D000433945794671487650737250536D6F5C61
:1000E0000086227E6D0000023006630004408052CC
:1000F0003F065B4F666D7D277F6F00000048005311
:100100005F777F393F79713D76061E693815373F35
:100110007367316D783E2A1D766E5B39640F000877
:10012000205F7C585E7B316F74040E753055545CD3
:100130007367506D781C2A1D766E47460670013F26
:10014000065B4F666D7D077F6F777C395E7971083E
:100150000B0002020200000904000001020200007C
:1001600005240010010524010101042402060524D0
:100170000600010705810310004009040100020A7E
:10018000000000070502024000000705830240004E
:10019000000403090412010002EF020140C016DC52
:1001A00057000101020301537061726B46756E00C6
:1001B00054656B204631382049464549000000000F
:1001C00000240027002A002D003000000000002538
:1001D0000028002B002E0031000000000023002624
:1001E0000029002C002F0004040404040304050269
:1001F00002020204030202020206060606060604C2
:10020000040202020404040802011040804010208D
:1002100040804080080204018040201002011080CC
:1002200010204040200000000200090F00000304DD
:1002300001000C00000000000000000000000000B1
:10024000000000070B070A050A040C050D070D0640
:100250000D060A060C070C060B050C050B040B0318
:100260000B030A010A000C010D030D020D020A0224
:100270000C030C020B010C010B000B78C9000000F1
:10028000002DC0002BC011200000303F00310600BF
:1002900032DB0033CF0034E60035ED0036FD0037A9
:1002A000070038FF0039EF0041F700428F0A433959
:1002B00000440F0A64CE0045F90046F10047BD0036
:1002C00048F6004909114B70144D360650F300539F
:1002D000ED0054011157362858002E5900164C389D
:1002E000004F3F00071507140514041505150615E2
:1002F000061407130712051204130513061306123A
:100300000711071005100411051106110610070F3B
:10031000070E050E040F050F060F060E0414031436
:10032000021401140115031502150412031202121E
:100330000112011303130213041003100210011021
:10034000011103110211040E030E020E010E010F22
:10035000030F020F041605160616071607170517D2
:10036000061700140013000200010000001500032E
:10037000001100100007000500040012000800171B
:1003800000160216031702170117011601000101DA
:100390000301040003000200020101020103030340
:1003A000040203020202020301040105030504041E
:1003B0000304020402050006010703070306020600
:1003C00001060207010801090309040803080208DD
:1003D00002090401050106010701070005000600E6
:1003E00004030503060307030702050206020405CA
:1003F00005050605070507040504060404070507A7
:100400000607070707060506060604090509060983
:100410000709070805080608030102010101000198
:1004200001000300020003030203010300030102B1
:10043000030202020701060105010401050007008D
:10044000060007030603050304030502070206026C
:100450000705060505050405050407040604070746
:100460000607050704070506070606060709060925
:1004700005090409050807080608070B060B050B04
:10048000040B050A070A060A070D060D050D040DE3
:10049000050C070C060C070F060F050F040F050EC1
:1004A000070E060E040403050105010402040304FB
:1004B00002050406030701070106020603060207F8
:1004C0000408030901090108020803080209040AD3
:1004D000030B010B010A020A030A020B040C030DB1
:1004E000010D010C020C030C020D040E030F010F91
:1004F000010E020E030E020F031302130113001369
:100500000014021401140311021101110011001250
:100510000212011207130613051304130414061420
:100520000514071106110511041104120612051213
:100530001A1B11241FBECFEFDAE0DEBFCDBF13E0E0
:10054000A0E0B1E0E6E1FFE402C005900D92A43224
:10055000B107D9F729E0A4E2B3E001C01D92AC30A5
:10056000B207E1F712E0C9E9D2E004C02197FE0129
:100570000E94B225C839D107C9F70E94E0200C9427
:1005800089270C940000893088F590E0FC01EE0F7B
:10059000FF1FE253F84F33814091CE075091CF07B0
:1005A000880F991FFC01E053F84F808190E0E32F02
:1005B000E695E695E695DC01AA0FBB1F8A0F9B1F07
:1005C000840F951FE80FF92FF11D2685377081E004
:1005D00090E0A0E0B0E004C0880F991FAA1FBB1FE5
:1005E0003A95D2F7662319F0822B86870895809575
:1005F0008223FBCF893088F590E0FC01EE0FFF1FCE
:10060000EC56F84F33814091940750919507880F2D
:10061000991FFC01EA56F84F808190E0E32FE695A0
:10062000E695E695DC01AA0FBB1F8A0F9B1F840F7E
:10063000951FE80FF92FF11D2685377081E090E0B6
:10064000A0E0B0E004C0880F991FAA1FBB1F3A9515
:10065000D2F7662319F0822B86870895809582232E
:10066000FBCF1092D00561E08091CD05803309F475
:1006700060E086E00C94FA02CF93C1E0FC01808137
:10068000813309F0C0E06C2F84E00E94FA026C2FE5
:1006900085E0CF910C94FA0261E0FC018081813306
:1006A00009F060E087E00C94FA0261E0809709F4B9
:1006B00060E088E00C94FA02CF92DF92EF92FF9212
:1006C000CF93DF932091CE073091CF0796E1899F9A
:1006D000F0011124E253F84F50E0C12CD12C7601E7
:1006E000C39445898489682F70E0C42FC695C69548
:1006F000C695CB01880F991F860F971F820F931FF6
:10070000C80FD92FD11D6E854770D701C60104C00F
:10071000880F991FAA1FBB1F4A95D2F78095862381
:100720008E875F5F32965B30E1F6DF91CF91FF906D
:10073000EF90DF90CF9008956F927F928F929F926B
:10074000AF92BF92CF92DF92EF92FF920F931F93DF
:10075000CF93DF9300D000D0CDB7DEB730E020E0FC
:1007600090E0F901E558FD4FE4910E2E000CFF0BCF
:100770008E179F0709F065C0F901E458FD4F4491B9
:1007800023583D4FF9012491A0919407B09195070A
:10079000FCE16F9FB00111246D5B7D4F90E080E024
:1007A00030E050E0812C912C54018394FB01D490D3
:1007B0003196F491883008F04DC08A01082E02C0AD
:1007C000159507950A94E2F7E02FE170E9830D2D66
:1007D00010E0EF2FE695E695E695F7707501640158
:1007E00004C0CC0CDD1CEE1CFF1CFA95D2F73801BE
:1007F000660C771C600E711E6A0E7B1E6E0E711CDD
:10080000F30176847A820981013091F5C728C68682
:1008100001966E5F7F4F8E30910541F60F900F90DD
:100820000F900F90DF91CF911F910F91FF90EF905C
:10083000DF90CF90BF90AF909F908F907F906F9000
:1008400008952D5F3F4F2936310509F08ACF20E00A
:1008500040E09ACF7C0108E0E01AF108390102C0BB
:1008600075946794EA94E2F7062D01700983AFCF7F
:10087000C0941A81C122CBCFCF93DF93C0E0D82F91
:10088000D19580917807C817A0F4EC2FF0E0EA58D2
:10089000F84FD4838091760790917707DC01ED9132
:1008A000FC910480F581E02D4C2F6D2F0995CF5FD1
:1008B000E8CFDF91CF910895E4E3F8E040855185DA
:1008C0002681378124273527A90102C056954795EF
:1008D0008A95E2F7CA0181700895CF92DF92EF9274
:1008E000FF920F931F93CF93DF93D901E8016A0121
:1008F000F9014217530714F06901FA01882309F43A
:1009000040C0CB016C157D050CF4C6019F018E170C
:100910009F070CF49C01A417B50734F4CF01821B88
:10092000930B9C012C0D3D1D0D2C000CEE08FF08B7
:10093000032E000C440B550B2C193D094E095F0981
:10094000AEEFBFEF0E944E259F01FF0F440B550BEA
:100950002C193D094E095F090E942F25DA01C901B2
:100960008F5F9F47A109B1098883998382E090E056
:10097000DF91CF911F910F91FF90EF90DF90CF907B
:10098000089590E080E0F4CFFC0180916503882316
:1009900011F13FB7F89482E08093E9002091F200D2
:1009A000822F90E01816190614F481E090E0882355
:1009B00039F0289844E6409364034091F100408365
:1009C000222339F02091F200211103C02BE620935D
:1009D000E8003FBF08958FEF9FEF089581508F305B
:1009E00008F047C0E82FF0E0E850FB4F0C94B22528
:1009F0001505190507050D051105390539053905D1
:100A00001C05220526052A05300539053405809187
:100A100080008F77809380000895809180008F7D83
:100A2000F9CF80918000877FF5CF84B58F7784BD23
:100A3000089584B58F7DFBCF809190008F77809350
:100A400090000895809190008F7DF9CF8091900063
:100A5000877FF5CF8091C0008F778093C000089585
:100A60008091C0008F7DF9CF8091C200877F8093F5
:100A7000C2000895CF93DF93282F30E0F901EB5D9A
:100A8000FD4F8491F901EA5FFD4FD491F901E951DD
:100A9000FE4FC491CC23A1F081110E94EE04EC2FF3
:100AA000F0E0EE0FFF1FE752FE4FA591B491EC91DD
:100AB000ED2381E090E009F480E0DF91CF9108958B
:100AC00080E090E0FACF1F93CF93DF93282F30E0A0
:100AD000F901EB5DFD4F8491F901EA5FFD4FD4917F
:100AE000F901E951FE4FC491CC23A9F0162F8111D1
:100AF0000E94EE04EC2FF0E0EE0FFF1FE553FE4FD7
:100B0000A591B4918FB7F894EC91111108C0D095CC
:100B1000DE23DC938FBFDF91CF911F910895DE2BF1
:100B2000F8CFCF93DF9390E0FC01EA5FFD4F249173
:100B300089519E4FFC0184918823C9F090E0880F71
:100B4000991FFC01E354FE4FA591B491FC01E553BC
:100B5000FE4FC591D49161110DC09FB7F8948C914F
:100B6000209582238C938881282328839FBFDF913F
:100B7000CF910895623051F49FB7F8943C91822F41
:100B8000809583238C93E8812E2BEFCF8FB7F89439
:100B9000EC912E2B2C938FBFEACF1F93CF93DF9333
:100BA000182FEB0161E00E949105209739F460E075
:100BB000812FDF91CF911F910C946305CF3FD10519
:100BC00011F461E0F5CFE12FF0E0EB5DFD4FE49132
:100BD000E150EF3008F07FC0F0E0EF50FA4F0C9496
:100BE000B225000608060D06170621066B066B06E1
:100BF0006B062B0635063F06490656066B065E0653
:100C000084B5806884BDC7BDDF91CF911F910895E1
:100C100084B5806284BDC8BDF7CF809180008068B4
:100C200080938000D0938900C0938800EDCF80919D
:100C30008000806280938000D0938B00C0938A00F4
:100C4000E3CF80918000886080938000D0938D00F6
:100C5000C0938C00D9CF80919000806880939000E1
:100C6000D0939900C0939800CFCF8091900080627C
:100C700080939000D0939B00C0939A00C5CF809141
:100C80009000886080939000D0939D00C0939C005A
:100C9000BBCF8091C00080688093C0008091C0006D
:100CA0008F7B8093C000C093CF00AECF8091C000F7
:100CB00080628093C000C093D000A6CF8091C20014
:100CC00088608093C2008091C2008B7F8093C200B5
:100CD000C093D20099CFC038D1050CF072CF67CF46
:100CE000CF93DF9361E071E00E948A25EB0190E0F1
:100CF00080E00E94EE256093570370935803809321
:100D0000590390935A03BE0189E0DF91CF910C946F
:100D1000CD0561E071E00E948A2583E10C94CD0548
:100D20003FB7F8948091600390916103A0916203B2
:100D3000B091630326B5A89B05C02F3F19F001961B
:100D4000A11DB11D3FBFBA2FA92F982F8827BC0125
:100D5000CD01620F711D811D911D42E0660F771F4D
:100D6000881F991F4A95D1F708958F929F92AF924D
:100D7000BF92CF92DF92EF92FF924B015C010E94F3
:100D800090066B017C010E9490066C197D098E090A
:100D90009F09683E734081059105A8F321E0821AFE
:100DA0009108A108B10888EEC80E83E0D81EE11CA6
:100DB000F11C81149104A104B10429F7FF90EF9074
:100DC000DF90CF90BF90AF909F908F90089540910B
:100DD0004F035091500320914D0330914E03421721
:100DE0005307B4F49091E8009570E1F39091E80016
:100DF00092FD19C08093F10080914F0390915003B0
:100E000001968F739927892B19F48EEF8093E80050
:100E100080914F03909150030196909350038093DB
:100E20004F0381E0089580E00895EF92FF920F93C1
:100E30001F93CF93DF93F82E192FE62E042F81E016
:100E4000860F880F0E94E70683E00E94E706CF2DF9
:100E5000D12FEC0EFD2EF11CCE15DF05B9F007FFEA
:100E600013C0FE0184910E94E706182F80E00E94C3
:100E7000E706812321968111EFCFDF91CF911F915A
:100E80000F91FF90EF9008958881EDCF81E0F5CF2D
:100E9000DF92EF92FF920F931F93CF93DF93D82EA1
:100EA0008A01EB017B01E40EF51ECE15DF0559F03A
:100EB000D7FE12C0FE0184910E94E706219681119F
:100EC000F4CF0FEF1FEFC801DF91CF911F910F916A
:100ED000FF90EF90DF9008958881EECF2FB7F894C0
:100EE00087708093E9009091E800892F807295FFC8
:100EF00004C09091F20080E4891B2FBF08957F9277
:100F00008F929F92AF92BF92CF92DF92EF92FF9219
:100F10000F931F93CF93DF93C82E8B017A0180919B
:100F20006503811110C08FEF9FEFDF91CF911F916B
:100F30000F91FF90EF90DF90CF90BF90AF909F9078
:100F40008F907F9008958091530380FF05C080911A
:100F5000E00082608093E000CE2DDF2DD12C8AEF5F
:100F6000B82E8C2D8770982E8C2D8072882E8C2D0B
:100F70008074782E9AE3A92E209719F4DD2009F4C5
:100F800052C08C2D0E946E0781110AC0BA94BB20FA
:100F900051F261E070E080E090E00E94B506ECCF95
:100FA0008C171D0611F00CF08C2F9FB7F8949092BF
:100FB000E9002091E80025FD02C09FBFDDCF282F6A
:100FC00030E0C21BD30B882029F08150A0F0109292
:100FD000F100FBCFF801C7FC0AC0815050F04191ED
:100FE0004093F100FACF44914093F1003196815043
:100FF000D0F7020F131FDD2021F0A092E800D12CC2
:10100000DCCF8091E80085FD07C0A092E800DD24D8
:10101000D394209791F2F3CF209779F6772069F255
:10102000A092E800CACF5D9884E680935203C7017E
:101030007CCF615030F02091F100FC0120830196BB
:10104000F8CF289884E6809364030895809145033F
:1010500081110DC082E08093410384E080934203BC
:10106000109244031092430381E08093450381E48E
:1010700093E008950F931F93CF93DF931F92CDB703
:10108000DEB782E0898342E450E06FE471E080E8FB
:101090000E9448070E942608DC0112960D911C91BF
:1010A0000115110589F0D801ED91FC910280F381C1
:1010B000E02DBE016F5F7F4FC801099597FD04C009
:1010C000F80100851185ECCF89810F90DF91CF91D8
:1010D0001F910F910895CF93DF93EC01809112013E
:1010E000882331F083E00E947F071816190634F038
:1010F00081E090E09B838A8380E090E0DF91CF9154
:101100000895CF93DF931F92CDB7DEB76983DC01DB
:10111000ED91FC910280F381E02D41E050E0BE01B1
:101120006F5F7F4F09950F90DF91CF91089583E016
:101130008093E9008091F200882319F08AE380937C
:10114000E800089583E00E946E0790E00895CF9331
:10115000DF931F92CDB7DEB7FC018485958597FD9F
:1011600008C02FEF3FEF358724870F90DF91CF9195
:101170000895CE0101960E94C404019719F4898153
:1011800090E0F3CF8FEF9FEFF0CF0F931F93CF93AC
:10119000DF931F92CDB7DEB78C01FC018485958566
:1011A00097FF0BC0CE0101960E94C404019771F411
:1011B000898190E0F80195878487F8018485958579
:1011C0000F90DF91CF911F910F9108958FEF9FEFB7
:1011D000F1CFFC018485958597FD0BC09FB7F894EE
:1011E00082E08093E9008091F2009FBF90E0019639
:1011F00008959FB7F89482E08093E9008091F2000F
:101200009FBF90E00895CF92DF92EF92FF921F93DD
:10121000CF93DF93EC0160E08D810E94910561E046
:101220008D810E94630598E0C92ED12C10E0E12E3B
:10123000F12CF594E7941E2D60E08E810E946305E9
:10124000E881F981028CF38DE02DCE0109958D8125
:101250000E943A05892B09F0106861E08E810E9496
:101260006305E881F981028CF38DE02DCE010995AB
:1012700081E0C81AD108D9F661E08D810E949105FC
:1012800060E08D810E946305812FDF91CF911F91D6
:10129000FF90EF90DF90CF9008950F931F93CF931F
:1012A000DF93EC01162F042FE881F98102A0F3A14E
:1012B000E02D64E40995E881F981048CF58DE02D39
:1012C000CE010995612F606CE881F98100A0F1A140
:1012D000E02DCE010995E881F98100A0F1A1E02D72
:1012E000602FCE010995E881F981068CF78DE02DFC
:1012F000CE01DF91CF911F910F9109941F93CF934E
:10130000DF93EC01162FE881F981048CF58DE02D37
:101310000995E881F98100A0F1A1E02D612FCE01AE
:101320000995E881F981068CF78DE02DCE01DF91DA
:10133000CF911F910994FF920F931F93CF93DF9347
:10134000EC01F62E08E010E060E08E810E9463055B
:10135000E881F981028CF38DE02DCE0109956F2D86
:1013600061708D810E946305E881F981028CF38DA3
:10137000E02DCE010995F69461E08E810E9463050F
:10138000E881F981028CF38DE02DCE0109950150A1
:101390001109D1F6E881F981028CF38DE02DCE019F
:1013A000DF91CF911F910F91FF900994CF93DF931D
:1013B000EC0161E08F810E946305E881F981028C74
:1013C000F38DE02DCE01DF91CF910994CF93DF9380
:1013D000EC0160E08F810E946305E881F981028C55
:1013E000F38DE02DCE01DF91CF910994089560E057
:1013F00070E0CB010895FC01848108957F928F9263
:101400009F92AF92BF92CF92DF92EF92FF920F9393
:101410001F93CF93DF937C016A01722E8B01D0E082
:10142000C0E0A22EB12C88248394912CD70114966D
:101430008C9190E09C012A193B09C217D3070CF547
:10144000F80141918F014423E1F08C1B9D0B019722
:10145000940102C0220F331F8A95E2F7C9018C2143
:101460009D2121E0892B09F420E06C2F670DD70125
:10147000ED91FC910688F789E02DC7010995219629
:10148000D5CFDF91CF911F910F91FF90EF90DF901B
:10149000CF90BF90AF909F908F907F900895CF9204
:1014A000DF92EF92FF920F931F93CF93DF937C0114
:1014B0006B01042F10E0D0E0C0E0C017D10781F02D
:1014C000F601EC0FFD1F4491D701ED91FC910288CC
:1014D000F389E02D20E06C2FC70109952196EDCF0F
:1014E000DF91CF911F910F91FF90EF90DF90CF9000
:1014F0000895242FDC01ED91FC910288F389E02D01
:1015000040E009949F92AF92BF92CF92DF92EF9208
:10151000FF920F931F93CF93DF937C01C1E0C42E02
:10152000D12C8AE0A82EB12CD70114964C914C17DF
:10153000F0F096010C2E02C0359527950A94E2F73B
:1015400021704C1BCB01B5010E949E25962ED72FF2
:10155000D701ED91FC910084F185E02D0FE311E0BE
:10156000682FC7010995692D7D2FCF5FDDCFDF91F2
:10157000CF911F910F91FF90EF90DF90CF90BF9090
:10158000AF909F9008950F931F93E62F642FEF70F5
:10159000E00FF12FF11D4491DC01ED91FC910288E7
:1015A000F389E02D1F910F910994E42F440FFF0B55
:1015B000E054FF4F4491DC01ED91FC910288F389E6
:1015C000E02D0994362FDC01ED91FC910480F5812A
:1015D000E02D60E0211160E8642B432F0994089509
:1015E000242FDC0112963C911297431740F4ED91A1
:1015F000FC9104A0F5A1E02D462F622F09940895D7
:101600000F931F93CF93DF93EC01E881F98102A040
:10161000F3A1E02D60E40995E881F981048CF58D52
:10162000E02DCE010995E881F98100A0F1A1E02D1E
:1016300060ECCE01099510E000E0E881F9818A8133
:1016400080171106A9F0A4F000A0F1A1E02D60E040
:10165000CE0109958B81893040F0E881F98100A0A5
:10166000F1A1E02D60E0CE0109950F5F1F4FE5CF9E
:10167000068CF78DE02DCE01DF91CF911F910F9158
:101680000994DC01ED91FC9102A0F3A1E02D611120
:1016900006C060E8483008F047E0642B099468E829
:1016A000F9CF1F93CF93DF93EC01E881F981048C8C
:1016B000F58DE02D0995E881F98100A0F1A1E02DDB
:1016C00062E4CE010995E881F98106A0F7A1E02D39
:1016D000CE010995182FE881F981068CF78DE02D50
:1016E000CE01099560E070E0CB011F3F89F08FEFDC
:1016F00090E0811B91098F70992761E070E002C032
:10170000660F771F8A95E2F7072E000C880B990B5E
:10171000DF91CF911F910895CF93DF93EC010E9449
:101720009B0960E08E810E94630560E08D810E94CC
:101730009105E881F981028CF38DE02DCE010995A8
:1017400061E08E810E946305E881F981028CF38D4E
:10175000E02DCE0109958D810E943A05811104C0CA
:1017600060E08D810E94630561E08D81DF91CF9102
:101770000C949105CF93DF93EC0160E08F810E9480
:10178000630560E08E810E946305E881F981028C27
:10179000F38DE02DCE01099561E08E810E946305F5
:1017A00061E08F810E946305E881F981028CF38DED
:1017B000E02DCE01DF91CF9109948FE090E0019769
:1017C000F1F708958F929F92AF92BF92CF92DF92DE
:1017D000EF92FF920F931F93CF93DF93B0E0A0E0BF
:1017E00070E0FD01E455FF4FE4910E2E000CFF0B5D
:1017F0006E177F0709F050C0A355BF4FFD01A4919C
:10180000FEE04F9F200D311D112410E000E0B0E0FC
:10181000C12CD12C7601C394F90144913196E49105
:10182000EC0168817981C42FD0E0FE2FF695F69502
:10183000F695E770AD01002E02C0559547950A94C4
:10184000E2F740FF30C0AE01440F551FC40FD51F53
:10185000C60FD71FCF0FD11D4E854601570104C0BB
:10186000880C991CAA1CBB1CEA95D2F748294E8704
:101870000F5F1F4F2E5F3F4F0730110569F6DF9155
:10188000CF911F910F91FF90EF90DF90CF90BF907D
:10189000AF909F908F9008951296A433B10509F0F0
:1018A000A0CFA0E0ADCFAE01440F551FC40FD51F90
:1018B000C60FD71FCF0FD11DFE85B701A60104C0EB
:1018C000440F551F661F771FEA95D2F740954F23A7
:1018D000CECF462F643138F428E134E0682F8EEC07
:1018E00097E00C94E20B0895CF93DF93EC0164E052
:1018F00088810E94690C65E089810E94690C66E01C
:101900008A81DF91CF910C94690CCF93DF93EC0126
:1019100065E088810E94690C66E08981DF91CF9142
:101920000C94690CCF93DF93EC0167E088810E94EF
:10193000690C68E089810E94690C69E08A81DF9105
:10194000CF910C94690C0C94920C462F24EE32E04B
:10195000682F84E997E00C94E20B61E1FC0180813F
:101960000C94A50CCF93DF93EC0162E188810E9477
:10197000A50C63E18981DF91CF910C94A50CCF93E5
:10198000DF93EC0164E188810E94A50C65E1898107
:10199000DF91CF910C94A50CFF920F931F93CF93DF
:1019A000DF93EC01062FF42E10E060E08A810E94A4
:1019B000630561E007FF60E08C810E94630561E0E0
:1019C0008A810E946305000F1F5FF112EECFDF9145
:1019D000CF911F910F91FF900895BF92CF92DF9208
:1019E000EF92FF920F931F93CF93DF93EC017C0153
:1019F000C12CBC2C10E000E0F70130E020E0D12C3D
:101A0000DD0C9685892F90E0002E02C09595879574
:101A10000A94E2F78170D80E2F5F3F4F339628303B
:101A2000310571F760E088810E94630543E060EA58
:101A3000CE010E94CC0C46E06B2DCE010E94CC0C56
:101A400048E06D2DCE010E94CC0C61E088810E949F
:101A5000630561E070E080E090E00E94B5060F5FF2
:101A60001F4F88E0B80E0830110531F68FEFE81AE5
:101A7000F80A80E4C80E80ECC812BBCFDF91CF918A
:101A80001F910F91FF90EF90DF90CF90BF9008953E
:101A90008F929F92AF92BF92CF92DF92EF92FF927E
:101AA0001F93CF93DF93EC0130E020E0C12CD12CC9
:101AB0007601C39490E0D901AA0FBB1FA20FB31FF8
:101AC00088E0890FE881F981492F4695469546952A
:101AD000EA0FFB1FE40FF11D1685492F47704601E1
:101AE000570104C0880C991CAA1CBB1C4A95D2F74C
:101AF000A4014095412346879F5F8913E3CF883136
:101B0000F9F62F5F3F4F28303105A1F68881998182
:101B1000DF91CF911F91FF90EF90DF90CF90BF901A
:101B2000AF909F908F900C94ED0C1F93CF93DF9309
:101B3000EC01162F60E088810E94630544E060E8B4
:101B4000CE010E94CC0C48E0612FCE010E94CC0C4B
:101B500061E088810E94630561E070E080E090E0D0
:101B6000DF91CF911F910C94B506CF93DF93EC01D9
:101B700061E088810E94910561E08A810E9491055F
:101B800061E08C810E94910564E670E080E090E065
:101B90000E94B50662E0CE010E94950D60E3CE0181
:101BA0000E94950D62E5CE010E94950D66E0CE0182
:101BB000DF91CF910C94950DDC01FB0112962C91D5
:101BC0001297848195812817190641F491818081AB
:101BD000813A31F49D7F81E0913009F080E00895F1
:101BE0008132E1F79B3029F482811F968C9381E04A
:101BF00008959A3099F7828150968C93F8CFDC0142
:101C0000FB0188E4808389E4818384E482831D96D8
:101C10009C911D979F709F5B93831D968D919C91C6
:101C200024E0969587952A95E1F78F708F5B8483E2
:101C300085E00895EF92FF920F931F93CF93DF9368
:101C4000FB012081213889F52381223271F5DC01E5
:101C500012964C91248135814217130631F58C017F
:101C6000FC01C385D485F12CE12C209791F04C81A7
:101C70005D816A817B818E81811180E80E944807A5
:101C80008F3F980759F0E80EF91E0990D881C02DB2
:101C9000ECCF81E0D8011F968C93C701DF91CF91E3
:101CA0001F910F91FF90EF90089590E080E0F6CFA4
:101CB000CF93DF93CDB7DEB769970FB6F894DEBF49
:101CC0000FBECDBFFC01DB018C918F5F8C939E0119
:101CD0002D5F3F4F8DE0D9011D928A95E9F729E0EC
:101CE000298384E08A8391E09D8383E08E832A8721
:101CF00021E22B879C879D879F8722E2288B27E004
:101D00002B8B25E02C8B8E8B20E430E0388F2F8BB3
:101D1000998F82818B8395858685998B8A8B838128
:101D200080688D8B49E150E0BE016F5F7F4F80E09E
:101D30000E94480769960FB6F894DEBF0FBECDBF6C
:101D4000DF91CF910895CF93DF9380913903811173
:101D500067C081E080932C0380932D0322E333E05E
:101D600030932F0320932E031092310310923003EF
:101D700021EB31E0309329032093280310923403A0
:101D80001092330310923603109235038093370379
:101D90008093380381EC809332030E942608FC0173
:101DA000818190912C03482F490F5527551F4830AA
:101DB00051059CF5A281B381109709F528E233E023
:101DC00033832283208120932A0380932B038091E5
:101DD0002D03820F808320912E03A22FB0912F0319
:101DE0008A2F821B8917C8F481813D91C82FD0E0CA
:101DF000C050DF4F38838F5F8183F2CFD9011896AF
:101E00002D913C91199721153105C1F728E233E056
:101E100019963C932E931897D5CF81E08093390380
:101E200088E293E0DF91CF910895DC0151962C91E7
:101E30005197222351F05296ED91FC915397309790
:101E400021F051961C920C9609940895CF93DF933C
:101E5000DC0112968D919C911397FB01E81BF90B05
:101E6000ED01CE0FDF1F8885082E000C990B481757
:101E7000190629F0488781E050968C935097319647
:101E8000E330F10568F4EA0FFB1F8085082E000C93
:101E9000990B5817190621F0508781E050968C93C2
:101EA000DF91CF910895DC011D962C911D9722237F
:101EB00051F01E96ED91FC911F97309721F01D96E1
:101EC0001C920A9609940895FC018485882339F0B0
:101ED000F89480858287148681E0858778940895B8
:101EE000FC0182819381681B790BDF01A60FB71F6C
:101EF00018968C911897082E000C990B4817190604
:101F000021F018964C9381E084876F3F7F4F51F406
:101F10008085082E000C990B5817190619F0508768
:101F200081E084870895DC0157962C9157972223EE
:101F300051F05896ED91FC915997309721F05796B2
:101F40001C920F9609940895CF93DF93DC011296AB
:101F50008D919C911397FB01E81BF90BED01CE0FBE
:101F6000DF1F8885082E000C990B4817190629F0E9
:101F7000488781E056968C9356973196E630F10566
:101F800068F4EA0FFB1F8085082E000C990B581788
:101F9000190621F0508781E056968C93DF91CF91FE
:101FA0000895DC0155962C915597222351F05696B1
:101FB000ED91FC915797309721F055961C920E9613
:101FC00009940895CF93DF93DC0112968D919C9133
:101FD0001397FB01E81BF90BED01CE0FDF1F88857E
:101FE000082E000C990B4817190629F0488781E044
:101FF00054968C9354973196E530F10568F4EA0FC6
:10200000FB1F8085082E000C990B5817190621F02C
:10201000508781E054968C93DF91CF910895DC0135
:102020001F962C911F97222351F05096ED91FC9111
:102030005197309721F01F961C920B9609940895A2
:10204000CF93DF93DC0112968D919C911397FB0146
:10205000E81BF90BED01CE0FDF1F8885082E000C61
:10206000990B4817190629F0488781E01E968C9332
:102070001E973196E230F10568F4EA0FFB1F808568
:10208000082E000C990B5817190621F0508781E093
:102090001E968C93DF91CF910895892B41F461E0D6
:1020A00081E00E94630560E080E00C94630560E0DD
:1020B00081E00E94630561E0F7CFFC01828580FF2B
:1020C00034C0F8942085318582858E7F828778940C
:1020D000838594852823392345855685A785809156
:1020E000760790917707FA01FF27232B91F021E0E3
:1020F00030E001C0220FAA95EAF7EA58F84F648150
:10210000622B6483DC01ED91FC910480F581E02D6C
:10211000099461E070E001C0660FAA95EAF7609546
:10212000EA58F84F24816223ECCF0895CF92DF92D2
:10213000EF92FF920F931F93CF93DF931092D005EE
:102140002091CD05213309F450C022E08335920758
:1021500009F44BC0EC018B818B3221F010E000E0E0
:102160008D3269F460E00E949C0363E089810E94E3
:10217000A50C62E088810E94A50C01E010E0888136
:102180008F7E843411F40EEF1FEF780182E0E80EA9
:10219000F11CEC0EFD1E60E0F70180810E949C03A3
:1021A0006E01C00ED11E63E0F60180810E94A50C75
:1021B000C01BD10B219662E088810E94A50C60E0D3
:1021C000F70180810E949C0363E0F60180810E94F8
:1021D000A50C62E08881DF91CF911F910F91FF9054
:1021E000EF90DF90CF900C94A50CDF91CF911F91D1
:1021F0000F91FF90EF90DF90CF900895FB019081B9
:1022000061E0913309F060E00C94C302CF93DF9357
:10221000EC01BC0185E090E00E94FE10BE0186E06A
:1022200090E00E94FE10BE0187E090E00E94FE1048
:10223000BE0188E090E0DF91CF910C94FE10CF9327
:10224000DF93AC014A5F5F4FFC0130E020E0A191D9
:10225000A03211F42F5F3F4FE417F507C1F7621B5F
:10226000730B9B0177FF02C02F5F3F4F359527957A
:10227000FC01E60FF71FDC01AD01481B590B4217AB
:1022800053073CF44D915291ED01219758834083BF
:10229000F3CFDF91CF910895CF93DF93EC0163E00B
:1022A00070E00E941F1160E089810E94690C61E06A
:1022B00088810E94690C61E08A81813309F060E0C5
:1022C00080E0DF91CF910C94C302CF93DF93EC01B8
:1022D00063E070E00E941F1162E089810E94690C36
:1022E00063E088810E94690C61E08A81813309F092
:1022F00060E081E0DF91CF910C94C302CF93DF9334
:10230000EC0163E070E00E941F116AE08A810E9484
:10231000690C6BE089810E94690C6CE08881DF9117
:10232000CF910C94690CCF93DF93EC0163E070E0E4
:102330000E941F116DE08A810E94690C6EE0898104
:102340000E94690C6FE08881DF91CF910C94690C39
:10235000CF93DF93EC0163E070E00E941F1160E116
:1023600089810E94690C61E188810E94690C61E0A9
:102370008A81813309F060E082E0DF91CF910C9493
:10238000C302CF93DF93EC0163E070E00E941F1162
:1023900062E189810E94690C63E188810E94690C75
:1023A00061E08A81813309F060E083E0DF91CF91C1
:1023B0000C94C302CF93DF93EC0166E070E00E94BF
:1023C0001F1160E088810E949C0363E08A810E9463
:1023D000A50C62E08B810E94A50C61E08C810E94BB
:1023E000A50C60E08D810E94A50C61E0898180339D
:1023F00009F060E080E0DF91CF910C94FA02CF9376
:10240000DF93EC0166E070E00E941F1161E08881BB
:102410000E949C0367E08A810E94A50C66E08B8184
:102420000E94A50C65E08C810E94A50C64E08D8162
:102430000E94A50C61E08981803309F060E081E0B1
:10244000DF91CF910C94FA021F93CF93DF93EC01AD
:1024500065E070E00E941F116AE08A810E94A50C6D
:1024600069E08B810E94A50C68E08C810E94A50C1C
:1024700011E08881803309F010E061E089818033C8
:1024800009F060E082E00E94FA02612F83E0DF91B0
:10249000CF911F910C94FA02CF93DF93EC0162E08D
:1024A00070E00E941F116CE088810E94A50C6BE017
:1024B0008981DF91CF910C94A50CCF93DF93EC0130
:1024C00062E070E00E941F116EE088810E94A50CFE
:1024D0006DE08981DF91CF910C94A50CCF93DF93B0
:1024E000EC0162E070E00E941F1160E188810E94AF
:1024F000A50C6FE08981DF91CF910C94A50CCF934F
:10250000DF931092D0052091CD052133C9F1EC0164
:102510008A81863491F461E088E40E949C0367E03C
:1025200086E40E94A50C66E081E30E94A50C65E0AC
:1025300084E6DF91CF910C94A50C66E070E0CE01AB
:102540000E941F1161E088810E949C0367E08A81DC
:102550000E94A50C66E08B810E94A50C65E08C8131
:102560000E94A50C64E08D810E94A50C61E0898128
:10257000803309F060E081E0DF91CF910C94FA02A2
:10258000DF91CF910895DC011A968C911A9780FF04
:1025900021C01E96ED91FC911F973097D9F0F894C9
:1025A00018968D919C9119971A962C911A972E7FB7
:1025B0001A962C931A9778941B962D913C911C9700
:1025C000822393231D962C9102C0969587952A9578
:1025D000E2F709940895FC018285811105C05187B5
:1025E000408785E0828705C080859185841795079F
:1025F000B1F7089508950895CF93DF93EC0188898A
:10260000882371F0F894DE011C96FE01389683E071
:1026100001900D928A95E1F7188A81E0898B789470
:10262000DF91CF910895CF93DF93EC018E898823BA
:1026300071F0F894DE011F96FE01389686E0019055
:102640000D928A95E1F71E8A81E08F8B7894DF9155
:10265000CF910895CF93DF93EC018C89882371F09B
:10266000F894DE011E96FE01389685E001900D92E9
:102670008A95E1F71C8A81E08D8B7894DF91CF9168
:102680000895FC018685882349F0F894808591851A
:1026900094878387168681E0878778940895FC0164
:1026A00001900020E9F73197AF01481B590BBC019D
:1026B00086E693E00C946B088F929F92AF92BF9244
:1026C0000F931F93CF93DF93CDB7DEB7A1970FB6CC
:1026D000F894DEBF0FBECDBF19A2423008F44AE025
:1026E0008E010F5D1F4F842E912CB12CA12CA501C2
:1026F00094010E945925E62FB901CA01EA30F4F489
:10270000E05DD801EE938D01232B242B252B79F747
:1027100090E080E0109719F0CD010E944F13A19630
:102720000FB6F894DEBF0FBECDBFDF91CF911F91E2
:102730000F91BF90AF909F908F900895E95CE1CF8B
:10274000CF93DF93EC0181E492E00E944F1381E587
:1027500092E00E944F1364EF71E080E090E00E94ED
:10276000B50661E0CD2B09F460E084E0DF91CF9104
:102770000C94C302CF93DF93EB010E944F1360E2EE
:1027800086E693E00E948108CE010E944F136AE022
:1027900086E693E00E94810881E0DF91CF91089561
:1027A000893039F464E572E08BE592E00E94BA1357
:1027B0000895883029F464E572E082E692E0F6CF6D
:1027C0008A3031F464E572E088E692E00C94BA1342
:1027D0008B3029F464E572E08EE692E0F7CF8C301E
:1027E00029F464E572E084E792E0F0CF8D3029F4BB
:1027F00064E572E08AE792E0E9CF089540913C08F1
:1028000050913D08062E02C0569547950A94E2F76E
:10281000742F717020913A0830913B0802C03695B0
:1028200027956A95E2F72170721741F06AE872E025
:1028300040FF02C068E872E00C94BA1308950F9349
:102840001F93CF93DF93EC01062F142F862F660F73
:10285000990B0E945C04212F012E000C330B811177
:1028600005C0C9010E945C04882311F180913C08D5
:1028700090913D089C0102C0369527950A95E2F794
:102880002170332702C0969587951A95E2F76CE878
:1028900072E080FF06C068E872E0232B11F06AE85E
:1028A00072E0CE01DF91CF911F910F910C94BA137A
:1028B000DF91CF911F910F910895CF93DF93C82F90
:1028C000D62F8EE892E00E944F136D2F70E090E0BB
:1028D00080E04AE00E945C138EE892E00E944F1371
:1028E0006C2F70E090E080E04AE00E945C1381E58C
:1028F00092E00E944F138C2F0E945C032AE0D43692
:1029000060F42D2F30E0AAE0B0E00E947B2524E6A1
:1029100030E040E050E00E942F258BE0C89FE001AE
:1029200011242C0F3D2F311DF901EE0FFF1FE25333
:10293000F84F85894091CE075091CF07220F331F62
:10294000F901EE51F84F208130E0E82FE695E69549
:10295000E695B901660F771F260F371F240F351F25
:10296000E20FF32FF11D2685382F377081E090E0BC
:10297000A0E0B0E004C0880F991FAA1FBB1F3A95C2
:10298000D2F7822B8687DF91CF910895FC01808159
:10299000803331F480E00E945C0381E00C945C039E
:1029A0006091240380E00E945D146091260381E021
:1029B0000C945D14CF93DF93109200062091FD05D7
:1029C0002133E1F49C01A4E6B0E00E947B252FEFC7
:1029D0003FEF40E050E00E942F25C22FD32F80917F
:1029E000260390912703C817D90741F0622F81E091
:1029F0000E945D14D0932703C0932603DF91CF91EB
:102A00000895CF93DF93109200062091FD052133A6
:102A1000E1F49C01A4E6B0E00E947B252FEF3FEF9C
:102A200040E050E00E942F25C22FD32F8091240335
:102A300090912503C817D90741F0622F80E00E94CA
:102A40005D14D0932503C0932403DF91CF910895A3
:102A50008F929F92AF92BF92CF92DF92EF92FF92AE
:102A60000F931F93CF93DF93CDB7DEB7ADB6BEB64E
:102A700080914A072DB73EB7281B31090FB6F8944D
:102A80003EBF0FBE2DBF8DB79EB701966C01E09083
:102A90001907F12C8091150790911607D601FC01BA
:102AA0009F01281B390B2E153F051CF421912D93F6
:102AB000F7CF80911A07882359F1809111079091DF
:102AC000120728E097FD09C068E671E00E949E2584
:102AD0006DE270E00E949E25262F80911307909151
:102AE000140768E097FD08C068E671E00E949E2523
:102AF0006DE270E00E949E25F601EE0DFF1D90E153
:102B0000699FB0011124262B2083F70131967F01A4
:102B100086010E0D1F1D20911F0730912007409147
:102B20001D0750911E076091FB067091FC06809175
:102B30001B0781700E946D04E80EF91E86010E0DC0
:102B40001F1D2091230730912407409121075091A8
:102B500022076091FD067091FE0680911B07869505
:102B600081700E946D04E80EF91E86010E0D1F1D76
:102B7000209127073091280740912507509126077B
:102B80006091FF067091000780911B0782FB8827E8
:102B900080F90E946D04E80EF91E86010E0D1F1DBE
:102BA00020912B0730912C074091290750912A073B
:102BB000609101077091020780911B0783FB8827B2
:102BC00080F90E946D04E80EF91E86010E0D1F1D8E
:102BD00020912F073091300740912D0750912E07FB
:102BE000609103077091040780911B0782958170A3
:102BF0000E946D04E80EF91E86010E0D1F1D209126
:102C0000330730913407409131075091320760917A
:102C100005077091060780911B0785FB882780F9BF
:102C20000E946D04E80EF91E86010E0D1F1D2091F5
:102C3000370730913807409135075091360760913A
:102C4000090770910A0780911C0781700E946D042A
:102C5000E80EF91E86010E0D1F1D20913B073091D5
:102C60003C074091390750913A07609107077091EE
:102C7000080780911C07869581700E946D04E80EFC
:102C8000F91E86010E0D1F1D20913F073091400750
:102C900040913D0750913E0760910B0770910C07E2
:102CA00080911C0782FB882780F90E946D04E80E42
:102CB000F91E86010E0D1F1D209143073091440718
:102CC000409141075091420760910D0770910E07A6
:102CD00080911C0783FB882780F90E946D048E0D6C
:102CE0009F1D8601080F191F209147073091480743
:102CF000409145075091460760910F07709110076A
:102D000080911C07829581700E946D040E94A30E21
:102D10004C0140914A078091490750E07A01FFEF4A
:102D2000EF1AFF0A2DB73EB72E193F090FB6F894D8
:102D30003EBF0FBE2DBF0DB71EB70F5F1F4FEDB7C4
:102D4000FEB78183B601C80101960E947927F4017C
:102D50008381A701B80180640E947F070FB6F894B1
:102D6000BEBE0FBEADBEDF91CF911F910F91FF9000
:102D7000EF90DF90CF90BF90AF909F908F9008958D
:102D800090911807891708F5E82FE695E695E695DE
:102D90002091150730911607E20FF32FF11D282F10
:102DA000277081E090E0A0E0B0E004C0880F991F98
:102DB000AA1FBB1F2A95D2F7809590818923808313
:102DC0008091170781110C94281508959091180788
:102DD000891700F5E82FE695E695E6952091150709
:102DE00030911607E20FF32FF11D282F277081E095
:102DF00090E0A0E0B0E004C0880F991FAA1FBB1F9D
:102E00002A95D2F72081822B808380911707811128
:102E10000C9428150895FF920F931F93CF93DF937F
:102E2000F82E162FD42FC22F082E000C990B0E94BB
:102E30005C04212F012E000C330B811105C0C90148
:102E40000E945C048823E1F180913C0890913D0848
:102E50009C0102C036952795FA94E2F7217033273A
:102E600002C0969587951A95E2F780FF1EC0232B26
:102E700089F48D2F0E94E61664E170E080E090E016
:102E80000E94B5068D2FDF91CF911F910F91FF907A
:102E90000C94C0168C2F0E94E61664E170E080E06E
:102EA00090E00E94B5068C2FEECF802F0E94E61690
:102EB00064E170E080E090E00E94B506802FE3CFEF
:102EC000DF91CF911F910F91FF900895611102C082
:102ED0000C94C0160C94E6161F920F920FB60F9228
:102EE00011242F933F938F939F93AF93BF93809120
:102EF0005C0390915D03A0915E03B0915F033091FC
:102F00005B0323E0230F2D3758F50196A11DB11D5A
:102F100020935B0380935C0390935D03A0935E0317
:102F2000B0935F038091600390916103A09162036D
:102F3000B09163030196A11DB11D8093600390932E
:102F40006103A0936203B0936303BF91AF919F911C
:102F50008F913F912F910F900FBE0F901F9018955A
:102F600026E8230F0296A11DB11DD2CF1F920F920A
:102F70000FB60F9211248F939F938091E10090914F
:102F8000E100937F9093E10083FF0FC01092E9006E
:102F900091E09093EB001092EC0092E39093ED009F
:102FA0001092650398E09093F00082FF22C093E0B6
:102FB0009093E9009091F200992319F09AE390938D
:102FC000E80090915203992341F09091520391505F
:102FD00090935203911101C05D9A909164039923DB
:102FE00041F090916403915090936403911101C05A
:102FF000289A84FF18C08091E2008E7E81608093C1
:10300000E2008091E1008F7E8093E1008091530384
:103010008E7E8061809353039F918F910F900FBE9E
:103020000F901F90189580FFF7CF8091E2008E7E61
:1030300080618093E2008091E1008E7E8093E100C8
:10304000809153038E7E8160E5CF1F920F920FB661
:103050000F921124CF92DF92EF92FF920F931F9362
:103060002F933F934F935F936F937F938F939F9390
:10307000AF93BF93EF93FF93CF93DF93CDB7DEB7BB
:103080006C97DEBFCDBF1092E9008091E80083FF0E
:1030900025C068E0CE0145960E94190882EF809312
:1030A000E8008D8987FF39C09091E80090FFFCCF40
:1030B000982F907609F034C19E894F89588D2F89B9
:1030C000F88C911131C0803861F580915403809360
:1030D000F1001092F1008EEF8093E8006C960FB62D
:1030E000F894DEBF0FBECDBFDF91CF91FF91EF917E
:1030F000BF91AF919F918F917F916F915F914F9110
:103100003F912F911F910F91FF90EF90DF90CF9003
:103110000F900FBE0F901F9018959EEF9093E800B0
:10312000C7CF1092F100D5CF913059F48111D3CF90
:103130004130510581F6809154038D7F8093540373
:10314000CACF933049F48111C6CF4130510519F6E9
:10315000809154038260F2CF953041F48091E80071
:1031600080FFFCCF20682093E300B5CF963009F0B4
:10317000A9C00B8D1C8D22E01092E9001092500323
:1031800010924F03F2122EC010924E0310924D0374
:103190000E943A081F8299E09983FA8291E09E8307
:1031A00090EA98879AEF998720914F0330915003C6
:1031B000275F3F4F3C832B838D831092E900109251
:1031C000500310924F0310934E0300934D0349E0B8
:1031D00050E0BE016F5F7F4F80E00E9448070E9471
:1031E0003A0879CF10934E0300934D030E942608AE
:1031F000DC0112960D911C910115110509F451C1C4
:10320000D801ED91FC910480F581E02DBE016B5E4B
:103210007F4FC8010995009709F03EC1F80100856C
:103220001185EACFF3E0FF120EC08F89882309F4DD
:1032300040C0823061F440E86CE080EB91E00E9495
:103240001507811148CF81E28093EB0047CF813091
:1032500029F440E868E087EA91E0F1CF833099F7FC
:103260000E942608DC011296ED90FC908E010F5F03
:103270001F4F6801E114F10479F0D701ED91FC9141
:103280000680F781E02DB801C7010995080F111DCF
:10329000F701E084F184EECFD8011C92F601019091
:1032A0000020E9F73197BF016C197D0940E0C601A4
:1032B000C6CF61E971E0FB01449150E080E80E94D3
:1032C000480709CF973009F4BECF983021F481E048
:1032D0008093F10000CF993009F0FDCE837009F0A2
:1032E000B2CFE1E0F1E081E031E096E321912223E9
:1032F00071F08093E9003093EB00DF0111972C917E
:103300002093EC009093ED008F5F873079F78EE784
:103310008093EA001092EA008F8980936503DBCEE8
:103320008B8D9C8D1092E9001092500310924F03E8
:1033300090934E0380934D03898D811192C08E89A5
:103340009D89913A49F4813209F07DCF47E050E000
:103350006BE071E080E0B3CF913209F074CF83323B
:1033600069F48F89988DB0E0A0E080930701909375
:103370000801A0930901B0930A01ADCE803269F42F
:103380008091E80082FFFCCF67E08BE091E00E9433
:1033900019088BEF8093E8009ECE823209F09BCE15
:1033A0008F8980931201EEEFFFE7859194918B3F17
:1033B0009C4D51F1E0E0F8E080910B0190910C01FF
:1033C000A0910D01B0910E01803B9440A105B10583
:1033D000F1F48091120180FD1AC0EE3F8AE0F807F7
:1033E00089F587E797E791838083809160008093D8
:1033F000510388E19BE00FB6F894A8958093600094
:103400000FBE9093600067CEEEEFFAE0D5CF8081DB
:1034100091818737974709F05ECEA895809160002B
:103420008861809360008091510380936000EE3F3B
:103430002AE0F20789F08091FE0A9091FF0A9183B9
:10344000808349CE808191818737980751F290938C
:10345000FF0A8093FE0AC5CF1092FF0A1092FE0A5F
:103460003ACE0E942608DC0112960D911C9101159E
:10347000110509F4E8CED801ED91FC910190F0819D
:10348000E02DBE016B5E7F4FC8010995811123CEEF
:10349000F80100851185EBCF181619060CF41BCE28
:1034A000D2CEF1E0FF12BECE65E971E004CFCF933A
:1034B000DF93DC0185E791E011969C938E93139640
:1034C0007C936E9312974E7F15965C934E93149750
:1034D000E0915503F0915603C5E5D3E0309759F4D8
:1034E000B0935603A093550317961C921E921697FD
:1034F000DF91CF910895848195818417950740F0DD
:103500004817590761F4828193818617970738F429
:10351000EF0126960680F781E02D309761F7179628
:10352000FC93EE931697B983A883E2CF0F931F9372
:10353000CF93DF93EC018A01AB014F5F5F4F0E9495
:10354000571A83E991E09983888319861B861C8624
:103550001D861F870E87DF91CF911F910F910895D0
:10356000CF93DF93EC01AB010E94571A8FE791E0F4
:10357000998388831A86DF91CF9108950F931F93C3
:10358000CF93DF93EC018A01AB014E5F5F4F0E9446
:10359000571A87EA91E09983888380E288871A86A0
:1035A0001D861E861F86198B088BDF91CF911F9178
:1035B0000F9108950F931F93CF93DF93EC018A012E
:1035C000AB014A5F5F4F0E94571A8DE991E09983E2
:1035D000888345E050E060E270E0CE0108960E94EA
:1035E00082271E861D8A1E8A1F8A198F088FDF91E7
:1035F000CF911F910F9108950F931F93CF93DF9356
:10360000EC018A01AB014D5F5F4F0E94571A89E8B8
:1036100091E09983888380E290E2998788871B866E
:103620001F86188A198A1B8B0A8BDF91CF911F91F5
:103630000F9108952F923F924F925F926F927F92D7
:103640008F929F92AF92BF92CF92DF92EF92FF92B2
:103650000F931F93CF93DF93CDB7DEB7C659D10930
:103660000FB6F894DEBF0FBECDBF10926903109263
:10367000680388EE93E0A0E0B0E080936A03909343
:103680006B03A0936C03B0936D038DEB91E090936B
:103690006703809366038FEF9FEF9093730380938C
:1036A00072031092040910920509109206091092F3
:1036B00007091092BA081092C10882E080933E0870
:1036C00083E080933F0888E0E9E1F1E0A0E4B8E01E
:1036D00001900D928A95E1F7FEE3CF2EF8E0DF2E00
:1036E0007601A6E48A2EA8E09A2EB3E06B2E712C08
:1036F00062E0D7018D917D010E94910556010EE394
:1037000018E061E0F80182810E94910561E0D80132
:1037100012968C910E94630560E0F80182810E94FC
:103720009105D5011B967C926E921A970F5F1F4FE1
:10373000B7E0AB0EB11C8016910619F7E8E3CE0E88
:10374000D11CF0E4EF16F8E0FF0691F61092B908EC
:103750001092B80880E190E0909338088093370881
:1037600025E02093390810923B0810923A081092F5
:103770003D0810923C0825E130E030930F0820937B
:103780000E0824E030E0309311082093100825E063
:1037900030E030931308209312081092150810920D
:1037A0001408109216081092180810921708109218
:1037B000190810921A0810921B082EE038E0309376
:1037C000CF072093CE0722E1E1E2F1E0A0EDB7E0E0
:1037D00001900D922A95E1F72CE2E3E3F1E0A2EEED
:1037E000B7E001900D922A95E1F72FE030E0309399
:1037F000A9072093A8079093AB078093AA078AE0B4
:1038000090E09093AD078093AC071092AF071092B1
:10381000AE071092B0071092B2071092B107109243
:10382000B3071092B4071092B50788EA97E0909317
:1038300095078093940782E1EFE5F1E0A6E9B7E010
:1038400001900D928A95E1F7EAE8EE2EE7E0FE2E70
:1038500089ED91E090938B0780938A0718E010938D
:103860008D0782E080938F0793E090939007809379
:10387000910786E080938C0781E080938E0761E05A
:1038800082E00E94910561E083E00E94910561E081
:1038900082E00E94910561E082E00E94630561E0A0
:1038A00083E00E94630585E092E090938B0780930C
:1038B0008A07C7010E94000B47E061E0C7010E9430
:1038C000410BEAE7F7E080E1DF011D928A95E9F715
:1038D000F0927707E09276071093780710937907B4
:1038E000F0924C07E0924B0784E080934D0784EF01
:1038F00091E090934F0780934E0788EE93E090936A
:10390000510780935007109253071092520710925C
:1039100055071092540710925707109256071092AD
:1039200059071092580710925B0710925A0710928D
:103930005D0710925C07EBE4F7E0AFEFA38B148A0E
:10394000168A158A108E178A3696B7E0E336FB077B
:10395000A9F71092160710921507109219071092E6
:103960001E0710921D078FEF93E09093200780931E
:103970001F0710922207109221079093240780932B
:10398000230710922607109225079093280780930B
:10399000270710922A071092290790932C078093EB
:1039A0002B0710922E0710922D07909330078093CB
:1039B0002F071092320710923107909334078093AB
:1039C000330710923607109235079093380780938B
:1039D000370710923A071092390790933C0780936B
:1039E0003B0710923E0710923D079093400780934B
:1039F0003F0710924207109241079093440780932B
:103A0000430710924607109245079093480780930A
:103A1000470743E04093490720E820931807109296
:103A20001A078FE380931B0710921C0735E0398338
:103A300091E09A8389E08B8358E05C8361EA6D832F
:103A40009E8355E85F83488739878A8749E14B879A
:103A50009C8749E24D872E8745E14F87188A45E2CA
:103A6000498B9A8BE5E7EB8B9C8B75E97D8B2E8BD5
:103A700045E54F8B188E45E6498F1A8E51E85B8FCE
:103A800042E04C8F3D8F9E8F8F8F98A336E139A3F4
:103A90009AA32BA396E29CA3ADA39FE79EA3EFA3BB
:103AA00090E198A779A796E09AA76BA71CA68DA787
:103AB00090E39EA78FA791E398AB89AB92E39AAB73
:103AC0008BAB93E39CAB8DAB94E39EAB8FAB85E369
:103AD00088AF59AF4AAF80EC8BAF8CAF8CE390E0EE
:103AE0000E9454267C018CE3FE013196D70101909F
:103AF0000D928A95E1F787E090E00E9454268C01B0
:103B0000FC0111821082F382E2828CE390E09583C3
:103B1000848316820E94A30EFC01A385B4851097AE
:103B200009F073C01487038785859685D80114969C
:103B30002D913C91820F931F96878587909118074E
:103B4000892F869586958695977009F066C0809333
:103B5000190710911907812F90E00E945426909325
:103B600016078093150781E090911A07911101C003
:103B700080E0145F810F80934A071092FC06109238
:103B8000FB061092FE061092FD061092000710929E
:103B9000FF0610920207109201071092040710927C
:103BA000030710920607109205071092080710925B
:103BB000070710920A071092090710920C0710923B
:103BC0000B0710920E0710920D071092100710921B
:103BD0000F078FEF9FEF9093120780931107909339
:103BE00014078093130790E080E0209119072817AD
:103BF0001906A9F0A4F0E0911507F0911607E80F57
:103C0000F91F10820196F1CFDC018D919C911197E3
:103C10000097D1F70D931C9387CF8F5F98CF66E401
:103C200075E78BEE96E00E94B01A8BE3A82E82E037
:103C3000B82EB092EC06A092EB0688248A94982CB9
:103C40009092F7068092F6061092F80680E796E0CA
:103C50009093FA068093F9064CE451E16EE974E71B
:103C600087ED96E00E94FC1A45E651E162EA74E7AE
:103C700083EC96E00E94FC1A44E75CE066EA74E795
:103C80008FEA96E00E94FC1A43EA5CE06AEA74E775
:103C90008BE996E00E94FC1A45E85CE062EB74E771
:103CA00087E896E00E94FC1A42E95CE06EEA74E75D
:103CB00083E796E00E94FC1A4EE751E162E874E760
:103CC0008FE596E00E94FC1A43E951E166E874E74B
:103CD0008BE496E00E94FC1A48EA51E166E974E739
:103CE00087E396E00E94FC1A41EC51E16AE974E72F
:103CF00083E296E00E94FC1A46E051E16CEB74E727
:103D000083E196E00E94961A40EA53E164ED74E77D
:103D100083E096E00E94961A46EC54E168ED74E761
:103D200083EF95E00E94961A6AE775E783EE95E0C7
:103D30000E94B01AB092E405A092E3059092EF05BC
:103D40008092EE051092F00581E095E19093F205E6
:103D50008093F10568E775E783ED95E00E94B01A5E
:103D6000B092D405A092D3059092DF058092DE0533
:103D70001092E0058AED94E19093E2058093E105CD
:103D800041E353E066EC74E783EC95E00E94961AF9
:103D900046E950E16CE775E789EA95E00E94DA1A96
:103DA0004AED51E160E974E78FE895E00E94DA1A84
:103DB0004CE353E062E875E78FE795E00E94961ABE
:103DC0004FEF51E16AE874E785E695E00E94DA1A60
:103DD0004FE752E166EB74E78BE495E00E94DA1A54
:103DE0004DE654E768E674E783E395E00E94571ACE
:103DF0008FEC91E0909334058093330544E050E0DC
:103E000060E270E08BE395E00E948227109240050B
:103E100010924605109247051092480584E292E1FF
:103E200090934A05809349054CE453E062EC74E7B3
:103E300083E295E00E94961A4CE452E16EE674E744
:103E400081E195E00E94BE1A4DE552E160E774E71A
:103E50008FEF94E00E94BE1A4EE652E162E774E7EB
:103E60008DEE94E00E94BE1A4DEA5CE064E774E7D0
:103E70008BED94E00E94BE1A42EB5CE066E774E7CB
:103E800089EC94E00E94BE1A4FEB5CE068E774E7AF
:103E900087EB94E00E94BE1A45E553E06AE774E7B9
:103EA00087EA94E00E94961A6EE274E784E994E04F
:103EB0000E94B01A21E3E22E22E0F22EF092950445
:103EC000E0929404612C30E4732E7092A00460920E
:103ED0009F041092A2041092A1041092A4041092C4
:103EE000A30402E010E01093A6040093A5046EE280
:103EF00074E781E894E00E94B01AF0928204E092A4
:103F00008104E0E0F0E8F0938D04E0938C04CC248D
:103F1000C394D12CD0928F04C0928E04109291043D
:103F200010929004109393040093920460E374E75A
:103F30008EE694E00E94B01AF0926F04E0926E0454
:103F400080E092E090937A048093790410937C044B
:103F500000937B0410927E0410927D0410938004E1
:103F600000937F0460E374E78BE594E00E94B01A4D
:103F7000F0925C04E0925B0480E091E0909367042F
:103F800080936604D0926904C0926804D0926B0456
:103F9000C0926A0410936D0400936C0460E374E7AC
:103FA00088E494E00E94B01AF0924904E092480438
:103FB00080E094E09093540480935304109356044B
:103FC00000935504D0925804C092570410935A0499
:103FD0000093590460E374E785E394E00E94B01A0B
:103FE000F0923604E092350480E098E0909341042A
:103FF0008093400455E0452E512C5092430440924A
:104000004204D0924504C0924404109347040093A4
:10401000460460E374E782E294E00E94B01AF092F2
:104020002304E092220480E090E190932E04809398
:104030002D0463E0262E312C3092300420922F0480
:10404000109232041092310410933404009333041C
:1040500060E374E78FE094E00E94B01AF0921004DD
:10406000E0920F0470921B0460921A0474E0672EB1
:10407000712C70921D0460921C0410921F04109207
:104080001E04109321040093200460E674E78CEF73
:1040900093E00E94B01AF092FD03E092FC03D092EC
:1040A0000804C092070450920A0440920904109236
:1040B0000C0410920B0410930E0400930D0460E3A3
:1040C00074E789EE93E00E94B01AF092EA03E0925E
:1040D000E90380E090E29093F5038093F40330923B
:1040E000F7032092F603D092F903C092F8031093DD
:1040F000FB030093FA0360E374E786ED93E00E940C
:10410000B01AF092D703E092D60380E090E8909343
:10411000E2038093E1037092E4036092E303D092A0
:10412000E603C092E5031093E8030093E70368EC0D
:1041300074E786EC93E00E94B01AB092C703A09295
:10414000C60380E096E09093D2038093D10389E088
:104150008093D3038DE490E19093D5038093D403AF
:104160006EED74E786EB93E00E94B01AB092B7034D
:10417000A092B6039092C2038092C1031092C3032F
:1041800089E896E09093C5038093C403CA56DF4F35
:104190000FB6F894DEBF0FBECDBFDF91CF911F9158
:1041A0000F91FF90EF90DF90CF90BF90AF909F90D6
:1041B0008F907F906F905F904F903F902F900895D9
:1041C000CF93DF9300D01F92CDB7DEB7789484B53C
:1041D000826084BD84B5816084BD85B5826085BD03
:1041E00085B5816085BD80916E00816080936E0091
:1041F0001092810080918100826080938100809183
:104200008100816080938100809180008160809333
:104210008000809191008260809391008091910054
:1042200081608093910080919000816080939000E4
:104230008091C10084608093C1008091C100826040
:104240008093C1008091C10081608093C100809102
:10425000C30081608093C3008091C000826080931E
:10426000C0008091C20081608093C20080917A007A
:10427000846080937A0080917A00826080937A00D3
:1042800080917A00816080937A0080917A008068C2
:1042900080937A0010926503109254031092530396
:1042A0008091D70081608093D70080EA8093D80006
:1042B00089B5806189BD89B5826089BD09B400FE78
:1042C000FDCF61E070E080E090E00E94B506809153
:1042D000D8008F7C80618093D8008091E000807F3F
:1042E0008093E0008091E1008E7E8093E1008DE07C
:1042F0008093E200559A209A8FEF9FEF909373037B
:104300008093720361E087E00E94910561E086E09E
:104310000E94910560E088E00E94910561E089E0DB
:104320000E94910561E080E00E94910561E081E0DA
:104330000E94910561E083E10E94910561E081E0C6
:104340000E94630560E080E00E9463056FEF70E00B
:1043500083E10E94CD0587E08093340861E00E94EC
:10436000910588E08093350860E00E94910586E021
:104370008093360861E00E94910584E180933908BA
:104380008EE098E00E94B50D88EA97E00E94B50D96
:1043900061E081E00E94630560E080E00E946305C7
:1043A0006FEF70E083E10E94CD0560E088E50E9438
:1043B0009C0364E081E30E94A50C65E080E30E9419
:1043C000A50C66E083E30E94A50C80919407909170
:1043D00095070E94ED0C60ED77E080E090E00E9490
:1043E000B50684E997E00E94480D1982698188E347
:1043F0000E94690C61E089810E94C30261E08981A9
:104400000E94FA02698188E30E94A50C19811F5F4E
:104410001983163159F78091CE079091CF070E94EA
:10442000ED0C80919407909195070E94ED0C81E02E
:104430000E943C0460ED77E080E090E00E94B506C9
:1044400080E00E943C048EEC97E00E94480D84E9D5
:1044500097E00E94480D80ED93E19093550780937B
:10446000540766246394A0E02A2EA0E03A2E80919F
:10447000CE079091CF070E94ED0C80919407909108
:1044800095070E94ED0C609157037091580380913D
:10449000590390915A030E94B82589E00E94CD05E6
:1044A00080913C0890913D0890933B0880933A0896
:1044B00060E0809134080E9463058091390890E0A3
:1044C0008230910538F0880F991F880F991F059742
:1044D0000197F1F761E0809134080E946305F12CA7
:1044E000E12C10E000E08091370890913808E81640
:1044F000F90670F5809135080E943A052091370839
:1045000030913808215031092E193F0902C0880F17
:10451000991F2A95E2F7082B192B61E08091360844
:104520000E9463058091390890E08230910538F04F
:10453000880F991F880F991F05970197F1F760E081
:10454000809136080E9463052FEFE21AF20ACBCF62
:1045500010933D0800933C0880913A0890913B08E5
:1045600080179107B1F168E070E08AE992E00E945B
:10457000FE1369E070E088EA92E00E94FE136AE0B0
:1045800070E085EB92E00E94FE136BE070E081EC3E
:1045900092E00E94FE136CE070E08EEC92E00E94CC
:1045A000FE136DE070E08CED92E00E94FE1341E09E
:1045B00062E088EE92E00E941F1443E064E08DEF19
:1045C00092E00E941F1440E066E082E193E00E94C6
:1045D0001F1486E693E00E94E908892B09F404C1C0
:1045E00086E693E00E94A708F82E2091BA082330AF
:1045F00009F484C0F8F4213009F45FC0223009F4D2
:1046000065C0E5E5FE12EDC08091C1088F5F809323
:10461000C1088091C1088430E1F66092BA08109216
:10462000C10880915503909156039093C3088093DD
:10463000C208CFCF253009F47AC008F468C026300C
:1046400001F72091BF083091C008982F8827822B4E
:10465000932B9093C0088093BF088091BD089091E0
:10466000BE0801979093BE088093BD080091C208D0
:104670001091C3080115110509F49DC08091BB0874
:104680009091BC08D80114962D913C91159728174C
:10469000390708F05FC0ED91FC910280F381E02DB5
:1046A000C8010995E091C208F091C30886819781FD
:1046B0009093C3088093C208D9CF99279093BC08E0
:1046C0008093BB0882E08093BA089BCF2091BB08FF
:1046D0003091BC08982F8827822B932B9093BC088D
:1046E0008093BB088091BB089091BC08B3E08535EE
:1046F000954509F073C01092BA0883CF992790931B
:10470000BE088093BD08E4E0E093BA087ACF209118
:10471000BD083091BE08982F8827822B932B909349
:10472000BE088093BD08F5E0F093BA086ACF9927D8
:104730009093C0088093BF088091BD089091BE08F7
:1047400001979093BE088093BD0856E0752E709235
:10475000BA0857CFF801828193812091BB0830912C
:10476000BC082817390738F12091BB083091BC08E4
:1047700028173907C8F08091BB089091BC082481A4
:1047800035812817390780F04091BF085091C00843
:104790006091BB087091BC080190F081E02D019000
:1047A000F081E02DC8010995D80116960D911C9154
:1047B0000115110579F68091BB089091BC0802960D
:1047C0009093BC088093BB088091BD089091BE086F
:1047D000892B19F46092BA0814CFB5E0B093BA08E7
:1047E00010CF1092C10815CF0091550310915603B8
:1047F0000115110561F0D801ED91FC910480F5815E
:10480000E02DC8010995F80106811781F1CF80914B
:104810004B0790914C07DC01ED91FC91008CF18DE0
:10482000E02D09956B017C01512C412C4A82B70186
:10483000A601042C04C076956795579547950A9470
:10484000D2F741705527662777278FB7F894809065
:104850005C0390905D03A0905E03B0905F038FBFF8
:10486000B0914D07BB83EBE4F7E0DF0100E07B8014
:10487000701649F016961D968C911D971A8118177F
:1048800021F10F5FF4CF411551056105710581F1EB
:10489000ABE4B7E090E080E0082F2B818217B8F5F9
:1048A0009C0153967C905397798201961696172D0A
:1048B0001F3F91F7A6E0A29FC001A39F900D112476
:1048C000855B984F7A80FC01738A10E026E0209F78
:1048D000F001219FF00D1124E55BF84F84898230AF
:1048E00009F47AC030F58823F1F1813009F444C02D
:1048F0001FEF411A510A20E24216510409F096CFE7
:104900002114310409F4B3CD0E940000ACCD90E035
:1049100080E0082F1B81811758F79C01A489B38977
:10492000BE3F11F4AA2331F201963696A111F1CFC0
:10493000C1CF833009F47EC08430D1F6452B462B9D
:10494000472B09F044C0148A908E878AE091520761
:10495000F0915307309711F08A810995E0915A0739
:10496000F0915B0715C0452B462B472B09F281E0E0
:10497000848B968A858ABCCF452B462B472B71F4B6
:1049800092E0948B908E878AE0915207F0915307C2
:10499000309709F4ADCF8A810995AACF8589968988
:1049A0009401281B390B8091500790915107821771
:1049B000930708F09DCFA4E0A48B908E878AE091A6
:1049C0005807F0915907309711F08A810995E091C5
:1049D0005C07F0915D07DCCF8091560790915707F7
:1049E000892B61F0858996899401281B390B809168
:1049F0004E0790914F078217930798F4E091540760
:104A0000F0915507309711F08A810995B6E0B09F73
:104A1000C001B19F900D1124855B984FFC01148A51
:104A200067CF452B462B472B09F462CF83E0782EC6
:104A3000748A9FCF452B462B472B09F059CF148AF8
:104A4000908E878AE0915207F0915307309711F0CA
:104A50008A810995E0915607F091570799CF052E65
:104A600097FB1EF400940E94462557FD07D00E9434
:104A7000592507FC03D04EF40C94462550954095DB
:104A8000309521953F4F4F4F5F4F089590958095FA
:104A9000709561957F4F8F4F9F4F08950E947B25A2
:104AA000A59F900DB49F900DA49F800D911D112482
:104AB0000895A1E21A2EAA1BBB1BFD010DC0AA1F5F
:104AC000BB1FEE1FFF1FA217B307E407F50720F077
:104AD000A21BB30BE40BF50B661F771F881F991FF2
:104AE0001A9469F760957095809590959B01AC013B
:104AF000BD01CF010895A29FB001B39FC001A39F44
:104B0000700D811D1124911DB29F700D811D112406
:104B1000911D0895AA1BBB1B51E107C0AA1FBB1F13
:104B2000A617B70710F0A61BB70B881F991F5A9539
:104B3000A9F780959095BC01CD01089597FB072EAC
:104B400016F4009407D077FD09D00E948A2507FC4F
:104B500005D03EF4909581959F4F0895709561958D
:104B60007F4F0895EE0FFF1F0590F491E02D0994FB
:104B70000E94BF256894B1110C944E2608950E949E
:104B8000332688F09F5798F0B92F9927B751B0F086
:104B9000E1F0660F771F881F991F1AF0BA95C9F7C1
:104BA00014C0B13091F00E944D26B1E008950C94EC
:104BB0004D26672F782F8827B85F39F0B93FCCF39F
:104BC000869577956795B395D9F73EF4909580953E
:104BD000709561957F4F8F4F9F4F0895E89409C05E
:104BE00097FB3EF490958095709561957F4F8F4F20
:104BF0009F4F9923A9F0F92F96E9BB279395F69536
:104C0000879577956795B795F111F8CFFAF4BB0FB3
:104C100011F460FF1BC06F5F7F4F8F4F9F4F16C017
:104C2000882311F096E911C0772321F09EE8872FA1
:104C3000762F05C0662371F096E8862F70E060E05D
:104C40002AF09A95660F771F881FDAF7880F9695D6
:104C5000879597F9089557FD9058440F551F59F0BF
:104C60005F3F71F04795880F97FB991F61F09F3F59
:104C700079F087950895121613061406551FF2CF82
:104C80004695F1DF08C0161617061806991FF1CFD2
:104C900086957105610508940895E894BB276627F9
:104CA0007727CB0197F908950F931F93CF93DF9345
:104CB0008230910510F482E090E0E0910A09F091D1
:104CC0000B0930E020E0B0E0A0E0309799F4211526
:104CD000310509F44AC0281B390B24303105D8F5B9
:104CE0008A819B816115710589F1FB019383828320
:104CF000FE0111C04081518102811381481759077B
:104D0000E0F04817590799F4109761F012960C9348
:104D1000129713961C933296CF01DF91CF911F917A
:104D20000F91089500930A0910930B09F4CF2115F0
:104D3000310551F04217530738F0A901DB019A0100
:104D4000BD01DF01F801C1CFEF01F9CF90930B094D
:104D500080930A09CDCFFE01E20FF31F8193919357
:104D60002250310939832883D7CF20910809309107
:104D70000909232B41F4209115013091160130933C
:104D8000090920930809209113013091140121157C
:104D9000310541F42DB73EB74091170150911801EC
:104DA000241B350BE0910809F0910909E217F3077C
:104DB000A0F42E1B3F0B2817390778F0AC014E5F8B
:104DC0005F4F2417350748F04E0F5F1F50930909B6
:104DD00040930809819391939FCFF0E0E0E09CCF4E
:104DE000CF93DF930097E9F0FC0132971382128290
:104DF000A0910A09B0910B09ED0130E020E0109775
:104E0000A1F420813181820F931F209108093091F4
:104E100009092817390709F061C0F0930909E093DF
:104E20000809DF91CF910895EA01CE17DF07E8F571
:104E30004A815B819E0141155105B1F7E901FB8370
:104E4000EA8349915991C40FD51FEC17FD0761F40E
:104E5000808191810296840F951FE901998388834F
:104E6000828193819B838A83F0E0E0E012968D91AA
:104E70009C9113970097B9F52D913C911197CD0115
:104E80000296820F931F2091080930910909281773
:104E9000390739F6309751F510920B0910920A092B
:104EA000B0930909A0930809BCCFD383C283408182
:104EB0005181840F951FC817D90761F44E5F5F4F6A
:104EC00088819981480F591F518340838A819B8132
:104ED000938382832115310509F0B0CFF0930B093C
:104EE000E0930A099ECFFD01DC01C0CF138212823C
:104EF000D7CFFB01DC0102C001900D924150504020
:104F0000D8F70895DC0101C06D9341505040E0F79F
:064F10000895F894FFCFA4
:104F160000C18081000000FFFFFFFF00E1000000EC
:104F260000000000000C0980000E0F10111213146F
:104F360015000004000314071407120402000900F8
:104F460008031200070006000500150115021503E7
:104F5600150415051506150715000A000C000D00A9
:104F6600100110021003100410051006100710049B
:104F76000D000D000F000E040A000A0316000904B6
:104F86000600000000FB12FA12FA1200000000EB05
:104F960012FA12FA1200000000260FFC12150F007A
:104FA600000000700F640F530F00000000A40F13E1
:104FB60013930F00000000201041130F1000000093
:104FC60000DC0D580E1A0EFF0D0000000081086B64
:104FD60008A2089708E908A708C50800000000E22B
:104FE6000F2A13D10F00000000410B000BF00AEF4F
:104FF6000AC30A820A790A4F0AFE09E20AFB09D5A0
:105006000AF709F609E609D6099B097E094D09033F
:105016000900000000410B000BF00AEF0AC30A82E8
:105026000A790A4F0AFE09E20AFB09D50A510BDD85
:105036000BE609BA0B8C0B7E094D0903090000002B
:1050460000EB12FA125D1000000000EB12FA12C318
:10505600120D0A0D0A53686F77207363616C650D34
:105066000A0D0A00544F47474C4500534A5F4354C4
:105076005200534A5F4C4900534A5F524900534A13
:105086005F4C4F00534A5F524F00454D45525F4AB1
:105096004554545F42544E0030003100320053658F
:1050A6006E642076616C75652000494645495F4D02
:1050B6004F44455F42544E00494645495F51545955
:1050C6005F42544E00494645495F55505F42544E33
:1050D60000494645495F44574E5F42544E00494693
:1050E60045495F5A4F4E455F42544E004946454931
:1050F6005F45545F42544E0053454C4543545F4808
:105106004D445F4C4444495F524444490053454C26
:105116004543545F4855445F4C4444495F524444B8
:1051260049004D4F44455F53454C4543544F525FEC
:0451360053570000CB
:00000001FF
