:100000000C9415020C94431F0C941C1F0C94F51EA9
:100010000C94CE1E0C943D020C943D020C94A71E31
:100020000C943D020C943D020C946A1F0C94D91F51
:100030000C943D020C943D020C943D020C943D0244
:100040000C943D020C943D020C943D020C943D0234
:100050000C943D020C943D020C943D020C945D1EE8
:100060000C943D020C943D020C943D020C943D0214
:100070000C943D020C943D020C943D020C943D0204
:100080000C943D020C943D020C943D020C943D02F4
:100090000C943E1D0C943D020C943D020C943D02C8
:1000A0000C943D020C943D020C943D023F065B4FC4
:1000B000666D7D077F6F777C395E7971080B000272
:1000C00002020000090400000102020000052400F1
:1000D0001001052401010104240206052406000183
:1000E0000705810310004009040100020A00000016
:1000F00007050202400000070583024000000403D8
:10010000090412010002EF020140C016DC310001B7
:1001100001020301537061726B46756E0054656B8A
:100120002046313820554643004854313632785FF6
:1001300042617365436C6173733A4E6F7420656EF0
:100140006F756768206D656D6F72792E4672656593
:100150007A652E00070605040100080A0B0C0D093C
:1001600000000000240027002A002D0030000000BD
:100170000000250028002B002E00310000000000A8
:100180002300260029002C002F000404040404038B
:100190000405020202020403020202020606060627
:1001A000060604040202020404040802011040804E
:1001B000401020408040800802040180402010024E
:1001C00001108010204040200000000200090F00B4
:1001D00000030401000C000000000000000000000B
:1001E00000000000000001000200040008001000F0
:1001F0002000400080000001000200040008001000
:10020000002000400080000000000000000000000E
:10021000000000000000C912C015F912E30030050B
:10022000C812003A0017000006002002CE12ED129C
:10023000240C5D23000400240009C03FC012000804
:10024000C000000000243F240600DB00CF00E600D1
:10025000ED00FD000700FF00EF000002000A00248F
:10026000C80000098310BB02F7008F1239000F127B
:10027000F900F100BD00F60000121E00700C3800FD
:10028000360536093F00F3003F08F308ED00011280
:100290003E0030243628002D0015092439000021A5
:1002A0000F00030C0800000158107820D8008E08B9
:1002B000580871008E04701000100E0000363000D7
:1002C000D4105040DC007001860450008820780073
:1002D0001C0004201428C0280C20480849090012DA
:1002E00089242005FF3F7849000020002E5C4063F0
:1002F0002D40303F3106325B334F3466356D367DED
:100300003707387F396F4177627F6358644E4339CE
:1003100045794671487650737250536D6F5C031483
:10032000031501150015011402140215031203131D
:100330000113001301120212021303100311011121
:100340000011011002100211030E030F010F000F24
:10035000010E020E020F030C030D010D000D010C26
:10036000020C020D030A030B010B000B010A020A27
:10037000020B030803090109000901080208020928
:100380000300030302030103000000030100020055
:100390000101020202010301030200010002010245
:1003A0000304030702070107000400070104020415
:1003B0000105020602050305030600050006010605
:1003C0007800B40000002D0003200000302E4831DA
:1003D0000C00322642332E02340C0A352A0A362A01
:1003E0004A370E00382E4A392E0A41CF0343F30014
:1003F00045F30347FB024933484FFF004ECC844D81
:10040000CC1450C70353BB0357CCA05800B4576556
:100410002063616E6E6F742062652068657265216D
:1004200020436F6D3D000B22662D11241FBECFEFC0
:10043000DAE0DEBFCDBF13E0A0E0B1E0E0EBF4E630
:1004400002C005900D92AA3BB107D9F728E0AAEBAC
:10045000B3E001C01D92AC3CB207E1F712E0C4E189
:10046000D2E004C02197FE010E94242FC331D1079E
:10047000C9F70E948D260C944B320C94000061E069
:1004800071E00E94FC2E90E080E00E94BE2D6093FF
:100490001F01709320018093210190932201089500
:1004A000E9EAF7E09381262F26952695269530E0F8
:1004B000899F200D311D11240480F581E02DE20F6C
:1004C000F31F2081677081E090E0A0E0B0E004C0FD
:1004D000880F991FAA1FBB1F6A95D2F7822B8083B2
:1004E0000895CF92DF92EF92FF920F931F93CF93D5
:1004F000DF93D901E8016A01F9014217530714F0AB
:100500006901FA01882309F440C0CB016C157D050F
:100510000CF4C6019F018E179F070CF49C01A417D1
:10052000B50734F4CF01821B930B9C012C0D3D1DAC
:100530000D2C000CEE08FF08032E000C440B550B8D
:100540002C193D094E095F09AEEFBFEF0E94812EC5
:100550009F01FF0F440B550B2C193D094E095F09F4
:100560000E94622EDA01C9018F5F9F47A109B1097C
:100570008883998382E090E0DF91CF911F910F9162
:10058000FF90EF90DF90CF90089590E080E0F4CF5F
:10059000282F40919B0750919C0760919D07709177
:1005A0009E0704C076956795579547958A95D2F72B
:1005B00040FD11C080919F079091A007A091A107D5
:1005C000B091A20704C0B695A795979587952A95EF
:1005D000D2F78170089580E00895FC018091B604FF
:1005E000882311F13FB7F89482E08093E9002091CD
:1005F000F200822F90E01816190614F481E090E0C2
:10060000882339F0289844E64093B5044091F100DE
:100610004083222339F02091F200211103C02BE600
:100620002093E8003FBF08958FEF9FEF089520913A
:100630006904260F3327331F21323105ECF4209152
:100640008F04FC0190E080E0243069F082E008959E
:10065000A09169042191AC01495B5B4FA40FB52FB8
:10066000B11D2C930196861798F380916904680F49
:100670006093690480E0089581E0089508950895E5
:100680000895E0913E0480913D04E81730F4F0E0D5
:10069000E35EFB4F808190E008958FEF9FEF089518
:1006A00090913E0480913D042FEF3FEF981748F45E
:1006B000E92FF0E0E35EFB4F208130E09F5F9093F5
:1006C0003E04C901089580913D0490913E04891B28
:1006D000990B0895CF92DF92EF92FF920F931F93A1
:1006E000CF93DF937C01CB018A0120911C0422234C
:1006F00089F0EB016B01C40ED51ECC15DD0569F048
:100700006991D701ED91FC910190F081E02DC70135
:100710000995F3CF642F0E941703C801DF91CF9191
:100720001F910F91FF90EF90DF90CF900895CF939E
:10073000DF931F92CDB7DEB7698320911C0422237B
:10074000F9F020913F04203258F021E030E0FC0124
:100750003383228390E080E00F90DF91CF91089562
:1007600080914004E82FF0E0E450FC4F99819083A1
:100770008F5F8093400480933F0481E090E0ECCF52
:1007800061E0CE0101960E941703F7CF81508F30B0
:1007900008F047C0E82FF0E0E053FC4F0C94242F02
:1007A000ED03F103DF03E503E90311041104110470
:1007B000F403FA03FE030204080411040C048091FC
:1007C00080008F77809380000895809180008F7DD6
:1007D000F9CF80918000877FF5CF84B58F7784BD76
:1007E000089584B58F7DFBCF809190008F778093A3
:1007F00090000895809190008F7DF9CF80919000B6
:10080000877FF5CF8091C0008F778093C0000895D7
:100810008091C0008F7DF9CF8091C200877F809347
:10082000C2000895CF93DF93282F30E0F901E853F9
:10083000FE4F8491F901E755FE4FD491F901E65737
:10084000FE4FC491CC23A1F081110E94C603EC2F6E
:10085000F0E0EE0FFF1FE458FE4FA591B491EC912C
:10086000ED2381E090E009F480E0DF91CF910895DD
:1008700080E090E0FACF1F93CF93DF93282F30E0F2
:10088000F901E853FE4F8491F901E755FE4FD491E9
:10089000F901E657FE4FC491CC23A9F0162F811120
:1008A0000E94C603EC2FF0E0EE0FFF1FE259FE4F4F
:1008B000A591B4918FB7F894EC91111108C0D0951F
:1008C000DE23DC938FBFDF91CF911F910895DE2B44
:1008D000F8CF10928F0481E08093910410929004DD
:1008E00061E082E00E943B0461E083E00E943B04FF
:1008F000E9EBF0E080818E7F808380818D7F808333
:1009000088E48093B80085E48093BC000895CF9379
:10091000DF9391E0909346048823B9F0C091B8002A
:10092000D091BA008091BC008A7B8093BC0060E0CB
:1009300082E00E943B0460E083E00E943B040E944E
:100940006904D093BA00C093B800DF91CF910895A5
:10095000CF93DF9390E0FC01E755FE4F249186573B
:100960009E4FFC0184918823C9F090E0880F991F65
:10097000FC01E05AFE4FA591B491FC01E259FE4FF3
:10098000C591D49161110DC09FB7F8948C912095B9
:1009900082238C938881282328839FBFDF91CF9166
:1009A0000895623051F49FB7F8943C91822F80955E
:1009B00083238C93E8812E2BEFCF8FB7F894EC91A3
:1009C0002E2B2C938FBFEACF1F93CF93DF93182F3B
:1009D000EB0161E00E94A804209739F460E0812FC8
:1009E000DF91CF911F910C943B04CF3FD10511F4BF
:1009F00061E0F5CFE12FF0E0E853FE4FE491E150E4
:100A0000EF3008F07FC0F0E0E85FFA4F0C94242F3D
:100A100017051F0524052E05380582058205820568
:100A200042054C05560560056D058205750584B5C2
:100A3000806884BDC7BDDF91CF911F91089584B5B3
:100A4000806284BDC8BDF7CF8091800080688093AC
:100A50008000D0938900C0938800EDCF8091800002
:100A6000806280938000D0938B00C0938A00E3CF94
:100A700080918000886080938000D0938D00C09327
:100A80008C00D9CF80919000806880939000D093A3
:100A90009900C0939800CFCF80919000806280939E
:100AA0009000D0939B00C0939A00C5CF8091900096
:100AB000886080939000D0939D00C0939C00BBCF32
:100AC0008091C00080688093C0008091C0008F7BBF
:100AD0008093C000C093CF00AECF8091C0008062F1
:100AE0008093C000C093D000A6CF8091C2008860E0
:100AF0008093C2008091C2008B7F8093C200C0931C
:100B0000D20099CFC038D1050CF072CF67CF8231B7
:100B100008F08251E82FF0E0EC5AFE4FE4919091FA
:100B20007B008E2F880F880F80729F7D892B80938A
:100B30007B00E770E064E0937C0080917A00806441
:100B400080937A0080917A0086FDFCCF80917800B6
:100B50009091790008958230910538F0880F991F9F
:100B6000880F991F05970197F1F70895CF92DF92AB
:100B7000EF92FF92CF93DF9380919F079091A00710
:100B8000A091A107B091A20780939B0790939C0727
:100B9000A0939D07B0939E0760E0809195070E9407
:100BA0003B0480919A0790E00E94AB0561E0809140
:100BB00095070E943B04D0E0C0E0C12CD12C760107
:100BC0008091980790919907C817D90760F580918F
:100BD00096070E941204092E000CAA0BBB0B209151
:100BE000980730919907215031092C1B3D0B04C007
:100BF000880F991FAA1FBB1F2A95D2F7C82AD92A86
:100C0000EA2AFB2A61E0809197070E943B048091C9
:100C10009A0790E00E94AB0560E0809197070E94E0
:100C20003B042196CDCFC701B6010E942A2F6093C5
:100C30009F077093A0078093A1079093A207C70115
:100C4000B601DF91CF91FF90EF90DF90CF900895A4
:100C50003FB7F8948091F8039091F903A091FA03BB
:100C6000B091FB0326B5A89B05C02F3F19F0019654
:100C7000A11DB11D3FBFBA2FA92F982F8827BC01F6
:100C8000CD01620F711D811D911D42E0660F771F1E
:100C9000881F991F4A95D1F708958F929F92AF921E
:100CA000BF92CF92DF92EF92FF924B015C010E94C4
:100CB00028066B017C010E9428066C197D098E09AB
:100CC0009F09683E734081059105A8F321E0821ACF
:100CD0009108A108B10888EEC80E83E0D81EE11C77
:100CE000F11C81149104A104B10429F7FF90EF9045
:100CF000DF90CF90BF90AF909F908F9008958F928C
:100D00009F92AF92BF92CF92DF92EF92FF920F939A
:100D10001F93CF93DF93C0EDC60FCA3038F09FEB1F
:100D2000960F9A3108F06BC0C9ECC60F815C882E13
:100D3000880C880C10E000E0CC24C394D12C9FE0F8
:100D4000A92EB12CD0E0CC0FDD1FCB52DE4F80910D
:100D500095068017110609F00CF451C0F12CE12C16
:100D6000902E8091960690E0E816F9060CF044C0AB
:100D7000E0919306F0919406282D2E0DB60101C046
:100D8000660F2A95EAF7DF01A00FB11F14964C9168
:100D900014978E9D90018F9D300D9E9D300D1124D6
:100DA000200F311FC501821B930B960102C0220F39
:100DB000331F8A95E2F7C901288139818223932361
:100DC000892BB9F0642B14966C9380819181DC019E
:100DD000ED91FC910480F581E02D492D099561E0AC
:100DE00070E080E090E00E944D06BFEFEB1AFB0A36
:100DF000B8CF60956423E7CF0F5F1F4FA8CFDF9177
:100E0000CF911F910F91FF90EF90DF90CF90BF9007
:100E1000AF909F908F9008958F929F92AF92BF92C4
:100E2000CF92DF92EF92FF920F931F93CF93DF93B6
:100E30004B016AE070E00E94102FFC01EE0FFF1FD3
:100E4000EB52FE4F008111816130710509F05EC0E7
:100E50000C6021E0821A9108880C880CD0E0C0E078
:100E6000CC24C394D12C9FE0A92EB12C809195065F
:100E70008C171D0609F00CF455C0F12CE12C9C2EAA
:100E80008091960690E0E816F9060CF049C0E091D2
:100E90009306F0919406282D2E0DB60101C0660F21
:100EA0002A95EAF7DF01AC0FBD1F14964C911497F9
:100EB0008E9D90018F9D300D9E9D300D11242C0F25
:100EC0003D1FC501821B930B960102C0220F331FE9
:100ED0008A95E2F7C90180239123892BF1F0642BD5
:100EE00014966C9380819181DC01ED91FC910480DA
:100EF000F581E02D492D099561E070E080E090E0FA
:100F00000E944D06BFEFEB1AFB0ABACF62307105A3
:100F100009F09FCF086C10669CCF60956423E0CFEA
:100F20002196A4CFDF91CF911F910F91FF90EF9069
:100F3000DF90CF90BF90AF909F908F9008952FB784
:100F4000F8946091F4037091F5038091F603909109
:100F5000F7032FBF089508954091E5035091E603EC
:100F60002091E3033091E40342175307B4F49091C6
:100F7000E8009570E1F39091E80092FD19C080932C
:100F8000F1008091E5039091E60301968F73992714
:100F9000892B19F48EEF8093E8008091E5039091FE
:100FA000E60301969093E6038093E50381E00895BC
:100FB00080E00895EF92FF920F931F93CF93DF93FA
:100FC000F82E192FE62E042F81E0860F880F0E943D
:100FD000AC0783E00E94AC07CF2DD12FEC0EFD2E85
:100FE000F11CCE15DF05B9F007FF13C0FE01849197
:100FF0000E94AC07182F80E00E94AC078123219645
:101000008111EFCFDF91CF911F910F91FF90EF9062
:1010100008958881EDCF81E0F5CFDF92EF92FF92C6
:101020000F931F93CF93DF93D82E8A01EB017B019F
:10103000E40EF51ECE15DF0559F0D7FE12C0FE01F5
:1010400084910E94AC0721968111F4CF0FEF1FEF1E
:10105000C801DF91CF911F910F91FF90EF90DF902A
:1010600008958881EECF2FB7F89487708093E900B8
:101070009091E800892F807295FF04C09091F20052
:1010800080E4891B2FBF08957F928F929F92AF9229
:10109000BF92CF92DF92EF92FF920F931F93CF9365
:1010A000DF93C82E8B017A018091B604811110C0A4
:1010B0008FEF9FEFDF91CF911F910F91FF90EF90F6
:1010C000DF90CF90BF90AF909F908F907F900895CA
:1010D0008091E90380FF05C08091E00082608093E9
:1010E000E000CE2DDF2DD12C8AEFB82E8C2D87700D
:1010F000982E8C2D8072882E8C2D8074782E9AE3F9
:10110000A92E209719F4DD2009F452C08C2D0E94DD
:10111000330881110AC0BA94BB2051F261E070E03B
:1011200080E090E00E944D06ECCF8C171D0611F078
:101130000CF08C2F9FB7F8949092E9002091E80072
:1011400025FD02C09FBFDDCF282F30E0C21BD30B8F
:10115000882029F08150A0F01092F100FBCFF80117
:10116000C7FC0AC0815050F041914093F100FACF82
:1011700044914093F10031968150D0F7020F131F34
:10118000DD2021F0A092E800D12CDCCF8091E80096
:1011900085FD07C0A092E800DD24D394209791F24A
:1011A000F3CF209779F6772069F2A092E800CACFB2
:1011B0005D9884E68093E803C7017CCF615030F0EE
:1011C0002091F100FC0120830196F8CF289884E655
:1011D0008093B504089590E080E008958091DB034A
:1011E00081110DC082E08093D70384E08093D803FF
:1011F0001092DA031092D90381E08093DB0387ED2C
:1012000093E008950F931F93CF93DF931F92CDB771
:10121000DEB782E0898342E450E06CEB70E080E866
:101220000E940D080E94EE08DC0112960D911C919F
:101230000115110589F0D801ED91FC910280F3812F
:10124000E02DBE016F5F7F4FC801099597FD04C077
:10125000F80100851185ECCF89810F90DF91CF9146
:101260001F910F910895CF93DF93EC0180911401AA
:10127000882331F083E00E9444081816190634F0E0
:1012800081E090E09B838A8380E090E0DF91CF91C2
:101290000895CF93DF931F92CDB7DEB76983DC014A
:1012A000ED91FC910280F381E02D41E050E0BE0120
:1012B0006F5F7F4F09950F90DF91CF9108950F9346
:1012C0001F93CF93DF938C01D0E0C0E0F801EC0FC7
:1012D000FD1F6491662341F087EB94E00E94490969
:1012E000892B11F02196F2CFCE01DF91CF911F9182
:1012F0000F91089583E08093E9008091F2008823A4
:1013000019F08AE38093E800089583E00E9433088F
:1013100090E00895CF93DF931F92CDB7DEB7FC0125
:101320008485958597FD08C02FEF3FEF358724878B
:101330000F90DF91CF910895CE0101960E94ED02AA
:10134000019719F4898190E0F3CF8FEF9FEFF0CFF1
:101350000F931F93CF93DF931F92CDB7DEB78C010E
:10136000FC018485958597FF0BC0CE0101960E94F4
:10137000ED02019771F4898190E0F80195878487E7
:10138000F801848595850F90DF91CF911F910F9182
:1013900008958FEF9FEFF1CFFC018485958597FD30
:1013A0000BC09FB7F89482E08093E9008091F2002F
:1013B0009FBF90E0019608959FB7F89482E08093D4
:1013C000E9008091F2009FBF90E00895CF92DF92F4
:1013D000EF92FF921F93CF93DF93EC0160E08D813A
:1013E0000E94A80461E08D810E943B0498E0C92E10
:1013F000D12C10E0E12EF12CF594E7941E2D60E045
:101400008E810E943B04E881F9810488F589E02DF2
:10141000CE0109958D810E941204892B09F0106874
:1014200061E08E810E943B04E881F9810488F5899E
:10143000E02DCE01099581E0C81AD108D9F661E006
:101440008D810E94A80460E08D810E943B04812F61
:10145000DF91CF911F91FF90EF90DF90CF90089593
:101460000F931F93CF93DF93EC01162F042FE88186
:10147000F981048CF58DE02D64E40995E881F9810A
:101480000688F789E02DCE010995612F606CE8810F
:10149000F981028CF38DE02DCE010995E881F98167
:1014A000028CF38DE02D602FCE010995E881F98142
:1014B000008CF18DE02DCE01DF91CF911F910F9126
:1014C00009941F93CF93DF93EC01162FE881F981E4
:1014D0000688F789E02D0995E881F981028CF38D62
:1014E000E02D612FCE010995E881F981008CF18D05
:1014F000E02DCE01DF91CF911F910994FF920F93C0
:101500001F93CF93DF93EC01F62E08E010E060E02C
:101510008E810E943B04E881F9810488F589E02DE1
:10152000CE0109956F2D61708D810E943B04E88189
:10153000F9810488F589E02DCE010995F69461E0E2
:101540008E810E943B04E881F9810488F589E02DB1
:10155000CE01099501501109D1F6E881F98104887D
:10156000F589E02DCE01DF91CF911F910F91FF9072
:101570000994CF93DF93EC0161E08F810E943B04DB
:10158000E881F9810488F589E02DCE01DF91CF91C2
:101590000994CF93DF93EC0160E08F810E943B04BC
:1015A000E881F9810488F589E02DCE01DF91CF91A2
:1015B000099460E070E0CB0108955F926F927F9292
:1015C0008F929F92AF92BF92CF92DF92EF92FF9253
:1015D0000F931F93CF93DF936C015A01522E7B011F
:1015E000D0E0C0E0622E712C88248394912CD60127
:1015F00014968C9190E09C0126193709C217D307E5
:1016000044F5D701ED917D01EE2319F10E2E000C6A
:10161000FF0BB097E00FF11F44918C1B9D0B0197BE
:10162000F40102C0EE0FFF1F8A95E2F7CF018A2175
:101630009B2121E0892B09F420E06C2F650DD60158
:10164000ED91FC910088F189E02DC6010995219664
:10165000CECFDF91CF911F910F91FF90EF90DF9050
:10166000CF90BF90AF909F908F907F906F905F9042
:101670000895CF92DF92EF92FF920F931F93CF9333
:10168000DF937C016B01042F10E0D0E0C0E0C017B5
:10169000D10781F0F601EC0FFD1F4491D701ED91C8
:1016A000FC910088F189E02D20E06C2FC70109959D
:1016B0002196EDCFDF91CF911F910F91FF90EF9089
:1016C000DF90CF900895242FDC01ED91FC910088EC
:1016D000F189E02D40E009949F92AF92BF92CF92A2
:1016E000DF92EF92FF920F931F93CF93DF937C01D2
:1016F000C1E0C42ED12C8AE0A82EB12CD7011496BB
:101700004C914C17F0F096010C2E02C035952795A0
:101710000A94E2F721704C1BCB01B5010E94102FF7
:10172000962ED72FD701ED91FC910680F781E02D01
:101730000CEA10E0682FC7010995692D7D2FCF5F56
:10174000DDCFDF91CF911F910F91FF90EF90DF9050
:10175000CF90BF90AF909F9008950F931F93E62F67
:10176000642FEF70E00FF12FF11D4491DC01ED913A
:10177000FC910088F189E02D1F910F910994362F7B
:10178000DC01ED91FC910480F581E02D60E02111F8
:1017900060E8642B432F0994242FDC0112963C91BE
:1017A0001297431740F4ED91FC91068CF78DE02DD4
:1017B000462F622F09940895EF92FF920F931F9383
:1017C000CF938C017C0188E0E80EF11CC0E0F701AA
:1017D00061917F014C2FC8010E94CC0BCF5FC031BB
:1017E000B1F7CF911F910F91FF90EF900895EF9275
:1017F000FF920F931F93CF93DF93362FE42FF0E0E8
:10180000EE0FFF1FEA51FE4FA591B49141E050E069
:1018100060E070E004C0440F551F661F771F3A95C3
:10182000D2F7142F042F0095EC017C0130E1E30E78
:10183000F11CFC013085302330873196EE15FF0511
:10184000C9F7F0E0E0E07D010E2E02C0F694E794C7
:101850000A94E2F7E0FE03C03885312B38873196D1
:101860002196E031F10579F7222321F0FC01268948
:10187000422B468BDF91CF911F910F91FF90EF90FC
:101880000C94DC0B262F41E050E060E070E004C0D7
:10189000440F551F661F771F2A95D2F74095FC010C
:1018A000BC01605F7F4F2085242320873196E61797
:1018B000F707C9F70C94DC0B0F931F93CF93DF93BB
:1018C000EC01E881F981048CF58DE02D60E4099547
:1018D000E881F9810688F789E02DCE010995E88134
:1018E000F981028CF38DE02D60ECCE01099510E0BA
:1018F00000E0E881F9818A8180171106A9F0A4F03F
:10190000028CF38DE02D60E0CE0109958B8189304A
:1019100040F0E881F981028CF38DE02D60E0CE018A
:1019200009950F5F1F4FE5CF008CF18DE02DCE01A3
:10193000DF91CF911F910F910994CF93DF93EC0129
:10194000E881F981048CF58DE02D611111C060E80A
:10195000483008F047E0642BCE010995FE01389627
:1019600068961192EC17FD07E1F7DF91CF9108958A
:1019700068E8EECF0F931F93CF93DF93EC01162F00
:10198000042F8DE891E09983888388E08B836D83B1
:101990004E836F8380E18A838C8361E0812F0E9474
:1019A000A80461E0802F0E94A80461E0812F0E94BA
:1019B000A80461E0812F0E943B0461E0802F0E9417
:1019C0003B0483EB91E099838883CE010E945C0CF9
:1019D00047E061E0CE01DF91CF911F910F910C9410
:1019E0009D0CCF93DF93EC010E947E0A60E08E8114
:1019F0000E943B0460E08D810E943B04E881F981F4
:101A00000488F589E02DCE01DF91CF910994CF9321
:101A1000DF93EC0161E08E810E943B0461E08D81E7
:101A20000E943B04E881F9810488F589E02DCE010C
:101A3000DF91CF910994CF93DF93EC0160E08D812A
:101A40000E943B0460E08E810E943B04E881F981A2
:101A50000488F589E02DCE01DF91CF910994DC0156
:101A600013965C911397242F26952695269530E0A2
:101A7000659F200D311D11241496ED91FC91E20F0C
:101A8000F31F2081477081E090E0A0E0B0E004C047
:101A9000880F991FAA1FBB1F4A95D2F780958223F2
:101AA00080830895CF92DF92EF92FF920F931F935E
:101AB000CF93DF9330E020E090E0F901E054FC4F59
:101AC000E4910E2E000CFF0B8E179F0709F039C012
:101AD000F901EF53FC4FC4902E533C4FF901249170
:101AE000F0E26F9F8001112400581C4FF12CE12C73
:101AF000C22FD0E0D12CF801849131964491F7E0C7
:101B0000FE1540F196010E2C02C0359527950A94DA
:101B1000E2F72170213049F5642F0E9450027FEFD7
:101B2000E71AF70A0E5F1F4F80E1E816F10419F774
:101B3000DF91CF911F910F91FF90EF90DF90CF90A9
:101B400008952D5F3F4F2E34310509F0B6CF20E0C8
:101B5000C12CC6CF970128503109BE0102C075952E
:101B600067952A95E2F79B01D4CF682F89EA97E021
:101B70000E942F0DD4CFEF92FF920F931F93CF931C
:101B8000DF93673008F034C030E020E090E0F901E6
:101B9000EA51FD4FE4910E2E000CFF0B8E179F07AC
:101BA00071F529513D4FF9012491FEE06F9F8001AD
:101BB0001124025E1C4FF12CE12CC22FD0E0F80161
:101BC0008491319644919E010E2C02C03595279543
:101BD0000A94E2F720FF1BC0642F0E945002FFEF1F
:101BE000EF1AFF0A0E5F1F4F87E0E816F10439F77E
:101BF000DF91CF911F910F91FF90EF9008952E5F8D
:101C00003F4F2833310509F0C2CF20E0CECF682FF7
:101C100089EA97E00E942F0DE2CFFF920F931F9366
:101C2000CF93DF93EC01062FF42E10E060E08E815D
:101C30000E943B04888199810E94AB0561E007FF07
:101C400060E088850E943B0461E08E810E943B0435
:101C5000888199810E94AB05000F1F5FF112E6CFCA
:101C6000DF91CF911F910F91FF9008951F93CF9314
:101C7000DF93182FCFEAD7E060E08C810E943B040D
:101C800044E060E8CE010E940D0E48E0612FCE01D5
:101C90000E940D0E61E08C810E943B0461E070E0C7
:101CA00080E090E0DF91CF911F910C944D06FF9260
:101CB0000F931F93CF93DF93EC01162F042FF22E77
:101CC00060E08C810E943B0443E060EACE010E9408
:101CD0000D0E612F660F660F46E0CE010E940D0EBD
:101CE00044E0F11001C048E0602FCE010E940D0ECB
:101CF00061E08C810E943B0461E070E080E090E054
:101D0000DF91CF911F910F91FF900C944D06CF93CF
:101D1000DF93EC01862F69834A8360E00E94A80468
:101D200060E08A810E94A80461E089810E943B04EE
:101D300061E08A810E943B041882DF91CF9108956F
:101D4000DC01FB0112962C91129784819581281752
:101D5000190641F491818081813A31F49D7F81E0BF
:101D6000913009F080E008958132E1F79B3029F449
:101D700082811F968C9381E008959A3099F7828131
:101D800050968C93F8CFDC01FB0188E4808389E4D2
:101D9000818384E482831D969C911D979F709F5B35
:101DA00093831D968D919C9124E0969587952A9515
:101DB000E1F78F708F5B848385E00895EF92FF9247
:101DC0000F931F93CF93DF93FB012081213889F577
:101DD0002381223271F5DC0112964C9124813581E8
:101DE0004217130631F58C01FC01C385D485F12C13
:101DF000E12C209791F04C815D816A817B818E81FD
:101E0000811180E80E940D088F3F980759F0E80E75
:101E1000F91E0990D881C02DECCF81E0D8011F9622
:101E20008C93C701DF91CF911F910F91FF90EF909D
:101E3000089590E080E0F6CFCF93DF93CDB7DEB783
:101E400069970FB6F894DEBF0FBECDBFFC01DB0172
:101E50008C918F5F8C939E012D5F3F4F8DE0D90158
:101E60001D928A95E9F729E0298384E08A8391E02D
:101E70009D8383E08E832A8721E22B879C879D8721
:101E80009F8722E2288B27E02B8B25E02C8B8E8BE3
:101E900020E430E0388F2F8B998F82818B8395855A
:101EA0008685998B8A8B838180688D8B49E150E090
:101EB000BE016F5F7F4F80E00E940D0869960FB6EC
:101EC000F894DEBF0FBECDBFDF91CF910895CF93C1
:101ED000DF938091CF03811167C081E08093C203BB
:101EE0008093C30328EC33E03093C5032093C403ED
:101EF0001092C7031092C60325E631E03093BF036A
:101F00002093BE031092CA031092C9031092CC030F
:101F10001092CB038093CD038093CE0381EC80930A
:101F2000C8030E94EE08FC0181819091C203482FF2
:101F3000490F5527551F483051059CF5A281B381A3
:101F4000109709F52EEB33E0338322832081209311
:101F5000C0038093C1038091C303820F80832091CB
:101F6000C403A22FB091C5038A2F821B8917C8F41E
:101F700081813D91C82FD0E0CE5FDE4F38838F5FE7
:101F80008183F2CFD90118962D913C911997211593
:101F90003105C1F72EEB33E019963C932E93189739
:101FA000D5CF81E08093CF038EEB93E0DF91CF918B
:101FB0000895DC011F962C911F97222351F0509613
:101FC000ED91FC915197309721F01F961C920B9642
:101FD00009940895CF93DF93DC0112968D919C9123
:101FE0001397FB01E81BF90BED01CE0FDF1F88856E
:101FF000082E000C990B4817190629F0488781E034
:102000001E968C931E973196E230F10568F4EA0F24
:10201000FB1F8085082E000C990B5817190621F01C
:10202000508781E01E968C93DF91CF910895DC015B
:102030005B962C915B97222351F05C96ED91FC917D
:102040005D97309721F05B961C9241960994089514
:10205000CF93DF93DC0112968D919C911397FB0136
:10206000E81BF90BED01CE0FDF1F8885082E000C51
:10207000990B4817190629F0488781E05A968C93E6
:102080005A973196E830F10568F4EA0FFB1F808516
:10209000082E000C990B5817190621F0508781E083
:1020A0005A968C93DF91CF910895DC0193962C91F1
:1020B0009397222351F09496ED91FC919597309748
:1020C00021F093961C92459609940895CF93DF933F
:1020D000DC0112968D919C911397FB01E81BF90B83
:1020E000ED01CE0FDF1F8885082E000C990B4817D5
:1020F000190629F0488781E092968C939297319641
:10210000EC30F10568F4EA0FFB1F8085082E000C07
:10211000990B5817190621F0508781E092968C93FD
:10212000DF91CF910895DC0153962C915397222390
:1021300051F05496ED91FC915597309721F05396BC
:102140001C920D9609940895CF93DF93DC011296AB
:102150008D919C911397FB01E81BF90BED01CE0FBC
:10216000DF1F8885082E000C990B4817190629F0E7
:10217000488781E052968C9352973196E430F1056E
:1021800068F4EA0FFB1F8085082E000C990B581786
:10219000190621F0508781E052968C93DF91CF9100
:1021A0000895DC011D962C911D97222351F01E9657
:1021B000ED91FC911F97309721F01D961C920A9685
:1021C00009940895FC018485882339F0F89480856A
:1021D0008287148681E0858778940895FC01828146
:1021E0009381681B790BDF01A60FB71F18968C919E
:1021F0001897082E000C990B4817190621F018960D
:102200004C9381E084876F3F7F4F51F48085082E87
:10221000000C990B5817190619F0508781E0848734
:102220000895CF93DF93EC01842FECEBF3E0208152
:1022300031813B832A83D183C08321E431E0398318
:1022400028837D836C834E8360E00E94A8048E8186
:102250000E948705AFEFB3E0A81BB90B2FEF3FEF4C
:102260000E94312F2FEF33E040E050E00E94622EB9
:10227000CA01B9010E94C02D0E941E3078876F8369
:102280000E949F076D87DF91CF91089561E089E0FB
:102290000E943B0468EC70E080E090E00E944D06F4
:1022A00060E089E00E943B0468EC70E080E090E030
:1022B0000E944D0661E089E00E943B0468EC70E0FA
:1022C00080E090E00E944D0660E089E00E943B04BF
:1022D00068EC70E080E090E00C944D0682E10E9492
:1022E00087059093F2038093F10383E10E948705B1
:1022F0009093F0038093EF0384E10E94870590930D
:10230000EE038093ED0308950F931F93CF93C0E0E6
:10231000883823E1920728F0C2E080329E4408F416
:10232000C1E00C2F10E0809100019091010108178D
:10233000190709F444C0C11120C040E060E08BEDF2
:1023400096E00E949D0C40E060E083EC96E00E94E5
:102350009D0C40E060E08BEA96E00E949D0C40E01E
:1023600060E083EF96E00E949D0C70E060E08CE1FD
:10237000CF911F910F910C94E40466E970E08CE119
:102380000E94E4044C2F61E08BED96E00E949D0CCE
:102390004C2F61E083EC96E00E949D0C4C2F61E095
:1023A0008BEA96E00E949D0C41E04C0F61E083EFC8
:1023B00096E00E949D0C1093010100930001CF91C3
:1023C0001F910F910895CF93DF93DC01FB01828170
:1023D00012968C931297838113968C931397848112
:1023E00014968C931497858115968C9315978681F6
:1023F00016968C931697878117968C931797ED01F5
:1024000028963896CD01489621912993C817D90767
:10241000D9F7CD01DF91CF910895AF92BF92CF92BE
:10242000DF92EF92FF920F931F93CF93DF93CDB77D
:10243000DEB768970FB6F894DEBF0FBECDBF6C0154
:1024400049E168E1CE0101960E94BA0CC6010197EC
:10245000029770F41092E4051092CE051092760562
:10246000109266056BED76E0CE0101960E94E311B5
:10247000C6010397029708F088C01092B805109221
:10248000A205109256051092460563EC76E0CE0147
:1024900001960E94E311E3E4F5E0A3E5B5E00CE961
:1024A00015E022EBE22E25E0F22EBB24B3948C91B2
:1024B0008A3309F0B12CA0804091000161E0CE0187
:1024C00001960E949D0C2B2DF701408170E060E089
:1024D000CE0101960E94F70B2B2DF701418161E09F
:1024E00070E0CE0101960E94F70B2B2DF70142817F
:1024F00062E070E0CE0101960E94F70B20E0F70148
:10250000438163E070E0CE0101960E94F70BF5E095
:10251000CF16D10449F1FF24F3948AE3A812F12CD9
:102520002F2DF801408164E070E0CE0101960E94F9
:10253000F70B2F2DF801418165E070E0CE01019687
:102540000E94F70B2F2DF801428166E070E0CE016A
:1025500001960E94F70B20E0F801438167E070E0EC
:10256000CE0101960E94F70B68960FB6F894DEBF75
:102570000FBECDBFDF91CF911F910F91FF90EF90D4
:10258000DF90CF90BF90AF90089585E0C816D1043A
:10259000A9F410928C05109236056BEA76E0CE0114
:1025A00001960E94E311F0E0E0E0A3E3B5E010E063
:1025B00000E096E8E92E95E0F92E77CFE3E6F5E026
:1025C000A3E7B5E008EC15E08EEDE82E85E0F82EE7
:1025D0006CCF81E090E00C940D1282E090E00C94BE
:1025E0000D1283E090E00C940D1284E090E00C94C6
:1025F0000D1285E090E00C940D1285E090E00C94B3
:102600000D1284E090E00C940D1283E090E00C94A5
:102610000D1282E090E00C940D1281E090E00C9499
:102620000D12FC01618161341CF082E00C947F0684
:1026300080812AE030E0813331F024E130E08233E0
:1026400011F030E020E0862F660F990BC097820FC3
:10265000931F8531910524F462E070E00C940C071F
:102660000895FC01618161341CF081E00C947F06C7
:1026700080812AE030E0813331F024E130E08233A0
:1026800011F030E020E0862F660F990BC097820F83
:10269000931F8531910524F461E070E00C940C07E0
:1026A00008958D3D954020F464E582E00C947F060A
:1026B0000895813B944020F464E581E00C947F060A
:1026C0000895AF92BF92DF92EF92FF920F931F9304
:1026D000CF93DF9314E006E0D5E0C1E072E0F72E7F
:1026E000E3E0EE2E87EB94E00E94CC09892B09F4FD
:1026F000FDC087EB94E00E948A09D82E20917A08C9
:10270000233009F484C0F8F4213009F45FC022308A
:1027100009F464C0B5E5DB12E6C0809181088F5FE3
:1027200080938108809181088430E1F6C0937A0813
:10273000109281088091BA039091BB039093830813
:1027400080938208CFCF253009F478C008F467C0A1
:10275000263001F720917F0830918008982F882734
:10276000822B932B9093800880937F0880917D0823
:1027700090917E08019790937E0880937D08A090A9
:102780008208B0908308A114B10409F499C0809123
:102790007B0890917C08D50114962D913C9115975A
:1027A0002817390708F05BC0ED91FC910280F38196
:1027B000E02DC5010995E0918208F091830886819A
:1027C00097819093830880938208D9CF992790931B
:1027D0007C0880937B08F0927A089CCF20917B083C
:1027E00030917C08982F8827822B932B90937C081C
:1027F00080937B0880917B0890917C088535954576
:1028000019F0E0927A0886CF10927A0883CF992740
:1028100090937E0880937D0810937A087BCF209157
:102820007D0830917E08982F8827822B932B9093D8
:102830007E0880937D08D0937A086CCF9927909377
:10284000800880937F0880917D0890917E08019791
:1028500090937E0880937D0800937A085BCFF50102
:102860008281938120917B0830917C082817390759
:1028700038F120917B0830917C0828173907C8F07F
:1028800080917B0890917C08248135812817390735
:1028900080F040917F085091800860917B08709192
:1028A0007C080190F081E02D0190F081E02DC501C0
:1028B0000995D5011696AD90BC90A114B10479F696
:1028C00080917B0890917C08029690937C0880937D
:1028D0007B0880917D0890917E08892B09F0ABCF11
:1028E000C0937A0817CF109281081CCFC091BC0307
:1028F000D091BD032097B9F0E881F9810190F08172
:10290000E02DCE0109952A813B818091BC039091F5
:10291000BD03232B11F49B838A830A80DB81C02DA6
:10292000C817D90749F7C091BA03D091BB032097C4
:1029300059F0E881F9810480F581E02DCE010995F7
:102940000E80DF81C02DF3CFDF91CF911F910F91CA
:10295000FF90EF90DF90BF90AF900895DC011A9642
:102960008C911A9780FF21C01E96ED91FC911F97C4
:102970003097D9F0F89418968D919C9119971A96E2
:102980002C911A972E7F1A962C931A9778941B964F
:102990002D913C911C97822393231D962C9102C06C
:1029A000969587952A95E2F709940895FC0182850A
:1029B000811105C05187408785E0828705C08085E9
:1029C000918584179507B1F708950895CF93DF9304
:1029D000DC0187E391E011969C938E9313967C9390
:1029E0006E9312974E7F15965C934E931497E091D9
:1029F000BA03F091BB03CAEBD3E0309759F4B0931C
:102A0000BB03A093BA0317961C921E921697DF91F0
:102A1000CF910895848195818417950740F04817D8
:102A2000590761F4828193818617970738F4EF0183
:102A300026960680F781E02D309761F71796FC9374
:102A4000EE931697B983A883E2CF0F931F93CF938A
:102A5000DF93EC018A01AB014F5F5F4F0E94E614E8
:102A60008BE591E09983888319861B861C861D86D9
:102A70001F870E87DF91CF911F910F9108950895C1
:102A80004F925F926F927F928F929F92AF92BF927E
:102A9000CF92DF92EF92FF920F931F93CF93DF932A
:102AA000EC01062F2C89822F90E0B0E0A0E0062EEA
:102AB00004C0B695A795979587950A94D2F7182FD5
:102AC00011708E899D899823C82ED12CC094D094E2
:102AD00030E0C222D3220D2C000CEE08FF08C92AD8
:102AE00004C0F694E794D794C7946A95D2F7C0FED1
:102AF0000EC090E0B0E0A0E0002E04C0B695A7950F
:102B0000979587950A94D2F7182F117089C044239E
:102B100009F46EC0F8840E9428064B015C01809184
:102B20008F048111AEC081E080938F048093910463
:102B30009FEF90938E041092B3041092B20480938E
:102B4000B4048091B404FF0CF82AF092B40480918C
:102B50009004813009F0F0C0109290040E94280681
:102B60006B017C018091B4048093BB00809142048E
:102B700090914304A0914404B0914504892B8A2B81
:102B80008B2BA1F00E942806809042049090430471
:102B9000A0904404B09045046C197D098E099F09EA
:102BA00086169706A806B90608F48CC08091BC006A
:102BB00083FDD8CF85EC8093BC000E9428066B0172
:102BC0007C0180918F04813009F4B8C08091B304F6
:102BD0008111D6C08091B304E2E9F4E0ADE1B4E044
:102BE00090E0981709F473C021912D939F5FF9CF5E
:102BF0000E949F07AB01BC018AA19BA1092E000C7A
:102C0000AA0BBB0BC98CDA8CEB8CFC8C8C0D9D1D3C
:102C1000AE1DBF1D84179507A607B70708F47ACF26
:102C20008D8990E0B0E0A0E0002E04C0B695A79595
:102C3000979587950A94D2F780FFA4C0113009F0C8
:102C4000A1C081E090E0A0E0B0E004C0880F991F2F
:102C5000AA1FBB1F0A95D2F72E8982278E8B812F40
:102C6000DF91CF911F910F91FF90EF90DF90CF9068
:102C7000BF90AF909F908F907F906F905F904F909C
:102C800008958091420490914304A0914404B0912E
:102C90004504892B8A2B8B2B09F441CF0E942806EF
:102CA0004090420450904304609044047090450466
:102CB000681979098A099B09461657066806790634
:102CC00008F02DCF809141040E94870480E010928B
:102CD0003E0480933D040E949F07698F7A8F8B8FFB
:102CE0009C8F8B859C85DC01ED91FC910084F185A6
:102CF000E02D0995892B09F493CF8B859C85DC0108
:102D0000ED91FC910284F385E02D0995AC018D894C
:102D1000842359F49A013327209530958C8990E0CB
:102D200028233923232B09F47BCF9B8990958E8907
:102D30008923842B8E8BDDCE85EE3DCF809142049E
:102D400090914304A0914404B0914504892B8A2BAF
:102D50008B2B09F436CF0E94280680904204909075
:102D60004304A0904404B09045046C197D098E0979
:102D70009F0986169706A806B90608F022CFA2CFAB
:102D800081E02ACF8C8990E0B0E0A0E0002E04C062
:102D9000B695A795979587950A94D2F780FF03C0BB
:102DA000112309F44ECF8D8D90E0B0E0A0E004C077
:102DB000B695A795979587950A95D2F780FF4FCF3F
:102DC00011E04DCFFC018685882349F0F894808579
:102DD000918594878387168681E087877894089504
:102DE000CF93DF93EC018A8D882371F0F894DE0194
:102DF0005196FE01389688E001900D928A95E1F790
:102E00001A8E81E08B8F7894DF91CF910895CF93C4
:102E1000DF93EC018AA1882371F0F894DE015596C6
:102E2000FE0138968CE001900D928A95E1F71AA286
:102E300081E08BA37894DF91CF910895CF93DF93B6
:102E4000EC018A89882371F0F894DE011D96FE0159
:102E5000389684E001900D928A95E1F71A8A81E014
:102E60008B8B7894DF91CF9108950F931F93CF931D
:102E7000DF93EC018A01AB014C5F5F4F0E94E614C7
:102E800081E591E09983888343E050E060E270E05F
:102E9000CE0108960E943D321C86198A1A8A1B8A26
:102EA0001D8B0C8BDF91CF911F910F9108950F9384
:102EB0001F93CF93DF93EC018A01AB014E5F5F4F0D
:102EC0000E94E61487E491E09983888380E28887F2
:102ED0001A861D861E861F86198B088BDF91CF915F
:102EE0001F910F910895FC0101900020E9F731979F
:102EF000AF01481B590BBC0187EB94E00C943309DC
:102F00004F925F926F927F928F929F92AF92BF92F9
:102F1000CF92DF92EF92FF920F931F93CF93DF93A5
:102F2000CDB7DEB7A1970FB6F894DEBF0FBECDBF09
:102F3000F12C9AE0492E512C612C712C8091AC0718
:102F4000F81608F08AC0EF2CEE0CEE0CEE0CCF2C2D
:102F5000D12C560183E0AA0CBB1C8A95E1F710E046
:102F600000E08091AB07883069F52091AC0730E034
:102F7000E091AD07F091AE07EC0DFD1D88E090E00B
:102F800040E0440F608170E0002E02C075956795A7
:102F90000A94E2F76170460F0197E20FF31F009762
:102FA00081F7602F6A0D660F20E08091A90790914C
:102FB000AA070E94570E0F5F1F4F0830110589F6B0
:102FC000F394BCCF843011F52091AC0730E0E09150
:102FD000AD07F091AE07EC0DFD1D84E090E040E000
:102FE000440F608170E0002E02C0759567950A94C9
:102FF000E2F76170460F0197E20FF31F009781F728
:103000004295407F21E06E2D600FCFCF8EE094E09F
:103010000E945F092091AB0730E050E040E019A228
:103020004E0181E2880E911CCA01B901A3019201EF
:103030000E94CB2E605DF40162934F012115310592
:103040004105510589F7309719F0CF010E94731798
:1030500089E692E00E947317AECFA1960FB6F8945E
:10306000DEBF0FBECDBFDF91CF911F910F91FF90BB
:10307000EF90DF90CF90BF90AF909F908F907F9018
:103080006F905F904F900895EF92FF920F931F9370
:10309000CF93DF9310E000E08091AB07801711061B
:1030A000E1F0DCF0C0E0F12CE12C8091AC078E1552
:1030B0001F0481F07CF0D8E0DC0F4C2F602F89EAF0
:1030C00097E00E942F0DCF5FDC13F7CF8FEFE81A48
:1030D000F80AEBCF0F5F1F4FDFCFDF91CF911F912A
:1030E0000F91FF90EF900C94801761E0FC018181BB
:1030F0000E94520D0C948017CF93DF93FC01248122
:103100002735E9F0EC0160E087810E94BB0D61E0AA
:103110008E810E94BB0D62E08D810E94BB0D63E039
:103120008C810E94BB0D64E08B810E94BB0D65E029
:103130008A810E94BB0D66E089810E94BB0DDF91F0
:10314000CF910C948017CF93DF93EC010E946E2DEA
:103150008A30910584F187FD20C060E08A3024F434
:10316000805D0E94520D19C0853114F088E7F9CFB7
:103170008431B9F480E30E94520D60E080E00E9447
:10318000500260E081E00E94500261E081E00E9414
:10319000500260E083E00E945002DF91CF910C94D6
:1031A00080178A5D0E94520D60E081E00E9450020B
:1031B00060E082E0F0CF60E08981D3CFCF93DF93EE
:1031C000EB01009711F00E94731760E287EB94E027
:1031D0000E944909209719F0CE010E9473176AE0F6
:1031E00087EB94E00E94490981E0DF91CF91089537
:1031F0000F931F93CF93DF93EC018B01B801CE01A6
:103200000E94DE188823D1F381E0DF91CF911F91D6
:103210000F9108950F931F93E62F00919F07109130
:10322000A0072091A1073091A20704C036952795E9
:10323000179507956A95D2F7F02FF17040919B078B
:1032400050919C0760919D0770919E0704C07695F0
:10325000679557954795EA95D2F74170F41751F065
:1032600063E073E000FF02C06FE673E01F910F910F
:103270000C94F8181F910F9108958F929F92AF921E
:10328000BF92CF92DF92EF92FF920F931F93CF9353
:10329000DF93CDB7DEB7ADB6BEB6809194072DB73C
:1032A0003EB7281B31090FB6F8943EBF0FBE2DBFA5
:1032B0008DB79EB701966C01E0906307F12C809169
:1032C0005F0790916007D601FC019F01281B390B15
:1032D0002E153F051CF421912D93F7CF80916407A3
:1032E000882359F180915B0790915C0728E097FD56
:1032F00009C068E671E00E94102F6DE270E00E9444
:10330000102F262F80915D0790915E0768E097FD52
:1033100008C068E671E00E94102F6DE270E00E9424
:10332000102FF601EE0DFF1D90E1699FB0011124F1
:10333000262B2083F70131967F0186010E0D1F1D7C
:103340002091690730916A0740916707509168079B
:1033500060914507709146078091650781700E94D2
:103360007102E80EF91E86010E0D1F1D20916D07DA
:1033700030916E0740916B0750916C076091470741
:103380007091480780916507869581700E9471024F
:10339000E80EF91E86010E0D1F1D20917107309158
:1033A000720740916F0750917007609149077091C3
:1033B0004A078091650782FB882780F90E94710285
:1033C000E80EF91E86010E0D1F1D20917507309124
:1033D0007607409173075091740760914B07709185
:1033E0004C078091650783FB882780F90E94710252
:1033F000E80EF91E86010E0D1F1D209179073091F0
:103400007A07409177075091780760914D07709146
:103410004E0780916507829581700E947102E80EC7
:10342000F91E86010E0D1F1D20917D0730917E072C
:1034300040917B0750917C0760914F077091500736
:103440008091650785FB882780F90E947102E80E4C
:10345000F91E86010E0D1F1D2091810730918207F4
:1034600040917F07509180076091530770915407F6
:103470008091660781700E947102E80EF91E860134
:103480000E0D1F1D209185073091860740918307FF
:10349000509184076091510770915207809166079F
:1034A000869581700E947102E80EF91E86010E0D4C
:1034B0001F1D2091890730918A07409187075091FD
:1034C000880760915507709156078091660782FBC7
:1034D000882780F90E947102E80EF91E86010E0D00
:1034E0001F1D20918D0730918E0740918B075091C1
:1034F0008C0760915707709158078091660783FB8E
:10350000882780F90E9471028E0D9F1D8601080F89
:10351000191F209191073091920740918F07509188
:1035200090076091590770915A07809166078295BC
:1035300081700E9471020E94670F4C0140919407B4
:103540008091930750E07A01FFEFEF1AFF0A2DB741
:103550003EB72E193F090FB6F8943EBF0FBE2DBFE0
:103560000DB71EB70F5F1F4FEDB7FEB78183B601D2
:10357000C80101960E943432F4018381A701B80189
:1035800080640E9444080FB6F894BEBE0FBEADBE64
:10359000DF91CF911F910F91FF90EF90DF90CF902F
:1035A000BF90AF909F908F90089590916207891778
:1035B00000F5E82FE695E695E69520915F073091B6
:1035C0006007E20FF32FF11D282F277081E090E0B4
:1035D000A0E0B0E004C0880F991FAA1FBB1F2A9566
:1035E000D2F72081822B80838091610781110C9416
:1035F0003D19089590916207891708F5E82FE6951F
:10360000E695E69520915F0730916007E20FF32F72
:10361000F11D282F277081E090E0A0E0B0E004C009
:10362000880F991FAA1FBB1F2A95D2F780959081FA
:10363000892380838091610781110C943D1908953D
:103640000F931F93CF93DF930E94B60500919B07C2
:1036500010919C0720919D0730919E07601771077C
:103660008207930709F45AC0D0E0C0E080919F0719
:103670009091A007A091A107B091A2070C2E04C0C1
:10368000B695A795979587950A94D2F7282F21701C
:1036900040919B0750919C0760919D0770919E07F8
:1036A0000C2E04C076956795579547950A94D2F7E6
:1036B0004170241771F181709927AA27BB279E01B9
:1036C0002A5131092230310570F5892B8A2B8B2B39
:1036D000C9F08C2F0E94FA1A80919F079091A00741
:1036E000A091A107B091A2070C2E04C0B695A79592
:1036F000979587950A94D2F780FF08C081E20E94CF
:10370000D51A07C08C2F0E94D51AE6CF81E20E94FD
:10371000FA1A2196CE31D10509F0A8CFDF91CF91C9
:103720001F910F910895892B8A2B8B2B11F08C2FD1
:10373000EECF8C2FE4CF85ED8093BC0080914204C6
:1037400090914304A0914404B09145040796A11DB3
:10375000B11D23E0B695A795979587952A95D1F742
:103760002091BC0024FD03C010928F040895409165
:103770004204509143046091440470914504452BE8
:10378000462B472B69F30097A105B10541F025E3CE
:103790002A95F1F700000197A109B109E1CF8091C5
:1037A00041040C9487040E942F32FC018081918196
:1037B000009711F00C94E9300895EF92FF920F9367
:1037C0001F93CF93DF93EC017B01198218821B8238
:1037D0001A821D821C82FB0101900020E9F73197BB
:1037E0008F01061B170BB8016F5F7F4F90E080E0E1
:1037F0000E9472310097B9F0998388831B830A83F2
:103800002C813D81232B11F4FC0110821D830C833C
:10381000B70188819981DF91CF911F910F91FF901E
:10382000EF900C94443288819981009711F00E94A6
:10383000E930198218821D821C821B821A82DF9154
:10384000CF911F910F91FF90EF900895FF920F93EA
:103850001F93CF93DF9300D000D000D0CDB7DEB759
:10386000F82E61307105E1F58091230190912401DA
:10387000892B79F41EE3F1101DE3812F0E94D51AE4
:103880006EE170E080E090E00E944D06812F0E9482
:10389000FA1A0CE612E06EE972E0F11002C062EA78
:1038A00072E0CE0101960E94DD1B80912301909170
:1038B0002401019729F469817A81C8010E94F818CE
:1038C000CE0101960E94D51B26960FB6F894DEBF56
:1038D0000FBECDBFDF91CF911F910F91FF90089543
:1038E00062307105B1F6809123019091240105E8C1
:1038F00012E0892B81F610E4FF2009F4BECF1FE30C
:10390000BCCFFF920F931F93CF93DF93EC018B01FA
:10391000FB01F0800E944C2EF81621F06F2DCE0195
:103920000E94542EF801F1802196CE010E944C2E67
:10393000F81621F06F2DCE010E94542EC801DF91A0
:10394000CF911F910F91FF900895CF92DF92EF9248
:10395000FF920F931F93CF93DF9300D000D000D03E
:10396000CDB7DEB78C010E949F07F8018585F62F41
:10397000F81BFF3008F46EC0F801658786810E944D
:103980008705F801C184D284E384F484AFEFB3E007
:10399000A81BB90B21E030E04FEF5FEF0E948C2EA7
:1039A0002FEF33E040E050E00E94622E21503109B9
:1039B0004F4F5F4FB90190E080E00E94BE2DA701FC
:1039C00096010E94382F20E030E040EA50E40E9447
:1039D000A52FA70196010E94392FF80161877287F0
:1039E000838794870E941E306B01CB01F8012781E9
:1039F00030856217730730F4A9014C195D09413015
:103A00005140A0F428173907A0F5A601421B530B1B
:103A10004130514058F48115FFEF9F0738F48F3F34
:103A2000910509F0B8F482179307A0F44AE0BE01AB
:103A30006F5F7F4FC6010E94942DBE016F5F7F4F65
:103A4000F801848195810E94DE18882319F0F8011D
:103A5000D086C78226960FB6F894DEBF0FBECDBFC4
:103A6000DF91CF911F910F91FF90EF90DF90CF905A
:103A7000089581154FEF940790F2ECCF1F920F92AB
:103A80000FB60F9211242F933F934F935F936F9331
:103A90007F938F939F93AF93BF93EF93FF93809107
:103AA000B900887F803609F44AC0F0F5883209F4FD
:103AB000A7C018F5803109F49BC0B8F4882309F435
:103AC000F9C0883009F494C0FF91EF91BF91AF9194
:103AD0009F918F917F916F915F914F913F912F9126
:103AE0000F900FBE0F901F901895883109F488C071
:103AF000803251F780938E0414C0803409F49DC045
:103B000040F48033B9F38833F9F680938E0485EC62
:103B1000B0C0803509F485C0883509F496C0883472
:103B200099F60E949B1BD0CF883909F48CC038F5D8
:103B3000883729F050F4883611F0803729F683E071
:103B400080938F0410928D0457C0883809F47BC08D
:103B5000803919F0803809F0B7CF80918D04803218
:103B600008F071C0E0918D0481E08E0F80938D0488
:103B70008091BB00F0E0E359FB4F80833DC0803B68
:103B800039F0E0F4803A09F479C0883A09F09CCF22
:103B900084E080938F0410926A0410926904E0918B
:103BA0006704F091680409958091690481110FC040
:103BB00081E0809369041092470409C0803C09F4B5
:103BC000A6CF883C09F4A3CF883B09F07DCFE091D4
:103BD0006A0481E08E0F80936A04F0E0E95BFB4F9A
:103BE00080818093BB0090916A048091690429C010
:103BF0008091B4048093BB0085EC8093BC0064CFBB
:103C00009091B3048091B204981758F5E091B304F1
:103C100081E08E0F8093B304F0E0EE56FB4F80817D
:103C2000E9CFE091B30481E08E0F8093B3048091DB
:103C3000BB00F0E0EE56FB4F80839091B30480917F
:103C4000B2049817C8F285E8D8CFE091B30481E0B8
:103C50008E0F8093B3048091BB00F0E0EE56FB4FD3
:103C600080838091910481115CCF81E080939004E6
:103C700084EA8093BC0010928F0426CF85EC809359
:103C8000BC0010928F0480918D04803230F4E0915A
:103C90008D04F0E0E359FB4F108260918D0470E0D9
:103CA000E0916B04F0916C048DE694E0099510921C
:103CB0008D040ACF10928E0434CF1F920F920FB64C
:103CC0000F9211242F933F938F939F93AF93BF93A2
:103CD0008091F4039091F503A091F603B091F7035E
:103CE0003091F30323E0230F2D3758F50196A11DE2
:103CF000B11D2093F3038093F4039093F503A093F5
:103D0000F603B093F7038091F8039091F903A09123
:103D1000FA03B091FB030196A11DB11D8093F80336
:103D20009093F903A093FA03B093FB03BF91AF9173
:103D30009F918F913F912F910F900FBE0F901F90E9
:103D4000189526E8230F0296A11DB11DD2CF1F9210
:103D50000F920FB60F9211242F933F934F935F93BF
:103D60006F937F938F939F93AF93BF93EF93FF9343
:103D7000E0911D01F0911E010995FF91EF91BF9116
:103D8000AF919F918F917F916F915F914F913F91F3
:103D90002F910F900FBE0F901F9018951F920F92AA
:103DA0000FB60F9211242F933F934F935F936F930E
:103DB0007F938F939F93AF93BF93EF93FF93E09184
:103DC0001B01F0911C010995FF91EF91BF91AF91FB
:103DD0009F918F917F916F915F914F913F912F9123
:103DE0000F900FBE0F901F9018951F920F920FB655
:103DF0000F9211242F933F934F935F936F937F9371
:103E00008F939F93AF93BF93EF93FF93E09119012B
:103E1000F0911A010995FF91EF91BF91AF919F9198
:103E20008F917F916F915F914F913F912F910F9063
:103E30000FBE0F901F9018951F920F920FB60F9202
:103E400011242F933F934F935F936F937F938F939F
:103E50009F93AF93BF93EF93FF93E0911701F0917E
:103E600018010995FF91EF91BF91AF919F918F91AB
:103E70007F916F915F914F913F912F910F900FBE66
:103E80000F901F9018951F920F920FB60F9211244A
:103E90002F933F934F935F936F937F938F939F9352
:103EA000AF93BF93EF93FF93E0911501F09116014B
:103EB0000995FF91EF91BF91AF919F918F917F9164
:103EC0006F915F914F913F912F910F900FBE0F9087
:103ED0001F9018951F920F920FB60F9211248F9377
:103EE0009F938091E1009091E100937F9093E10096
:103EF00083FF0FC01092E90091E09093EB001092C5
:103F0000EC0092E39093ED001092B60498E0909349
:103F1000F00082FF22C093E09093E9009091F200BC
:103F2000992319F09AE39093E8009091E80399237C
:103F300041F09091E80391509093E803911101C0F2
:103F40005D9A9091B504992341F09091B5049150F8
:103F50009093B504911101C0289A84FF18C08091F4
:103F6000E2008E7E81608093E2008091E1008F7E8E
:103F70008093E1008091E9038E7E80618093E90364
:103F80009F918F910F900FBE0F901F90189580FFFB
:103F9000F7CF8091E2008E7E80618093E200809175
:103FA000E1008E7E8093E1008091E9038E7E816046
:103FB000E5CF1F920F920FB60F921124CF92DF928E
:103FC000EF92FF920F931F932F933F934F935F9323
:103FD0006F937F938F939F93AF93BF93EF93FF93D1
:103FE000CF93DF93CDB7DEB76C97DEBFCDBF109216
:103FF000E9008091E80083FF25C068E0CE01459686
:104000000E94DE0882EF8093E8008D8987FF39C027
:104010009091E80090FFFCCF982F907609F034C182
:104020009E894F89588D2F89F88C911131C0803825
:1040300061F58091EA038093F1001092F1008EEF18
:104040008093E8006C960FB6F894DEBF0FBECDBF2C
:10405000DF91CF91FF91EF91BF91AF919F918F91A0
:104060007F916F915F914F913F912F911F910F9190
:10407000FF90EF90DF90CF900F900FBE0F901F90AA
:1040800018959EEF9093E800C7CF1092F100D5CF1E
:10409000913059F48111D3CF4130510581F680918F
:1040A000EA038D7F8093EA03CACF933049F48111EC
:1040B000C6CF4130510519F68091EA038260F2CFF4
:1040C000953041F48091E80080FFFCCF2068209378
:1040D000E300B5CF963009F0A9C00B8D1C8D22E00E
:1040E0001092E9001092E6031092E503F2122EC03E
:1040F0001092E4031092E3030E9402091F8299E0E8
:104100009983FA8291E09E8390EA98879AEF998743
:104110002091E5033091E603275F3F4F3C832B83DB
:104120008D831092E9001092E6031092E50310933C
:10413000E4030093E30349E050E0BE016F5F7F4F6B
:1041400080E00E940D080E94020979CF1093E403D9
:104150000093E3030E94EE08DC0112960D911C917E
:104160000115110509F451C1D801ED91FC910480AC
:10417000F581E02DBE016B5E7F4FC8010995009768
:1041800009F03EC1F80100851185EACFF3E0FF1286
:104190000EC08F89882309F440C0823061F440E862
:1041A0006BE08DE191E00E94DA07811148CF81E256
:1041B0008093EB0047CF813029F440E868E084E148
:1041C00091E0F1CF833099F70E94EE08DC0112965E
:1041D000ED90FC908E010F5F1F4F6801E114F10418
:1041E00079F0D701ED91FC910680F781E02DB801BF
:1041F000C7010995080F111DF701E084F184EECF86
:10420000D8011C92F60101900020E9F73197BF0117
:104210006C197D0940E0C601C6CF6EEF70E0FB016E
:10422000449150E080E80E940D0809CF973009F4CE
:10423000BECF983021F481E08093F10000CF993017
:1042400009F0FDCE837009F0B2CFE3E0F1E081E048
:1042500031E096E32191222371F08093E9003093BD
:10426000EB00DF0111972C912093EC009093ED006F
:104270008F5F873079F78EE78093EA001092EA002B
:104280008F898093B604DBCE8B8D9C8D1092E900D4
:104290001092E6031092E5039093E4038093E30306
:1042A000898D811192C08E899D89913A49F481321C
:1042B00009F07DCF47E050E06DE071E080E0B3CFE2
:1042C000913209F074CF833269F48F89988DB0E010
:1042D000A0E08093090190930A01A0930B01B09391
:1042E0000C01ADCE803269F48091E80082FFFCCFF2
:1042F00067E08DE091E00E94DE088BEF8093E8009C
:104300009ECE823209F09BCE8F8980931401EEEF0E
:10431000FFE7859194918B3F9C4D51F1E0E0F8E0EF
:1043200080910D0190910E01A0910F01B0911001AB
:10433000803B9440A105B105F1F48091140180FD0A
:104340001AC0EE3F8AE0F80789F587E797E791837F
:104350008083809160008093E70388E19BE00FB643
:10436000F894A895809360000FBE9093600067CE8C
:10437000EEEFFAE0D5CF808191818737974709F03A
:104380005ECEA895809160008861809360008091E6
:10439000E70380936000EE3F2AE0F20789F0809106
:1043A000FE0A9091FF0A9183808349CE808191819A
:1043B0008737980751F29093FF0A8093FE0AC5CF82
:1043C0001092FF0A1092FE0A3ACE0E94EE08DC011B
:1043D00012960D911C910115110509F4E8CED80132
:1043E000ED91FC910190F081E02DBE016B5E7F4F5D
:1043F000C8010995811123CEF80100851185EBCF05
:10440000181619060CF41BCED2CEF1E0FF12BECE68
:1044100062E071E004CF6F927F928F929F92AF9291
:10442000BF92CF92DF92EF92FF920F931F93CF93A1
:10443000DF93CDB7DEB7C659D1090FB6F894DEBF0A
:104440000FBECDBF10920A051092090588EE93E0C9
:10445000A0E0B0E080930B0590930C05A0930D05B0
:10446000B0930E052BE232E0309308052093070548
:104470001092BA041092B9048093BB049093BC04C8
:10448000A093BD04B093BE048DE392E09093B80472
:104490008093B7048FEF9FEF9093C4048093C3047D
:1044A0001092C4081092C5081092C6081092C7084E
:1044B00010927A081092810882E08093FE0783E0D0
:1044C0008093FF0788E0EBE2F1E0A0E0B8E0019024
:1044D0000D928A95E1F7F0E08F2EF8E09F2EAEEF77
:1044E000CA2EA7E0DA2E7601B3E06B2E712C62E0C3
:1044F000D7018D917D010E94A80456010EEF17E0AF
:1045000061E0F80182810E94A80461E0D80112965E
:104510008C910E943B0460E0F80182810E94A80413
:10452000D5011B967C926E921A970F5F1F4FB7E0D2
:10453000AB0EB11CE8E006301E0711F7F8E3CF0E12
:10454000D11C8E149F0499F6109279081092780865
:1045500027EDA22E27E0B22E02E00093E00733E021
:10456000F32EF092E1071092E4070093E507109212
:10457000E7071092E6071092E8071092E9071092F9
:10458000EA071092EB071092EC071092ED071092D9
:10459000EE071092EF071092F0071092F1071092B9
:1045A000F2071092F3071092F4071092F507109299
:1045B000F6071092F8071092F7078AE090E09093C0
:1045C000FA078093F9074BE4E42EE092FB0781EEB3
:1045D0008093FC071092FD0787E095E09093E30736
:1045E0008093E20780E28093DF0740E061E081ECA6
:1045F00097E00E94870EB092C507A092C40711E011
:104600001093C6071092C70756E2C52E5CE1D52E5F
:10461000D092C907C092C80781E090E09093CB0781
:104620008093CA0742E063E08CEC97E00E94870E1B
:10463000B092D007A092CF07F092D1070093D20793
:10464000D092D407C092D30782E090E09093D6072F
:104650008093D50780E190E09093B4078093B307EF
:104660008EE090E09093B6078093B5071092B8075C
:104670001092B7071092BA071092B9071092BB07B1
:104680001092BD071092BC071092BE071092BF0790
:104690001092C0078FEA97E09093AA078093A9072A
:1046A00084E08093AB07F092AC0766EA72E083EA9D
:1046B00097E00E94DD1B80E290E090939907809341
:1046C000980725E020939A0710929B0710929C0769
:1046D00010929D0710929E0710929F071092A007BC
:1046E0001092A1071092A2071092600710925F0724
:1046F0001092630710926807109267078FEF93E09C
:1047000090936A078093690710926C0710926B0769
:1047100090936E0780936D071092700710926F0749
:104720009093720780937107109274071092730729
:104730009093760780937507109278071092770709
:1047400090937A078093790710927C0710927B07E9
:1047500090937E0780937D071092800710927F07C9
:1047600090938207809381071092840710928307A9
:104770009093860780938507109288071092870789
:1047800090938A078093890710928C0710928B0769
:1047900090938E0780938D071092900710928F0749
:1047A0009093920780939107F092930790E89093EB
:1047B00062071092640787E080936507F0926607AE
:1047C00029831A8389E08B8338E03C8351EA5D8337
:1047D0001E8335E83F83F88629878A8739E13B873E
:1047E0001C8739E23D879E8735E13F87188A35E28D
:1047F000398B1A8B75E77B8B1C8B65E96D8B9E8BD8
:1048000035E53F8B188E35E6398F1A8E41E84B8F90
:104810000C8F2D8F1E8F8F8F18A3E6E1DE2ED9A26D
:104820001AA39BA3B6E2BCA3AFEFADA3FFE7FEA321
:104830007FA3E0E1E8A769A7FAA65BA71CA68DA75E
:1048400030E33EA78FA731E338AB89AB32E33AAB15
:104850004BAB0CAB30EC3DAB2EAB0FABD8AE19AFC6
:104860009AAFBBAFACAFFDAF7EAFEFAF21966FAFEE
:10487000219722960FAF229723965FAF2397249616
:104880001FAE249725968FAF25979AEB26969FAF5C
:10489000269727968FAF27978BEB28968FAF289771
:1048A00029964FAF29972A960FAF2A972B963FAF9D
:1048B0002B972C963FAF2C978BE490E00E944D30C5
:1048C0006C01FE013196DC0101900D92EA94E1F752
:1048D00087E090E00E944D308C01DC0111961C9223
:1048E0001E921396DC92CE9212978BE490E015966E
:1048F0009C938E93149716961C920E94670FFC014E
:10490000A385B485109709F073C014870387858544
:104910009685D80114962D913C91820F931F96870E
:10492000858790916207892F8695869586959770E1
:1049300009F066C08093630710916307812F90E0B0
:104940000E944D309093600780935F0781E09091C3
:104950006407911101C080E0165F810F8093940776
:104960001092460710924507109248071092470789
:1049700010924A071092490710924C0710924B0769
:1049800010924E0710924D071092500710924F0749
:104990001092520710925107109254071092530729
:1049A0001092560710925507109258071092570709
:1049B00010925A07109259078FEF9FEF90935C0760
:1049C00080935B0790935E0780935D0790E080E0A3
:1049D0002091630728171906A9F0A4F0E0915F075A
:1049E000F0916007E80FF91F10820196F1CFDC010A
:1049F0008D919C9111970097D1F70D931C9387CFC0
:104A00008F5F98CF42E16BEA72E087E397E00E9404
:104A1000111143E169EB72E089E297E00E94111104
:104A200044E167EC72E08BE197E00E94111146E4EB
:104A300055E766E475E78BE097E00E94E614109274
:104A4000150783E6E82E82E0F82EF0920C07E0923C
:104A50000B070FEF1FEF1093170700931607109225
:104A600018078FE392E090931A078093190745E1A6
:104A700066E083EF96E00E94BA0C44E066E08BEDBE
:104A800096E00E94BA0C45E066E083EC96E00E9456
:104A9000BA0C41E066E08BEA96E00E94BA0CEBE9C2
:104AA000F6E080E1DF011D928A95E9F783EF96E059
:104AB000909398068093970684E08093990680935C
:104AC0009A0627E936E03093940620939306809364
:104AD00095068093960643EA58E16EE474E781E810
:104AE00096E00E94571745E758E160E574E78FE6C6
:104AF00096E00E9457174EE454E766E474E781E5B8
:104B000096E00E94E61489E592E090935206809325
:104B1000510647E050E060E270E089E596E00E94CF
:104B20003D321092610610926A0610926B06109246
:104B30006C069CE7C92E98E1D92ED0926E06C092E1
:104B40006D0642E959E766E879E78BE296E00E9454
:104B5000E6148FE492E090932C0680932B064BE0B2
:104B600050E060E270E083E396E00E943D321092F4
:104B70003F0610924C0610924D0610924E06D092AF
:104B80005006C0924F064AE154E76AE174E78BE1B0
:104B900096E00E94E61410922506F0921C06E09220
:104BA0001B0610932706009326061092280689E517
:104BB00093E190932A06809329064CE154E76CE137
:104BC00074E78BE096E00E94E61410921506F092CE
:104BD0000C06E0920B06109317060093160610922F
:104BE000180681E593E190931A068093190641E334
:104BF00053E164E274E789EF95E00E94571741E1C1
:104C000053E166E274E787EE95E00E9457174DE0A6
:104C100053E162E374E781ED95E00E94351749E0C6
:104C200053E166E374E78BEB95E00E94351745E0AE
:104C300053E16AE374E785EA95E00E94351741E0A5
:104C400053E16EE374E78FE895E00E9435174DEF6E
:104C500052E162E474E789E795E00E94351749EE76
:104C600052E168E274E789E695E00E9425154DEE71
:104C700052E16AE274E789E595E00E94251541EF6B
:104C800052E16CE274E789E495E00E94251545EF56
:104C900052E16EE274E789E395E00E94251549EF41
:104CA00052E160E374E789E295E00E9425154EE148
:104CB00054E76EE174E789E195E00E94E6141092F2
:104CC0002305F0921A05E09219051093250500932B
:104CD00024051092260584E891E19093280580939D
:104CE00027056FEC72E083E195E00E94DD1BCA5658
:104CF000DF4F0FB6F894DEBF0FBECDBFDF91CF916F
:104D00001F910F91FF90EF90DF90CF90BF90AF90E9
:104D10009F908F907F906F900895CF93DF9300D0F6
:104D200000D000D0CDB7DEB7789484B5826084BD62
:104D300084B5816084BD85B5826085BD85B581609F
:104D400085BD80916E00816080936E00109281001D
:104D500080918100826080938100809181008160D8
:104D60008093810080918000816080938000809199
:104D70009100826080939100809191008160809386
:104D80009100809190008160809390008091C1009B
:104D900084608093C1008091C10082608093C100D3
:104DA0008091C10081608093C1008091C3008160C7
:104DB0008093C3008091C00082608093C000809186
:104DC000C20081608093C20080917A0084608093E9
:104DD0007A0080917A00826080937A0080917A00D4
:104DE000816080937A0080917A00806880937A0055
:104DF0001092B6041092EA031092E9038091D70052
:104E000081608093D70080EA8093D80089B5806163
:104E100089BD89B5826089BD09B400FEFDCF61E01E
:104E200070E080E090E00E944D068091D8008F7C79
:104E300080618093D8008091E000807F8093E000C3
:104E40008091E1008E7E8093E1008DE08093E2000E
:104E5000559A209A61E084E00E94A80461E085E010
:104E60000E94A8048FEF9FEF9093C4048093C30423
:104E70002091EA079091EC078091EB073091E807C9
:104E8000307F3093E8072F602093EA07907F90935C
:104E9000EC078F608093EB071092FA071092F907E6
:104EA00084E08093FD0710923E0410923D0410921E
:104EB000400410923F040E9469048EE393E09093B3
:104EC0006804809367048FE393E090936C0480936D
:104ED0006B048091E8072091EA07811103C0222327
:104EE00009F4CCC08091E2079091E3073091DF078D
:104EF00041E040931C043093EB036091E907622B7F
:104F00006093EE07DC01ED91FC910190F081E02DC2
:104F100009959091E9078091EB07892B8093EF0722
:104F20008093ED079093F40700913F041091EB03F9
:104F300081E0013208F09AC00E9428066B017C01D2
:104F400080918F0481116CC082E080938F0481E096
:104F5000809391048FEF80938E041092B30400939A
:104F6000B204ECEFF3E0A2E9B4E080E0081328C15A
:104F70001092B4048091B404110F182B1093B40450
:104F800080919004813009F01FC1109290040E941A
:104F900028066B017C018091B4048093BB00809152
:104FA000420490914304A0914404B0914504892B9C
:104FB0008A2B8B2BA1F00E942806009142041091AD
:104FC000430420914404309145046C197D098E09F5
:104FD0009F09061717072807390708F442C0809170
:104FE000BC0083FDD8CF85EC8093BC000E942806CE
:104FF0006B017C0180918F04823009F4E7C08091BD
:105000008E048F3F09F404C180918E04803209F42C
:1050100001C180918E04803309F0FEC083E026C078
:105020008091420490914304A0914404B0914504BE
:10503000892B8A2B8B2B09F483CF0E942806809022
:10504000420490904304A0904404B09045046C192D
:105050007D098E099F0986169706A806B90608F0ED
:105060006FCF809141040E94870485E01092400434
:1050700010923F0410921C048093FD078091E40776
:105080008823E1F062E08091E5070E94A804809106
:10509000E6079091E7072091E507222309F4E9C08C
:1050A000213009F0BBC090931C0180931B018091BB
:1050B00069008F73806880936900EB9A0E949F0754
:1050C0006093F0077093F1078093F2079093F307D2
:1050D00061E08CE10E94A80468EC70E08CE10E9421
:1050E000E40442E061E083EF96E00E949D0C43E01F
:1050F00061E08BED96E00E949D0C43E061E083EC63
:1051000096E00E949D0C43E061E08BEA96E00E94ED
:105110009D0C84E190E0A0E0B0E08093AF07909315
:10512000B007A093B107B093B20761E08091B307D5
:105130000E94A80461E08091B5070E94A80461E084
:105140008091B7070E94A80461E08091B3070E9494
:105150003B0461E08091B5070E943B0464E670E087
:1051600080E090E00E944D0680E30E94360E80E5CC
:105170000E94360E82E00E94360E86E00E94360EB5
:105180008091AD079091AE07892B09F07EC0909178
:10519000AB078091AC07989FC00111240E944D304D
:1051A0009093AE078093AD07892B09F06EC089E21A
:1051B00091E00E945F0989E692E00E947317FFCF99
:1051C00091919D938F5FD2CE85EE0ECF8091420458
:1051D00090914304A0914404B0914504892B8A2BFB
:1051E0008B2B09F407CF0E942806009142041091EE
:1051F000430420914404309145046C197D098E09C3
:105200009F09061717072807390708F0F3CE29CF9B
:1052100080E02CCF82E02ACF84E028CF223061F4D6
:10522000909318018093170180916900837F8860B3
:1052300080936900E99A42CF233061F4909316017C
:1052400080931501809169008C7F82608093690052
:10525000E89A34CF273009F031CF90931E01809324
:105260001D0180916A008F7C806280936A00EE9AB3
:1052700025CF90931A0180931901809169008F7C4A
:10528000806280936900EA9A19CF0E94441890E0E6
:1052900080E00E944C2E8D8381E090E00E944C2E95
:1052A0008E838D819E810197039768F0109224016F
:1052B000109223011A821982BE016F5F7F4F90E026
:1052C00080E00E94811C81E0809361070E943D196B
:1052D0008FEF9FEF9093C4048093C30461E087E055
:1052E0000E94A80461E08FE00E94A80460E088E0CA
:1052F0000E94A80461E089E00E94A80487E08093EE
:10530000950761E00E94A80488E08093960760E01A
:105310000E94A8048FE08093970761E00E94A80490
:1053200084E180939A0781E090E00E944C2E89836B
:1053300082E090E00E944C2E8A8383E090E00E94FD
:105340004C2E8B8384E090E00E944C2E8C8320E0D6
:1053500044E570E060E08BED96E00E94F70B20E002
:1053600045E461E070E08BED96E00E94F70B20E0F1
:105370004BE462E070E08BED96E00E94F70B20E0DA
:1053800040E263E070E08BED96E00E94F70B20E0D6
:1053900043E464E070E08BED96E00E94F70B20E0C0
:1053A00042E565E070E08BED96E00E94F70B20E0AF
:1053B00045E466E070E08BED96E00E94F70B20E09C
:1053C00041E467E070E08BED96E00E94F70B20E08F
:1053D00044E570E060E083EC96E00E94F70B20E08B
:1053E00049E461E070E083EC96E00E94F70B20E076
:1053F0004FE462E070E083EC96E00E94F70B20E05F
:105400004EE463E070E083EC96E00E94F70B20E04E
:1054100043E564E070E083EC96E00E94F70B20E047
:1054200045E565E070E083EC96E00E94F70B20E034
:1054300046E466E070E083EC96E00E94F70B20E023
:1054400043E467E070E083EC96E00E94F70B20E015
:1054500046E570E060E08BEA96E00E94F70B8091F1
:10546000A7079091A807892B31F0E091A307F0914D
:10547000A407309721F41092EC03ECEEF3E021E066
:10548000408161E070E08BEA96E00E94F70B80912A
:10549000A7079091A807039738F0E091A307F09130
:1054A000A407309709F079C01092EC03ECEEF3E01A
:1054B00020E0408162E070E08BEA96E00E94F70B0A
:1054C0008091A7079091A807049738F0E091A3076F
:1054D000F091A407309709F062C01092EC03ECEE53
:1054E000F3E020E0408163E070E08BEA96E00E9408
:1054F000F70B61E070E081E090E00E940C0762E051
:1055000070E082E090E00E940C0760E081E30E947E
:10551000BB0D61E082E30E94BB0D62E083E30E9469
:10552000BB0D63E084E30E94BB0D64E085E30E9451
:10553000BB0D65E086E30E94BB0D66E087E30E9439
:10554000BB0D60E088E50E94520D61E080E50E949D
:10555000520D0E94801760ED77E080E090E00E949D
:105560004D060E944418E0909306F090940610E0D7
:10557000F70182811817A8F4E10FF11D1482D701F9
:105580008D919C91DC01ED91FC910480F581E02DE1
:10559000412F60E009951F5FEBCF329689CF33969C
:1055A000A0CF70E060E08BED96E00E94420C61E0DD
:1055B00070E08BED96E00E94420C62E070E08BEDB3
:1055C00096E00E94420C63E070E08BED96E00E9452
:1055D000420C64E070E08BED96E00E94420C65E0C6
:1055E00070E08BED96E00E94420C66E070E08BED7F
:1055F00096E00E94420C67E070E08BED96E00E941E
:10560000420C70E060E083EC96E00E94420C61E0A6
:1056100070E083EC96E00E94420C62E070E083EC64
:1056200096E00E94420C63E070E083EC96E00E94FA
:10563000420C64E070E083EC96E00E94420C65E06E
:1056400070E083EC96E00E94420C66E070E083EC30
:1056500096E00E94420C67E070E083EC96E00E94C6
:10566000420C70E060E08BEA96E00E94420C61E040
:1056700070E08BEA96E00E94420C62E070E08BEAF8
:1056800096E00E94420C63E070E08BEA96E00E9494
:10569000420C97EDE92E97E0F92E20E0C22E20E093
:1056A000D22E01EC17E041E0F801658183819481FD
:1056B0000E944015B82E41E0D80116966C911697BD
:1056C00013968D919C910E944015F80120812F70B6
:1056D000880F8B29F4E02F9F9001112423593E4F0E
:1056E000280F311DD9019C91F8019083907390315E
:1056F00011F0903279F481E0903109F080E0D80126
:105700001796ED91FC911897309721F019966D91AD
:105710007C910995055F1F4FE016F10621F68091F7
:105720009F079091A007A091A107B091A207B1FD9A
:105730003AC090E080E00E94C802882371F081E0C6
:1057400090E090932401809323010E94461163E22C
:1057500071E090E080E00E94811C81E090E00E9476
:10576000C802882361F0109224011092230163E2A1
:1057700071E090E080E00E94811C0E94461182E06E
:1057800090E00E94C802882371F082E090E090933C
:1057900024018093230163E271E090E080E00E94A5
:1057A000811C0E9446118091230190912401892B34
:1057B00009F041C084E10E948705BC01990F880B64
:1057C000990B0E94C02D2FE832EC45E850E40E946E
:1057D000A52F0E94173089E00E94E4040E94201B3C
:1057E0000E9461130E946E118091F1039091F20367
:1057F00090934607809345078091610781110E942D
:105800003D198091EF039091F003909348078093A6
:1058100047078091610781110E943D198091ED0336
:105820009091EE0390934A07809349078091610716
:1058300081110E943D1980912301909124010197CB
:1058400009F0FDC060911F0170912001809121013C
:10585000909122010E94173089E00E94E4040E9486
:1058600061130E94B60540909B0750909C07609082
:105870009D0770909E07641575058605970509F4C8
:10588000DEC000919F071091A0072091A1073091E1
:10589000A207B901A8018BE17695679557954795C1
:1058A0008A95D1F74A015B01B1E08B229924AA24A1
:1058B000BB24417073FA552750F9451308C032FBD9
:1058C000442740F972FA882780F9481781F06BE085
:1058D00073E032FF08C06FE673E089288A288B28BE
:1058E00011F063E073E087ED92E00E94F8186CE13C
:1058F00070E08FED92E00E940A196DE170E08EEE8B
:1059000092E00E940A196CE070E08DEF92E00E9434
:105910000A196DE070E085E093E00E940A196EE0DC
:1059200070E08DE093E00E940A196FE070E085E17D
:1059300093E00E940A1960E170E08DE193E00E941B
:105940000A1970E060E085E293E00E940A1961E0C4
:1059500070E08BE293E00E940A1962E070E081E35C
:1059600093E00E940A1963E070E087E393E00E94ED
:105970000A1964E070E08DE393E00E940A1965E083
:1059800070E083E493E00E940A1966E070E089E425
:1059900093E00E940A1967E070E08FE493E00E94B0
:1059A0000A1968E070E085E593E00E940A196BE04F
:1059B00070E08BE593E00E940A1969E070E083E6ED
:1059C00093E00E940A196AE070E08BE693E00E947F
:1059D0000A1969E170E081E793E00E940A1964E125
:1059E00070E088E793E00E940A1968E170E080E8BF
:1059F00093E00E940A1965E170E08AE893E00E9452
:105A00000A1963E170E082E993E00E940A1966E1F5
:105A100070E08AE993E00E940A1967E170E081EA88
:105A200093E00E940A1962E170E089EA93E00E9423
:105A30000A1961E170E080EB93E00E940A198091FD
:105A40002301909124010297D1F560911F0170917B
:105A5000200180912101909122010E94173089E05C
:105A60000E94E4040E9461130E94201B0E946E1198
:105A70008091F1039091F20390934607809345073C
:105A80008091610781110E943D198091EF039091EF
:105A9000F003909348078093470780916107811135
:105AA0000E943D198091ED039091EE0390934A0777
:105AB000809349078091610781110E943D19C114AB
:105AC000D10409F4EECD0E940000EBCD83E195E016
:105AD0000E94D51B83EA97E00C94D51BFC01882714
