:100000000C94D9000C9401010C9401010C94010191
:100010000C9401010C9401010C9401010C94010158
:100020000C9401010C9401010C946B0C0C94DA0CEF
:100030000C9401010C9401010C9401010C94010138
:100040000C9401010C9401010C9401010C94010128
:100050000C9401010C9401010C9401010C94210CED
:100060000C9401010C9401010C9401010C94010108
:100070000C9401010C9401010C9401010C940101F8
:100080000C9401010C9401010C9401010C940101E8
:100090000C9401010C9401010C9401010C940101D8
:1000A0000C9401010C9401010C940101080B000255
:1000B0000202000009040000010202000005240001
:1000C0001001052401010104240206052406000193
:1000D0000705810310004009040100020A00000026
:1000E00007050202400000070583024000000403E8
:1000F000090412010002EF020140C016DC350001C4
:1001000001020301537061726B46756E0054656B9A
:1001100020463138204C616E64696E670007060521
:10012000040100080A0B0C0D090000000024002740
:10013000002A002D00300000000000250028002BC0
:10014000002E003100000000002300260029002CB2
:10015000002F000404040404030405020202020444
:100160000302020202060606060606040402020252
:1001700004040408020110408040102040804080A8
:10018000080204018040201002011080102040402D
:10019000200000000200090F0000030401000C0011
:1001A000000000000000000000000000000000004F
:1001B0004A0F11241FBECFEFDAE0DEBFCDBF12E041
:1001C000A0E0B1E0E0E1F3E302C005900D92AA37B0
:1001D000B107D9F724E0AAE7B2E001C01D92AD391A
:1001E000B207E1F710E0C9EDD0E004C02197FE01AD
:1001F0000E947F17C83DD107C9F70E9477120C945F
:1002000086190C94000061E071E00E94571790E09D
:1002100080E00E94BB1760931301709314018093D8
:1002200015019093160108950895CF92DF92EF92F1
:10023000FF920F931F93CF93DF93D901E8016A01D7
:10024000F9014217530714F06901FA01882309F4F0
:1002500040C0CB016C157D050CF4C6019F018E17C3
:100260009F070CF49C01A417B50734F4CF01821B3F
:10027000930B9C012C0D3D1D0D2C000CEE08FF086E
:10028000032E000C440B550B2C193D094E095F0938
:10029000AEEFBFEF0E941B179F01FF0F440B550BE2
:1002A0002C193D094E095F090E94FC16DA01C901AB
:1002B0008F5F9F47A109B1098883998382E090E00D
:1002C000DF91CF911F910F91FF90EF90DF90CF9032
:1002D000089590E080E0F4CFE5E7F3E040855185B4
:1002E0002681378124273527A90102C056954795D5
:1002F0008A95E2F7CA0181700895FC018091B902E4
:10030000882311F13FB7F89482E08093E9002091AF
:10031000F200822F90E01816190614F481E090E0A4
:10032000882339F0289844E64093B8024091F100C0
:100330004083222339F02091F200211103C02BE6E3
:100340002093E8003FBF08958FEF9FEF08958150FD
:100350008F3008F047C0E82FF0E0EF54FE4F0C94C8
:100360007F17CE01D201C001C601CA01F201F2011C
:10037000F201D501DB01DF01E301E901F201ED0149
:10038000809180008F778093800008958091800015
:100390008F7DF9CF80918000877FF5CF84B58F77EF
:1003A00084BD089584B58F7DFBCF809190008F77B9
:1003B000809390000895809190008F7DF9CF809177
:1003C0009000877FF5CF8091C0008F778093C00029
:1003D00008958091C0008F7DF9CF8091C200877F02
:1003E0008093C20008951F93CF93DF93282F30E0AE
:1003F000F901EF56FE4F8491F901EE58FE4FD4916A
:10040000F901ED5AFE4FC491CC23A9F0162F8111AA
:100410000E94A701EC2FF0E0EE0FFF1FE95CFE4FFA
:10042000A591B4918FB7F894EC91111108C0D095B3
:10043000DE23DC938FBFDF91CF911F910895DE2BD8
:10044000F8CFEF92FF920F931F93CF93DF9380919A
:100450007D0390917E0390937C0380937B0360E007
:10046000809175030E94F30180917A0390E08230BD
:10047000910538F0880F991F880F991F05970197EC
:10048000F1F761E0809175030E94F30110E000E054
:10049000D0E0C0E0809178039091790308171907A4
:1004A00008F051C02091760330E0F901EF56FE4F7D
:1004B0008491F901EE58FE4FE490F901ED5AFE4F98
:1004C000F490FF2009F43CC081110E94A701EF2D98
:1004D000F0E0EE0FFF1FEB5BFE4FA591B491EC91A6
:1004E000EE2231E020E009F430E0832F922F2091BA
:1004F00078033091790321503109201B310B02C060
:10050000880F991F2A95E2F7C82BD92B61E08091BB
:1005100077030E94F30180917A0390E08230910585
:1005200038F0880F991F880F991F05970197F1F7E9
:1005300060E0809177030E94F3010F5F1F4FAACF05
:1005400090E080E0D4CFD0937E03C0937D03CE01B2
:10055000DF91CF911F910F91FF90EF900895CF936E
:10056000DF9390E0FC01EE58FE4F24918D5A9E4F90
:10057000FC0184918823C9F090E0880F991FFC0149
:10058000E75DFE4FA591B491FC01E95CFE4FC5917A
:10059000D49161110DC09FB7F8948C91209582235E
:1005A0008C938881282328839FBFDF91CF91089562
:1005B000623051F49FB7F8943C91822F8095832349
:1005C0008C93E8812E2BEFCF8FB7F894EC912E2BE4
:1005D0002C938FBFEACF1F93CF93DF93182FEB019C
:1005E00061E00E94AF02209739F460E0812FDF9133
:1005F000CF911F910C94F301CF3FD10511F461E02D
:10060000F5CFE12FF0E0EF56FE4FE491E150EF30EF
:1006100008F07FC0F0E0E15FFC4F0C947F171E03F1
:1006200026032B0335033F03890389038903490309
:1006300053035D036703740389037C0384B58068F7
:1006400084BDC7BDDF91CF911F91089584B58062AD
:1006500084BDC8BDF7CF8091800080688093800002
:10066000D0938900C0938800EDCF80918000806294
:1006700080938000D0938B00C0938A00E3CF809159
:100680008000886080938000D0938D00C0938C00A0
:10069000D9CF80919000806880939000D09399008A
:1006A000C0939800CFCF809190008062809390009B
:1006B000D0939B00C0939A00C5CF80919000886032
:1006C00080939000D0939D00C0939C00BBCF8091FD
:1006D000C00080688093C0008091C0008F7B8093B1
:1006E000C000C093CF00AECF8091C00080628093E5
:1006F000C000C093D000A6CF8091C20088608093D4
:10070000C2008091C2008B7F8093C200C093D20050
:1007100099CFC038D1050CF072CF67CF823108F085
:100720008251E82FF0E0E35EFE4FE49190917B0070
:100730008E2F880F880F80729F7D892B80937B007E
:10074000E770E064E0937C0080917A00806480939D
:100750007A0080917A0086FDFCCF8091780090919C
:10076000790008953FB7F8948091B4029091B50252
:10077000A091B602B091B70226B5A89B05C02F3F45
:1007800019F00196A11DB11D3FBFBA2FA92F982FB7
:100790008827BC01CD01620F711D811D911D42E0B2
:1007A000660F771F881F991F4A95D1F708958F927A
:1007B0009F92AF92BF92CF92DF92EF92FF924B0146
:1007C0005C010E94B2036B017C010E94B2036C19B0
:1007D0007D098E099F09683E734081059105A8F344
:1007E00021E0821A9108A108B10888EEC80E83E0C2
:1007F000D81EE11CF11C81149104A104B10429F755
:10080000FF90EF90DF90CF90BF90AF909F908F9030
:1008100008954091A3025091A4022091A102309129
:10082000A20242175307B4F49091E8009570E1F3E7
:100830009091E80092FD19C08093F1008091A3028D
:100840009091A40201968F739927892B19F48EEF4A
:100850008093E8008091A3029091A4020196909366
:10086000A4028093A30281E0089580E00895EF92AE
:10087000FF920F931F93CF93DF93F82E192FE62E3D
:10088000042F81E0860F880F0E94090483E00E94F4
:100890000904CF2DD12FEC0EFD2EF11CCE15DF0556
:1008A000B9F007FF13C0FE0184910E940904182FBC
:1008B00080E00E940904812321968111EFCFDF910E
:1008C000CF911F910F91FF90EF9008958881EDCF08
:1008D00081E0F5CFDF92EF92FF920F931F93CF93BA
:1008E000DF93D82E8A01EB017B01E40EF51ECE15B5
:1008F000DF0559F0D7FE12C0FE0184910E94090461
:1009000021968111F4CF0FEF1FEFC801DF91CF9136
:100910001F910F91FF90EF90DF9008958881EECFA7
:100920002FB7F89487708093E9009091E800892FA1
:10093000807295FF04C09091F20080E4891B2FBF64
:1009400008957F928F929F92AF92BF92CF92DF9243
:10095000EF92FF920F931F93CF93DF93C82E8B01DB
:100960007A018091B902811110C08FEF9FEFDF9162
:10097000CF911F910F91FF90EF90DF90CF90BF909C
:10098000AF909F908F907F9008958091A70280FFF5
:1009900005C08091E00082608093E000CE2DDF2DC5
:1009A000D12C8AEFB82E8C2D8770982E8C2D8072CA
:1009B000882E8C2D8074782E9AE3A92E209719F416
:1009C000DD2009F452C08C2D0E94900481110AC0D0
:1009D000BA94BB2051F261E070E080E090E00E94A8
:1009E000D703ECCF8C171D0611F00CF08C2F9FB79E
:1009F000F8949092E9002091E80025FD02C09FBF85
:100A0000DDCF282F30E0C21BD30B882029F0815086
:100A1000A0F01092F100FBCFF801C7FC0AC0815092
:100A200050F041914093F100FACF44914093F1008E
:100A300031968150D0F7020F131FDD2021F0A092D4
:100A4000E800D12CDCCF8091E80085FD07C0A092A2
:100A5000E800DD24D394209791F2F3CF209779F624
:100A6000772069F2A092E800CACF5D9884E680936F
:100A7000A602C7017CCF615030F02091F100FC014B
:100A800020830196F8CF289884E68093B8020895D1
:100A90008091990281110DC082E08093950284E0DB
:100AA00080939602109298021092970281E08093B0
:100AB000990285E992E008950F931F93CF93DF93F6
:100AC0001F92CDB7DEB782E0898342E450E06CEA42
:100AD00070E080E80E946A040E944805DC011296DA
:100AE0000D911C910115110589F0D801ED91FC9132
:100AF0000280F381E02DBE016F5F7F4FC801099531
:100B000097FD04C0F80100851185ECCF89810F9015
:100B1000DF91CF911F910F910895CF93DF93EC0157
:100B200080911201882331F083E00E94A1041816FD
:100B3000190634F081E090E09B838A8380E090E0A6
:100B4000DF91CF910895CF93DF931F92CDB7DEB79A
:100B50006983DC01ED91FC910280F381E02D41E09D
:100B600050E0BE016F5F7F4F09950F90DF91CF91ED
:100B7000089583E08093E9008091F200882319F0C2
:100B80008AE38093E800089583E00E94900490E057
:100B90000895CF93DF931F92CDB7DEB7FC01848514
:100BA000958597FD08C02FEF3FEF358724870F907D
:100BB000DF91CF910895CE0101960E947D010197AA
:100BC00019F4898190E0F3CF8FEF9FEFF0CF0F936F
:100BD0001F93CF93DF931F92CDB7DEB78C01FC013B
:100BE0008485958597FF0BC0CE0101960E947D01FB
:100BF000019771F4898190E0F80195878487F80165
:100C0000848595850F90DF91CF911F910F91089565
:100C10008FEF9FEFF1CFFC018485958597FD0BC089
:100C20009FB7F89482E08093E9008091F2009FBF23
:100C300090E0019608959FB7F89482E08093E900D0
:100C40008091F2009FBF90E00895DC01FB011296B5
:100C50002C911297848195812817190641F491816E
:100C60008081813A31F49D7F81E0913009F080E00C
:100C700008958132E1F79B3029F482811F968C938D
:100C800081E008959A3099F7828150968C93F8CF3D
:100C9000DC01FB0188E4808389E4818384E482832E
:100CA0001D969C911D979F709F5B93831D968D91C0
:100CB0009C9124E0969587952A95E1F78F708F5B3C
:100CC000848385E00895EF92FF920F931F93CF9353
:100CD000DF93FB012081213889F52381223271F5D0
:100CE000DC0112964C91248135814217130631F5AF
:100CF0008C01FC01C385D485F12CE12C209791F067
:100D00004C815D816A817B818E81811180E80E94A6
:100D10006A048F3F980759F0E80EF91E0990D881B0
:100D2000C02DECCF81E0D8011F968C93C701DF91D5
:100D3000CF911F910F91FF90EF90089590E080E088
:100D4000F6CFCF93DF93CDB7DEB769970FB6F894A0
:100D5000DEBF0FBECDBFFC01DB018C918F5F8C939A
:100D60009E012D5F3F4F8DE0D9011D928A95E9F7D5
:100D700029E0298384E08A8391E09D8383E08E8348
:100D80002A8721E22B879C879D879F8722E2288BD9
:100D900027E02B8B25E02C8B8E8B20E430E0388FE6
:100DA0002F8B998F82818B8395858685998B8A8BF2
:100DB000838180688D8B49E150E0BE016F5F7F4F7A
:100DC00080E00E946A0469960FB6F894DEBF0FBEF9
:100DD000CDBFDF91CF910895CF93DF9380918D02A6
:100DE000811167C081E0809380028093810226E8B0
:100DF00032E0309383022093820210928502109297
:100E0000840227E331E030937D0220937C0210922C
:100E100088021092870210928A02109289028093AF
:100E20008B0280938C0281EC809386020E9448059D
:100E3000FC01818190918002482F490F5527551F51
:100E4000483051059CF5A281B381109709F52CE734
:100E500032E033832283208120937E0280937F02BD
:100E600080918102820F808320918202A22FB09113
:100E700083028A2F821B8917C8F481813D91C82F74
:100E8000D0E0C050DF4F38838F5F8183F2CFD9012C
:100E900018962D913C91199721153105C1F72CE732
:100EA00032E019963C932E931897D5CF81E080932A
:100EB0008D028CE792E0DF91CF91089561E08AE0A6
:100EC0000E94F30168EC70E080E090E00E94D7039C
:100ED00060E08AE00E94F30168EC70E080E090E05E
:100EE0000E94D70361E08AE00E94F30168EC70E0A1
:100EF00080E090E00E94D70360E08AE00E94F30166
:100F000068EC70E080E090E00C94D703EF92FF92E1
:100F10000F931F93CF93DF93EC018E810E948E037A
:100F20008C01EF810E2E000CFF0B30E020E0C6EFAD
:100F3000DFEF80E0E12C94E0F92E2E173F076CF4F0
:100F40000C171D073CF0C701BF010E946B17C60FAD
:100F5000D71F822F2F5F3F4FF0CFDF91CF911F918F
:100F60000F91FF90EF900895DC011A968C911A97DB
:100F700080FF21C01E96ED91FC911F973097D9F00C
:100F8000F89418968D919C9119971A962C911A970E
:100F90002E7F1A962C931A9778941B962D913C913C
:100FA0001C97822393231D962C9102C096958795BA
:100FB0002A95E2F709940895FC018285811105C004
:100FC0005187408785E0828705C080859185841799
:100FD0009507B1F7089508950895FC010190002048
:100FE000E9F73197AF01481B590BBC018AEB92E03E
:100FF0000C948D05FC01828580FF1DC0F8948085CE
:10100000918522852E7F22877894238534858223BB
:101010009323892B61F061E085850E94F3018BE6C3
:1010200091E00E94ED0783E791E00C94ED0760E00A
:1010300085850C94F3010895CF93DF93EB0100971E
:1010400011F00E94ED0760E28AEB92E00E94A30596
:10105000CE010E94ED076AE08AEB92E00E94A305B0
:1010600081E0DF91CF91089520917D0330917E033F
:10107000062E02C0369527950A94E2F7522F51703A
:10108000E0917B03F0917C03DF0102C0B695A79548
:101090006A95E2F7BD016170561771F020953095A1
:1010A0002170411101C0252F66E771E0213011F454
:1010B00067EB71E00C941C0808950F931F93CF9376
:1010C000DF93EC018B01B801CE010E941C0888233C
:1010D000D1F381E0DF91CF911F910F910895892B7A
:1010E00031F467EB71E088E791E00C945D080895B6
:1010F0008F929F92AF92BF92CF92DF92EF92FF9228
:101100000F931F93CF93DF93CDB7DEB7ADB6BEB6C7
:101110008091CE032DB73EB7281B31090FB6F89446
:101120003EBF0FBE2DBF8DB79EB701966C01E090FC
:101130009D03F12C8091990390919A03D601FC01B3
:101140009F01281B390B2E153F051CF421912D936F
:10115000F7CF80919E03882359F180919503909158
:10116000960328E097FD09C068E671E00E946B17BE
:101170006DE270E00E946B17262F8091970390918B
:10118000980368E097FD08C068E671E00E946B175D
:101190006DE270E00E946B17F601EE0DFF1D90E10D
:1011A000699FB0011124262B2083F70131967F011E
:1011B00086010E0D1F1D2091A3033091A4034091C1
:1011C000A1035091A20360917F03709180038091ED
:1011D0009F0381700E941501E80EF91E86010E0D15
:1011E0001F1D2091A7033091A8034091A5035091A2
:1011F000A603609181037091820380919F0386957D
:1012000081700E941501E80EF91E86010E0D1F1D4A
:101210002091AB033091AC034091A9035091AA03F4
:10122000609183037091840380919F0382FB8827E0
:1012300080F90E941501E80EF91E86010E0D1F1D92
:101240002091AF033091B0034091AD035091AE03B4
:10125000609185037091860380919F0383FB8827AB
:1012600080F90E941501E80EF91E86010E0D1F1D62
:101270002091B3033091B4034091B1035091B20374
:10128000609187037091880380919F03829581709C
:101290000E941501E80EF91E86010E0D1F1D2091FA
:1012A000B7033091B8034091B5035091B6036091F4
:1012B000890370918A0380919F0385FB882780F9B9
:1012C0000E941501E80EF91E86010E0D1F1D2091CA
:1012D000BB033091BC034091B9035091BA036091B4
:1012E0008D0370918E038091A00381700E9415017F
:1012F000E80EF91E86010E0D1F1D2091BF033091CF
:10130000C0034091BD035091BE0360918B03709167
:101310008C038091A003869581700E941501E80ED0
:10132000F91E86010E0D1F1D2091C3033091C403C9
:101330004091C1035091C20360918F03709190035B
:101340008091A00382FB882780F90E941501E80E96
:10135000F91E86010E0D1F1D2091C7033091C80391
:101360004091C5035091C60360919103709192031F
:101370008091A00383FB882780F90E9415018E0DC0
:101380009F1D8601080F191F2091CB033091CC03BC
:101390004091C9035091CA036091930370919403E3
:1013A0008091A003829581700E9415010E94EC0635
:1013B0004C014091CE038091CD0350E07A01FFEFC4
:1013C000EF1AFF0A2DB73EB72E193F090FB6F89452
:1013D0003EBF0FBE2DBF0DB71EB70F5F1F4FEDB73E
:1013E000FEB78183B601C80101960E947419F40109
:1013F0008381A701B80180640E94A1040FB6F8940C
:10140000BEBE0FBEADBEDF91CF911F910F91FF9079
:10141000EF90DF90CF90BF90AF909F908F90089506
:1014200090919C03891700F5E82FE695E695E695DF
:101430002091990330919A03E20FF32FF11D282F89
:10144000277081E090E0A0E0B0E004C0880F991F11
:10145000AA1FBB1F2A95D2F72081822B80838091FF
:101460009B0381110C947808089590919C0389172F
:1014700008F5E82FE695E695E695209199033091D9
:101480009A03E20FF32FF11D282F277081E090E0DF
:10149000A0E0B0E004C0880F991FAA1FBB1F2A95C7
:1014A000D2F7809590818923808380919B0381115D
:1014B0000C9478080895CF93DF93E0917D03F09129
:1014C0007E03082E02C0F695E7950A94E2F79E2F58
:1014D0009170A0917B03B0917C0302C0B695A79553
:1014E0008A95E2F7A1709A1721F1211114C0E170D9
:1014F000FF27C42FD62F319789F4862F0E94100A18
:1015000062E370E080E090E00E94D7038D2FDF91CE
:10151000CF910C94350AE095F095E9CF842F0E9485
:10152000100A62E370E080E090E00E94D7038C2F05
:10153000EECFDF91CF910895FF920F931F93CF933A
:10154000DF93F82E162FD42FC22F082E000C990BE4
:101550000E946C01212F012E000C330B811105C05C
:10156000C9010E946C018823E1F180917D03909173
:101570007E039C0102C036952795FA94E2F721700C
:10158000332702C0969587951A95E2F780FF1EC013
:10159000232B89F48D2F0E94100A64E170E080E013
:1015A00090E00E94D7038D2FDF91CF911F910F9173
:1015B000FF900C94350A8C2F0E94100A64E170E0B1
:1015C00080E090E00E94D7038C2FEECF802F0E9406
:1015D000100A64E170E080E090E00E94D703802F61
:1015E000E3CFDF91CF911F910F91FF90089561118B
:1015F00002C00C94350A0C94100ACF93C82F0E9495
:10160000100A64E670E080E090E00E94D7038C2F1F
:10161000CF910C94350A84E10E948E0383339105A7
:10162000E4F480917A0290917B02019749F58091D0
:101630007D0384FD0FC088E290E00E94FD0A66E908
:1016400070E080E090E00E94D70310927B0210923D
:101650007A02089589E290E0F0CF8A3F910584F004
:1016600080917A0290917B02892B51F488E290E07C
:101670000E94FD0A81E090E090937B0280937A02C1
:1016800008950E946F19FF920F931F93CF93DF93DA
:10169000EC018B01FB01F0800E94E616F81621F0A8
:1016A0006F2DCE010E94EE16F801F1802196CE0139
:1016B0000E94E616F81621F06F2DCE010E94EE165C
:1016C000C801DF91CF911F910F91FF900895CF92A4
:1016D000DF92EF92FF920F931F93CF938C010E94A2
:1016E0008607C82F8FB7F8944091B0025091B1028D
:1016F0006091B2027091B3028FBFF8018385948527
:10170000092E000CAA0BBB0BC584D684E784F08895
:101710008C0D9D1DAE1DBF1D84179507A607B7072D
:1017200008F087C02FB7F8948091B0029091B10271
:10173000A091B202B091B3022FBF85879687A78789
:10174000B08B82858C1709F474C066E871E08481DF
:1017500095810E947D19892B71F4C33060F466E78E
:1017600071E087E991E00E941C086CE271E080E082
:1017700090E00E94D703F80184819581C11128C0AF
:1017800067EB71E00E941C08882311F0F8011286B3
:1017900066E871E0F801848195810E947D19892BAA
:1017A00009F047C0C33008F044C06CE271E080E04B
:1017B00090E00E94D70367EB71E087E991E0CF9159
:1017C0001F910F91FF90EF90DF90CF900C941C0829
:1017D00066E771E0C13029F166EA71E0C23009F1D3
:1017E00068EA71E0C330E9F06AEA71E0C430C9F038
:1017F0006CEA71E0C530A9F06EEA71E0C63089F09C
:1018000060EB71E0C73069F062EB71E0C83049F01D
:1018100064EB71E0C93029F066EB71E0CA3009F081
:10182000B7CF0E941C08882309F4B2CFF801C28701
:10183000AFCFCF911F910F91FF90EF90DF90CF909E
:1018400008951F920F920FB60F9211242F933F937A
:101850008F939F93AF93BF938091B0029091B10209
:10186000A091B202B091B3023091AF0223E0230FF6
:101870002D3758F50196A11DB11D2093AF0280931D
:10188000B0029093B102A093B202B093B3028091E0
:10189000B4029091B502A091B602B091B702019640
:1018A000A11DB11D8093B4029093B502A093B6021E
:1018B000B093B702BF91AF919F918F913F912F91BC
:1018C0000F900FBE0F901F90189526E8230F0296D9
:1018D000A11DB11DD2CF1F920F920FB60F921124EE
:1018E0008F939F938091E1009091E100937F90937B
:1018F000E10083FF0FC01092E90091E09093EB00AC
:101900001092EC0092E39093ED001092B90298E0EF
:101910009093F00082FF22C093E09093E9009091B1
:10192000F200992319F09AE39093E8009091A602AF
:10193000992341F09091A60291509093A6029111A3
:1019400001C05D9A9091B802992341F09091B8023C
:1019500091509093B802911101C0289A84FF18C049
:101960008091E2008E7E81608093E2008091E100B0
:101970008F7E8093E1008091A7028E7E80618093AC
:10198000A7029F918F910F900FBE0F901F901895F7
:1019900080FFF7CF8091E2008E7E80618093E2002D
:1019A0008091E1008E7E8093E1008091A7028E7E7F
:1019B0008160E5CF1F920F920FB60F921124CF9244
:1019C000DF92EF92FF920F931F932F933F934F93CA
:1019D0005F936F937F938F939F93AF93BF93EF9397
:1019E000FF93CF93DF93CDB7DEB76C97DEBFCDBF4C
:1019F0001092E9008091E80083FF25C068E0CE01E5
:101A000045960E943B0582EF8093E8008D8987FF11
:101A100039C09091E80090FFFCCF982F907609F0A4
:101A200034C19E894F89588D2F89F88C911131C00E
:101A3000803861F58091A8028093F1001092F10046
:101A40008EEF8093E8006C960FB6F894DEBF0FBE61
:101A5000CDBFDF91CF91FF91EF91BF91AF919F915A
:101A60008F917F916F915F914F913F912F911F9136
:101A70000F91FF90EF90DF90CF900F900FBE0F90DF
:101A80001F9018959EEF9093E800C7CF1092F10039
:101A9000D5CF913059F48111D3CF4130510581F622
:101AA0008091A8028D7F8093A802CACF933049F419
:101AB0008111C6CF4130510519F68091A80282608C
:101AC000F2CF953041F48091E80080FFFCCF206890
:101AD0002093E300B5CF963009F0A9C00B8D1C8D83
:101AE00022E01092E9001092A4021092A302F212D6
:101AF0002EC01092A2021092A1020E945C051F82C9
:101B000099E09983FA8291E09E8390EA98879AEF10
:101B100099872091A3023091A402275F3F4F3C8315
:101B20002B838D831092E9001092A4021092A302DD
:101B30001093A2020093A10249E050E0BE016F5F42
:101B40007F4F80E00E946A040E945C0579CF109369
:101B5000A2020093A1020E944805DC0112960D9199
:101B60001C910115110509F451C1D801ED91FC91A9
:101B70000480F581E02DBE016B5E7F4FC8010995A1
:101B8000009709F03EC1F80100851185EACFF3E026
:101B9000FF120EC08F89882309F440C0823061F49F
:101BA00040E86FE08DE091E00E943704811148CF5A
:101BB00081E28093EB0047CF813029F440E868E070
:101BC00084E091E0F1CF833099F70E944805DC0171
:101BD0001296ED90FC908E010F5F1F4F6801E1148B
:101BE000F10479F0D701ED91FC910680F781E02DA9
:101BF000B801C7010995080F111DF701E084F184B0
:101C0000EECFD8011C92F60101900020E9F7319740
:101C1000BF016C197D0940E0C601C6CF6EEE70E0D1
:101C2000FB01449150E080E80E946A0409CF97309C
:101C300009F4BECF983021F481E08093F10000CF09
:101C4000993009F0FDCE837009F0B2CFE1E0F1E008
:101C500081E031E096E32191222371F08093E90045
:101C60003093EB00DF0111972C912093EC009093BF
:101C7000ED008F5F873079F78EE78093EA0010924E
:101C8000EA008F898093B902DBCE8B8D9C8D1092F8
:101C9000E9001092A4021092A3029093A2028093F2
:101CA000A102898D811192C08E899D89913A49F452
:101CB000813209F07DCF47E050E06BE071E080E0D9
:101CC000B3CF913209F074CF833269F48F89988D44
:101CD000B0E0A0E08093070190930801A093090170
:101CE000B0930A01ADCE803269F48091E80082FFA2
:101CF000FCCF67E08BE091E00E943B058BEF809387
:101D0000E8009ECE823209F09BCE8F89809312012B
:101D1000EEEFFFE7859194918B3F9C4D51F1E0E010
:101D2000F8E080910B0190910C01A0910D01B09110
:101D30000E01803B9440A105B105F1F480911201A0
:101D400080FD1AC0EE3F8AE0F80789F587E797E73C
:101D500091838083809160008093A50288E19BE05D
:101D60000FB6F894A895809360000FBE9093600022
:101D700067CEEEEFFAE0D5CF808191818737974724
:101D800009F05ECEA8958091600088618093600024
:101D90008091A50280936000EE3F2AE0F20789F06F
:101DA0008091FE0A9091FF0A9183808349CE8081C1
:101DB00091818737980751F29093FF0A8093FE0A2A
:101DC000C5CF1092FF0A1092FE0A3ACE0E94480533
:101DD000DC0112960D911C910115110509F4E8CE54
:101DE000D801ED91FC910190F081E02DBE016B5E78
:101DF0007F4FC8010995811123CEF8010085118517
:101E0000EBCF181619060CF41BCED2CEF1E0FF1260
:101E1000BECE62EF70E004CFCF93DF93DC018DE2A2
:101E200091E011969C938E9313967C936E931297E8
:101E300015965C934E931497E091AB02F091AC022F
:101E4000CBEAD2E0309759F4B093AC02A093AB0246
:101E500017961C921E921697DF91CF910895848158
:101E600095818417950740F04817590761F48281DE
:101E700093818617970738F4EF0126960680F7813D
:101E8000E02D309761F71796FC93EE931697B98380
:101E9000A883E2CF4F925F926F927F928F929F9230
:101EA000AF92BF92CF92DF92EF92FF920F931F9368
:101EB000CF93DF93CDB7DEB7C659D1090FB6F894EB
:101EC000DEBF0FBECDBF1092BD021092BC0288EEE5
:101ED00093E0A0E0B0E08093BE029093BF02A09395
:101EE000C002B093C10283E491E09093BB0280935F
:101EF000BA028FEF9FEF9093C7028093C6021092B1
:101F000095041092960410929704109298041092DF
:101F10004B041092520482E08093CF0383E08093BD
:101F2000D00388E0E1E2F1E0A1EDB3E001900D9291
:101F30008A95E1F761ED662E63E0762E7FECC72E81
:101F400073E0D72E7601E7ED8E2EE3E09E2EF3E0D0
:101F50004F2E512C62E0D7018D917D010E94AF027E
:101F600056010FEC13E061E0F80182810E94AF029C
:101F700061E0D80112968C910E94F30160E0F801B3
:101F800082810E94AF02D5011B965C924E921A97F5
:101F90000F5F1F4FB7E0AB0EB11C8016910619F70B
:101FA000E8E3CE0ED11C6E147F04A1F610924A0411
:101FB0001092490410929A031092990310929D0373
:101FC0001092A2031092A1038FEF93E09093A403C9
:101FD0008093A3031092A6031092A5039093A803E5
:101FE0008093A7031092AA031092A9039093AC03C5
:101FF0008093AB031092AE031092AD039093B003A5
:102000008093AF031092B2031092B1039093B40384
:102010008093B3031092B6031092B5039093B80364
:102020008093B7031092BA031092B9039093BC0344
:102030008093BB031092BE031092BD039093C00324
:102040008093BF031092C2031092C1039093C40304
:102050008093C3031092C6031092C5039093C803E4
:102060008093C7031092CA031092C9039093CC03C4
:102070008093CB0323E02093CD0330E830939C037F
:1020800010929E038FE080939F032093A00345E06E
:10209000498391E09A8389E08B8358E05C8371EAFD
:1020A0007D839E8355E85F83288749878A8729E156
:1020B0002B879C8729E22D873E8725E12F87188A69
:1020C00025E2298B9A8BF5E7FB8B9C8BE5E9ED8B61
:1020D0003E8B25E52F8B188E25E6298F1A8E61E819
:1020E0006B8F22E02C8F4D8F9E8F8F8F98A356E1A0
:1020F000F52EF9A29AA33BA306E20CA31FEF1DA3A2
:10210000BFE7BEA3FFA3A0E1A8A7E9A754E05AA791
:102110007BA71CA68DA750E35EA78FA751E358AB02
:1021200089AB52E35AAB8BAB53E35CAB6DAB2EABDD
:1021300050EC5FAB48AF29AFFAAE9BAF3CAF0DAFF1
:102140001EAFBFAF2196FFAF21972296AFAF229768
:102150002396EFAF239724962FAF249725967FAF32
:10216000259726961FAE269727968FAF27979AEB2F
:1021700028969FAF289729968FAF29978BEB2A96A1
:102180008FAF2A972B966FAF2B972C962FAF2C974C
:102190002D965FAF2D972E965FAF2E978DE490E032
:1021A0000E944A187C018DE4FE013196D70101900E
:1021B0000D928A95E1F787E090E00E944A188C0121
:1021C000DC0111961C921E921396FC92EE921297CD
:1021D0008DE490E015969C938E93149716961C921E
:1021E0000E94EC06FC01A385B485109709F073C02A
:1021F0001487038785859685D80114962D913C9187
:10220000820F931F9687858790919C03892F8695CF
:1022100086958695977009F066C080939D0310910E
:102220009D03812F90E00E944A1890939A03809317
:10223000990381E090919E03911101C080E0145FA9
:10224000810F8093CE031092800310927F0310922F
:1022500082031092810310928403109283031092E0
:1022600086031092850310928803109287031092C0
:102270008A031092890310928C0310928B031092A0
:102280008E0310928D031092900310928F03109280
:1022900092031092910310929403109293038FEF84
:1022A0009FEF909396038093950390939803809368
:1022B000970390E080E020919D0328171906A9F06C
:1022C000A4F0E0919903F0919A03E80FF91F1082AE
:1022D0000196F1CFDC018D919C9111970097D1F778
:1022E0000D931C9387CF8F5F98CF80E190E0909300
:1022F00079038093780385E080937A0310927C03BE
:1023000010927B0310927E0310927D0380910A034A
:1023100090910B03909367038093660384E693E0A8
:1023200090930B0380930A038FE591E090936503EC
:10233000809364030EEE12E01093700300936F031A
:10234000109271031092720310927303109274032F
:1023500089EB91E0909369038093680383E1809314
:102360006A0388EC90E090936D0380936C0384E69D
:1023700093E00E94860780936E0388E080936B034E
:102380004EE754E76EE774E786E593E00E940C0F92
:102390001092600385E5E82E81E0F82EF092570355
:1023A000E092560380E098E090936203809361038B
:1023B00080E18093630361E00E94AF0240EA54E74A
:1023C00060EA74E788E493E00E940C0F10925203D5
:1023D000F0924903E0924803E12C94E0F92EF09248
:1023E0005403E092530382E08093550361E00E941E
:1023F000AF0210923D0310923C03109343030093ED
:102400004203109244031092450310924603109227
:10241000470346E455E766E475E78CE293E00E94E3
:102420000C0F1092360305E611E010932D03009374
:102430002C038FEF9FEF9093380380933703109214
:10244000390383E091E090933B0380933A034AE79A
:1024500054E76AE774E78CE193E00E940C0F109256
:10246000260310931D0300931C0380E090E29093D9
:102470002803809327038DE0809329038FE698E05B
:1024800090932B0380932A034EE754E76EE774E79B
:102490008CE093E00E940C0F1092160310930D0332
:1024A00000930C03F0921803E09217038AE08093E4
:1024B000190384E191E090931B0380931A03CA5699
:1024C000DF4F0FB6F894DEBF0FBECDBFDF91CF91C7
:1024D0001F910F91FF90EF90DF90CF90BF90AF9042
:1024E0009F908F907F906F905F904F900895CF93C3
:1024F000DF9300D0CDB7DEB7789484B5826084BD19
:1025000084B5816084BD85B5826085BD85B58160F7
:1025100085BD80916E00816080936E001092810075
:102520008091810082608093810080918100816030
:1025300080938100809180008160809380008091F1
:1025400091008260809391008091910081608093DE
:102550009100809190008160809390008091C100F3
:1025600084608093C1008091C10082608093C1002B
:102570008091C10081608093C1008091C30081601F
:102580008093C3008091C00082608093C0008091DE
:10259000C20081608093C20080917A008460809341
:1025A0007A0080917A00826080937A0080917A002C
:1025B000816080937A0080917A00806880937A00AD
:1025C0001092B9021092A8021092A7028091D7002F
:1025D00081608093D70080EA8093D80089B58061BC
:1025E00089BD89B5826089BD09B400FEFDCF61E077
:1025F00070E080E090E00E94D7038091D8008F7C4B
:1026000080618093D8008091E000807F8093E0001B
:102610008091E1008E7E8093E1008DE08093E20066
:10262000559A209A81E080939B030E9478088FEF4F
:102630009FEF9093C7028093C60290E080E00E94D3
:10264000E616898381E090E00E94E6168A8309817C
:102650001A81B801012E000C880B990B0E94BD173E
:102660009B01AC010E942118811104C01093AE029D
:102670000093AD0281E080939B030E9478088FEF66
:102680009FEF9093C7028093C60261E087E00E94AB
:10269000AF0261E08FE00E94AF0261E085E00E943E
:1026A000AF0261E08AE00E94AF0261E080E10E9437
:1026B000AF0261E082E00E94AF0287E08093750381
:1026C00061E00E94AF0285E08093760360E00E94A3
:1026D000AF028FE08093770361E00E94AF0284E154
:1026E00080937A0388E190E090933D0380933C03CC
:1026F00061E080E10E94F30161E082E00E94F30169
:1027000060ED77E080E090E00E94D70360E080E138
:102710000E94F30160E082E00E94F30195E0D92E6F
:1027200024E0A22E36E0932E82E0B82E0091AD0276
:102730001091AE020115110509F04AC1609117010F
:10274000709118018091190190911A010E948517CA
:102750008AE00E94EB020E940B0B83E10E948E0331
:1027600030E020E046EF5FEF841795071CF04058FB
:102770005F4F89012F5F3F4F28303105A9F78FB791
:10278000F8944091B0025091B1026091B202709100
:10279000B3028FBF8091420390914303092E000C36
:1027A000AA0BBB0B40904403509045036090460336
:1027B00070904703840D951DA61DB71D84179507BE
:1027C000A607B70748F59FB7F8944091B00250911B
:1027D000B1026091B2027091B3029FBF4093440373
:1027E00050934503609346037093470390914103D0
:1027F000901791F080913C03800F0E94100A64E1D1
:1028000070E080E090E00E94D70380913C03800F4D
:102810000E94350A009341030E94210220917B030C
:1028200030917C038217930709F46CC003E010E039
:1028300022E030E041E050E06BE08CE00E949C0A36
:1028400020E045E050E064E070E08EE090E00E941F
:102850005B0A20E047E050E066E070E081E090E055
:102860000E945B0A20E049E050E068E070E090E000
:1028700080E00E945B0A20E04BE050E06AE070E0FC
:102880008FE090E00E945B0A60917D0370917E036F
:10289000672F772762956695677060957095617070
:1028A00077278CE00E94F70AE0907E03F12CB701B5
:1028B00060957095617077278DE00E94F70A6091AE
:1028C0007D0370917E0305E0769567950A95E1F7A3
:1028D000609570956170772780E10E94F70A03E1A7
:1028E00010E022E130E041E150E06AE089E00E943E
:1028F0009C0A20E046E150E065E170E086E090E06F
:102900000E945B0A20917D0330917E03C901969558
:10291000879596958795822B80FD18C082E10E944D
:102920008E0397FD0396BC01759567957595679520
:10293000072E000C880B990B0E94BD17609317019E
:10294000709318018093190190931A0180917D036F
:1029500090917E0395FD34C020917B0330917C03E0
:1029600034FD11C094FF0FC01092AE021092AD0260
:102970001A821982BE016F5F7F4F90E080E00E9453
:10298000430B0E945E0780917B0390917C0393FD33
:1029900017C080917D0390917E0393FF11C001E0E9
:1029A00010E01093AE020093AD020E945E071A83FE
:1029B0000983BE016F5F7F4F90E080E00E94430B70
:1029C00080E090E0892B09F4B1CE0E940000ACCEEB
:1029D0000E940B0B41E06AE070E087EC91E00E94FE
:1029E00034088DE090E00E946C01811106C088E0FF
:1029F00090E00E946C01882309F180917D03909101
:102A00007E03292F3327892F9927829586958770F2
:102A1000822B80FD13C08091A9029091AA02892B7C
:102A200009F04EC066E771E082ED91E00E945D081A
:102A300081E090E09093AA028093A9026091130133
:102A40007091140180911501909116010E948517D3
:102A50008AE00E94EB02CC24C39473E0872E8AEBB9
:102A600092E00E940B06892B09F408C18AEB92E0E0
:102A70000E94C905782E20914B04233009F48FC0A1
:102A800050F5213009F46AC0223009F46FC0B5E571
:102A90007B12F1C0809152048F5F80935204809129
:102AA00052048430E1F6C0924B041092520480919B
:102AB000AB029091AC029093540480935304CFCF17
:102AC00067EB71E082ED91E00E945D081092AA022E
:102AD0001092A902B3CF253009F478C008F467C07A
:102AE0002630A9F62091500430915104982F882760
:102AF000822B932B909351048093500480914E0429
:102B000090914F04019790934F0480934E0400914D
:102B10005304109154040115110509F499C08091D2
:102B20004C0490914D04D80114962D913C91159729
:102B30002817390708F05BC0ED91FC910280F38102
:102B4000E02DC8010995E0915304F0915404868169
:102B500097819093540480935304D9CF99279093ED
:102B60004D0480934C04B0924B0491CF20914C04BF
:102B700030914D04982F8827822B932B90934D04EE
:102B800080934C0480914C0490914D04853595457B
:102B900019F080924B047BCF10924B0478CF992789
:102BA00090934F0480934E04A0924B0470CF2091D9
:102BB0004E0430914F04982F8827822B932B9093AB
:102BC0004F0480934E04D0924B0461CF9927909389
:102BD00051048093500480914E0490914F040197CA
:102BE00090934F0480934E0490924B0450CFF80181
:102BF0008281938120914C0430914D04281739072C
:102C000038F120914C0430914D0428173907C8F051
:102C100080914C0490914D04248135812817390707
:102C200080F0409150045091510460914C04709197
:102C30004D040190F081E02D0190F081E02DC8015C
:102C40000995D80116960D911C910115110579F67B
:102C500080914C0490914D04029690934D04809382
:102C60004C0480914E0490914F04892B09F0ABCF16
:102C7000C0924B040CCF1092520411CF00910A0362
:102C800010910B0301151105D1F0D801ED91FC91C4
:102C90000190F081E02DC8010995F801228133816E
:102CA00080910A0390910B03232B11F49383828369
:102CB000D80112960D911C910817190731F7009150
:102CC000AB021091AC020115110561F0D801ED9134
:102CD000FC910480F581E02DC8010995F801068179
:102CE0001781F1CF0E94210220917B0330917C0358
:102CF0008217930709F42ACE8CE090E00E946C01C1
:102D0000811106C08BE090E00E946C018823A9F03D
:102D100080917D0390917E039C012227307166EAA9
:102D200071E093FF06C067EB71E0232B11F066E7BB
:102D300071E088EE91E00E945D0840E06EE070E096
:102D400088E791E00E94340841E061E070E080EFA4
:102D500091E00E94340841E070E060E08DEF91E086
:102D60000E94340841E06FE070E089E092E00E9448
:102D7000340840E06DE070E088E192E00E943408A1
:102D800040E068E070E089E292E00E94340821E0CF
:102D90004FE050E06EE070E084E090E00E945B0A5B
:102DA00040E065E070E084E492E00E94340841E095
:102DB00066E070E081E592E00E94340841E063E063
:102DC00070E08CE592E00E943408C0CDF999FECF06
:102DD00092BD81BDF89A992780B50895262FF9995B
:102DE000FECF1FBA92BD81BD20BD0FB6F894FA9AEE
:102DF000F99A0FBE01960895052E97FB1EF40094D4
:102E00000E94131757FD07D00E94261707FC03D016
:102E10004EF40C94131750954095309521953F4FE3
:102E20004F4F5F4F089590958095709561957F4FB6
:102E30008F4F9F4F08950E944817A59F900DB49FF4
:102E4000900DA49F800D911D11240895A1E21A2ECA
:102E5000AA1BBB1BFD010DC0AA1FBB1FEE1FFF1F3E
:102E6000A217B307E407F50720F0A21BB30BE40B8E
:102E7000F50B661F771F881F991F1A9469F76095D5
:102E80007095809590959B01AC01BD01CF0108958F
:102E9000A29FB001B39FC001A39F700D811D11249B
:102EA000911DB29F700D811D1124911D0895AA1BC3
:102EB000BB1B51E107C0AA1FBB1FA617B70710F025
:102EC000A61BB70B881F991F5A95A9F78095909557
:102ED000BC01CD01089597FB072E16F4009407D08E
:102EE00077FD09D00E94571707FC05D03EF4909556
:102EF00081959F4F0895709561957F4F0895EE0FCE
:102F0000FF1F0590F491E02D09940E948C1768949E
:102F1000B1110C941B1808950E94001888F09F5757
:102F200098F0B92F9927B751B0F0E1F0660F771FED
:102F3000881F991F1AF0BA95C9F714C0B13091F0E3
:102F40000E941A18B1E008950C941A18672F782F70
:102F50008827B85F39F0B93FCCF3869577956795A8
:102F6000B395D9F73EF490958095709561957F4F14
:102F70008F4F9F4F0895E89409C097FB3EF49095BA
:102F80008095709561957F4F8F4F9F4F9923A9F042
:102F9000F92F96E9BB279395F695879577956795D1
:102FA000B795F111F8CFFAF4BB0F11F460FF1BC015
:102FB0006F5F7F4F8F4F9F4F16C0882311F096E9A8
:102FC00011C0772321F09EE8872F762F05C0662356
:102FD00071F096E8862F70E060E02AF09A95660F0F
:102FE000771F881FDAF7880F9695879597F90895C8
:102FF00057FD9058440F551F59F05F3F71F04795AA
:10300000880F97FB991F61F09F3F79F0879508958E
:10301000121613061406551FF2CF4695F1DF08C0AD
:10302000161617061806991FF1CF869571056105CA
:1030300008940895E894BB2766277727CB0197F972
:1030400008950E942618880B990B0895990F00087F
:10305000550FAA0BE0E8FEEF16161706E807F9076A
:10306000C0F012161306E407F50798F0621B730B05
:10307000840B950B39F40A2661F0232B242B252B86
:1030800021F408950A2609F4A140A6958FEF811D29
:10309000811D08950F931F93CF93DF938230910585
:1030A00010F482E090E0E0919B04F0919C0430E009
:1030B00020E0B0E0A0E0309799F42115310509F443
:1030C0004AC0281B390B24303105D8F58A819B81F1
:1030D0006115710589F1FB0193838283FE0111C0A3
:1030E000408151810281138148175907E0F0481748
:1030F000590799F4109761F012960C931297139652
:103100001C933296CF01DF91CF911F910F910895BB
:1031100000939B0410939C04F4CF2115310551F0CA
:103120004217530738F0A901DB019A01BD01DF0105
:10313000F801C1CFEF01F9CF90939C0480939B04D9
:10314000CDCFFE01E20FF31F8193919322503109FD
:1031500039832883D7CF2091990430919A04232B67
:1031600041F420911D0130911E0130939A04209367
:10317000990420911B0130911C012115310541F466
:103180002DB73EB740911F0150912001241B350BF4
:10319000E0919904F0919A04E217F307A0F42E1B32
:1031A0003F0B2817390778F0AC014E5F5F4F2417AB
:1031B000350748F04E0F5F1F50939A0440939904CF
:1031C000819391939FCFF0E0E0E09CCFCF93DF938A
:1031D0000097E9F0FC01329713821282A0919B04C0
:1031E000B0919C04ED0130E020E01097A1F4208123
:1031F0003181820F931F2091990430919A042817EE
:10320000390709F061C0F0939A04E0939904DF91C3
:10321000CF910895EA01CE17DF07E8F54A815B8177
:103220009E0141155105B1F7E901FB83EA834991FC
:103230005991C40FD51FEC17FD0761F4808191816E
:103240000296840F951FE901998388838281938177
:103250009B838A83F0E0E0E012968D919C91139716
:103260000097B9F52D913C911197CD010296820FEF
:10327000931F2091990430919A042817390739F641
:10328000309751F510929C0410929B04B0939A04CD
:10329000A0939904BCCFD383C28340815181840F12
:1032A000951FC817D90761F44E5F5F4F88819981D8
:1032B000480F591F518340838A819B819383828366
:1032C0002115310509F0B0CFF0939C04E0939B04E5
:1032D0009ECFFD01DC01C0CF13821282D7CF81E0E7
:1032E00090E0F8940C948619FB01DC0102C0019077
:1032F0000D9241505040D8F70895FB01DC018D91AB
:10330000019080190110D9F3990B0895F894FFCF1B
:1033100000C18081000000FFFFFFFF00E10000000E
:1033200000000000007F4300007F4300009D0480F8
:10333000000E0F10111213141500000000EC07EB23
:1033400007EB07000000002506A1066306480600FB
:10335000000000A3058D05C405B9050B06C905E7E6
:103360000500000000DC07EB07FA0700000000671B
:103370000B00000000DC07EB07B407757064617494
:103380006564000D0A0031004C41554E43485F42D0
:1033900041525F53570057494E475F464F4C445F79
:1033A000524F544154450057494E475F464F4C4495
:1033B0005F50554C4C00320033003400350036006D
:1033C00037003800390031300053454C5F4A4554CE
:1033D000545F4B4E4F4200474541525F4C45564566
:1033E0005200454D455247454E43595F474541526E
:1033F0005F524F5441544500464C41505F53570073
:10340000414E54495F534B49445F5357004C444726
:103410005F544158495F535700484F4F4B5F4259E3
:10342000504153535F535700474541525F53494CF6
:10343000454E43455F42544E00474541525F444F1D
:10344000574E4C4F434B5F4F564552524944455F90
:1034500042544E0053454C5F4A4554545F42544ECB
:1034600000484F4F4B5F4C4556455200454D455225
:1034700047454E43595F5041524B494E475F425278
:0A348000414B455F50554C4C0000D5
:00000001FF
